{
  "_format": "hh-sol-artifact-1",
  "contractName": "CasinoSlot",
  "sourceName": "contracts/CasinoSlot.sol",
  "abi": [
    {
      "inputs": [],
      "stateMutability": "nonpayable",
      "type": "constructor"
    },
    {
      "inputs": [
        {
          "internalType": "address",
          "name": "target",
          "type": "address"
        }
      ],
      "name": "AddressEmptyCode",
      "type": "error"
    },
    {
      "inputs": [
        {
          "internalType": "address",
          "name": "implementation",
          "type": "address"
        }
      ],
      "name": "ERC1967InvalidImplementation",
      "type": "error"
    },
    {
      "inputs": [],
      "name": "ERC1967NonPayable",
      "type": "error"
    },
    {
      "inputs": [
        {
          "internalType": "address",
          "name": "spender",
          "type": "address"
        },
        {
          "internalType": "uint256",
          "name": "allowance",
          "type": "uint256"
        },
        {
          "internalType": "uint256",
          "name": "needed",
          "type": "uint256"
        }
      ],
      "name": "ERC20InsufficientAllowance",
      "type": "error"
    },
    {
      "inputs": [
        {
          "internalType": "address",
          "name": "sender",
          "type": "address"
        },
        {
          "internalType": "uint256",
          "name": "balance",
          "type": "uint256"
        },
        {
          "internalType": "uint256",
          "name": "needed",
          "type": "uint256"
        }
      ],
      "name": "ERC20InsufficientBalance",
      "type": "error"
    },
    {
      "inputs": [
        {
          "internalType": "address",
          "name": "approver",
          "type": "address"
        }
      ],
      "name": "ERC20InvalidApprover",
      "type": "error"
    },
    {
      "inputs": [
        {
          "internalType": "address",
          "name": "receiver",
          "type": "address"
        }
      ],
      "name": "ERC20InvalidReceiver",
      "type": "error"
    },
    {
      "inputs": [
        {
          "internalType": "address",
          "name": "sender",
          "type": "address"
        }
      ],
      "name": "ERC20InvalidSender",
      "type": "error"
    },
    {
      "inputs": [
        {
          "internalType": "address",
          "name": "spender",
          "type": "address"
        }
      ],
      "name": "ERC20InvalidSpender",
      "type": "error"
    },
    {
      "inputs": [],
      "name": "EnforcedPause",
      "type": "error"
    },
    {
      "inputs": [],
      "name": "ExpectedPause",
      "type": "error"
    },
    {
      "inputs": [],
      "name": "FailedCall",
      "type": "error"
    },
    {
      "inputs": [],
      "name": "InvalidInitialization",
      "type": "error"
    },
    {
      "inputs": [],
      "name": "NotInitializing",
      "type": "error"
    },
    {
      "inputs": [
        {
          "internalType": "address",
          "name": "owner",
          "type": "address"
        }
      ],
      "name": "OwnableInvalidOwner",
      "type": "error"
    },
    {
      "inputs": [
        {
          "internalType": "address",
          "name": "account",
          "type": "address"
        }
      ],
      "name": "OwnableUnauthorizedAccount",
      "type": "error"
    },
    {
      "inputs": [],
      "name": "ReentrancyGuardReentrantCall",
      "type": "error"
    },
    {
      "inputs": [],
      "name": "UUPSUnauthorizedCallContext",
      "type": "error"
    },
    {
      "inputs": [
        {
          "internalType": "bytes32",
          "name": "slot",
          "type": "bytes32"
        }
      ],
      "name": "UUPSUnsupportedProxiableUUID",
      "type": "error"
    },
    {
      "anonymous": false,
      "inputs": [
        {
          "indexed": true,
          "internalType": "address",
          "name": "owner",
          "type": "address"
        },
        {
          "indexed": true,
          "internalType": "address",
          "name": "spender",
          "type": "address"
        },
        {
          "indexed": false,
          "internalType": "uint256",
          "name": "value",
          "type": "uint256"
        }
      ],
      "name": "Approval",
      "type": "event"
    },
    {
      "anonymous": false,
      "inputs": [
        {
          "indexed": true,
          "internalType": "address",
          "name": "player",
          "type": "address"
        },
        {
          "indexed": false,
          "internalType": "string",
          "name": "transactionType",
          "type": "string"
        },
        {
          "indexed": false,
          "internalType": "uint256",
          "name": "chipsAmount",
          "type": "uint256"
        },
        {
          "indexed": false,
          "internalType": "uint256",
          "name": "ethValue",
          "type": "uint256"
        },
        {
          "indexed": false,
          "internalType": "uint256",
          "name": "exchangeRate",
          "type": "uint256"
        },
        {
          "indexed": false,
          "internalType": "uint256",
          "name": "ethPriceUSD",
          "type": "uint256"
        }
      ],
      "name": "ChipsTransacted",
      "type": "event"
    },
    {
      "anonymous": false,
      "inputs": [
        {
          "indexed": false,
          "internalType": "uint8",
          "name": "version",
          "type": "uint8"
        }
      ],
      "name": "ContractInitialized",
      "type": "event"
    },
    {
      "anonymous": false,
      "inputs": [
        {
          "indexed": true,
          "internalType": "address",
          "name": "player",
          "type": "address"
        },
        {
          "indexed": false,
          "internalType": "uint256",
          "name": "amount",
          "type": "uint256"
        },
        {
          "indexed": false,
          "internalType": "string",
          "name": "reason",
          "type": "string"
        }
      ],
      "name": "EmergencyWithdrawal",
      "type": "event"
    },
    {
      "anonymous": false,
      "inputs": [
        {
          "indexed": true,
          "internalType": "address",
          "name": "owner",
          "type": "address"
        },
        {
          "indexed": false,
          "internalType": "uint256",
          "name": "amount",
          "type": "uint256"
        }
      ],
      "name": "EthWithdrawn",
      "type": "event"
    },
    {
      "anonymous": false,
      "inputs": [
        {
          "indexed": true,
          "internalType": "address",
          "name": "player",
          "type": "address"
        },
        {
          "indexed": true,
          "internalType": "uint256",
          "name": "sessionId",
          "type": "uint256"
        },
        {
          "indexed": false,
          "internalType": "uint256",
          "name": "duration",
          "type": "uint256"
        },
        {
          "indexed": false,
          "internalType": "uint256",
          "name": "spinsCount",
          "type": "uint256"
        },
        {
          "indexed": false,
          "internalType": "uint256",
          "name": "totalBet",
          "type": "uint256"
        },
        {
          "indexed": false,
          "internalType": "uint256",
          "name": "totalWon",
          "type": "uint256"
        },
        {
          "indexed": false,
          "internalType": "string",
          "name": "endReason",
          "type": "string"
        }
      ],
      "name": "GameSessionEnded",
      "type": "event"
    },
    {
      "anonymous": false,
      "inputs": [
        {
          "indexed": true,
          "internalType": "address",
          "name": "player",
          "type": "address"
        },
        {
          "indexed": true,
          "internalType": "uint256",
          "name": "sessionId",
          "type": "uint256"
        },
        {
          "indexed": false,
          "internalType": "uint256",
          "name": "timestamp",
          "type": "uint256"
        }
      ],
      "name": "GameSessionStarted",
      "type": "event"
    },
    {
      "anonymous": false,
      "inputs": [
        {
          "indexed": false,
          "internalType": "uint64",
          "name": "version",
          "type": "uint64"
        }
      ],
      "name": "Initialized",
      "type": "event"
    },
    {
      "anonymous": false,
      "inputs": [
        {
          "indexed": true,
          "internalType": "address",
          "name": "player",
          "type": "address"
        },
        {
          "indexed": true,
          "internalType": "uint256",
          "name": "requestId",
          "type": "uint256"
        },
        {
          "indexed": false,
          "internalType": "uint256",
          "name": "amount",
          "type": "uint256"
        },
        {
          "indexed": false,
          "internalType": "uint256",
          "name": "prizePoolBefore",
          "type": "uint256"
        },
        {
          "indexed": false,
          "internalType": "uint256",
          "name": "prizePoolAfter",
          "type": "uint256"
        }
      ],
      "name": "JackpotHit",
      "type": "event"
    },
    {
      "anonymous": false,
      "inputs": [
        {
          "indexed": true,
          "internalType": "address",
          "name": "previousOwner",
          "type": "address"
        },
        {
          "indexed": true,
          "internalType": "address",
          "name": "newOwner",
          "type": "address"
        }
      ],
      "name": "OwnershipTransferred",
      "type": "event"
    },
    {
      "anonymous": false,
      "inputs": [
        {
          "indexed": false,
          "internalType": "address",
          "name": "account",
          "type": "address"
        }
      ],
      "name": "Paused",
      "type": "event"
    },
    {
      "anonymous": false,
      "inputs": [
        {
          "indexed": true,
          "internalType": "address",
          "name": "newPayoutTables",
          "type": "address"
        }
      ],
      "name": "PayoutTablesUpdated",
      "type": "event"
    },
    {
      "anonymous": false,
      "inputs": [
        {
          "indexed": true,
          "internalType": "address",
          "name": "player",
          "type": "address"
        },
        {
          "indexed": false,
          "internalType": "uint256",
          "name": "totalSpins",
          "type": "uint256"
        },
        {
          "indexed": false,
          "internalType": "uint256",
          "name": "totalBet",
          "type": "uint256"
        },
        {
          "indexed": false,
          "internalType": "uint256",
          "name": "totalWon",
          "type": "uint256"
        },
        {
          "indexed": false,
          "internalType": "uint256",
          "name": "sessionSpins",
          "type": "uint256"
        },
        {
          "indexed": false,
          "internalType": "uint256",
          "name": "sessionBet",
          "type": "uint256"
        },
        {
          "indexed": false,
          "internalType": "uint256",
          "name": "sessionWon",
          "type": "uint256"
        },
        {
          "indexed": false,
          "internalType": "string",
          "name": "milestone",
          "type": "string"
        }
      ],
      "name": "PlayerActivity",
      "type": "event"
    },
    {
      "anonymous": false,
      "inputs": [
        {
          "indexed": false,
          "internalType": "uint256",
          "name": "newTotalPrizePool",
          "type": "uint256"
        },
        {
          "indexed": false,
          "internalType": "int256",
          "name": "amount",
          "type": "int256"
        },
        {
          "indexed": true,
          "internalType": "uint8",
          "name": "reason",
          "type": "uint8"
        }
      ],
      "name": "PrizePoolStateChanged",
      "type": "event"
    },
    {
      "anonymous": false,
      "inputs": [
        {
          "indexed": true,
          "internalType": "uint256",
          "name": "requestId",
          "type": "uint256"
        },
        {
          "indexed": true,
          "internalType": "address",
          "name": "player",
          "type": "address"
        },
        {
          "indexed": false,
          "internalType": "uint8",
          "name": "reelCount",
          "type": "uint8"
        },
        {
          "indexed": false,
          "internalType": "uint256[]",
          "name": "reels",
          "type": "uint256[]"
        },
        {
          "indexed": false,
          "internalType": "enum IPayoutTables.PayoutType",
          "name": "payoutType",
          "type": "uint8"
        },
        {
          "indexed": false,
          "internalType": "uint256",
          "name": "payout",
          "type": "uint256"
        },
        {
          "indexed": false,
          "internalType": "bool",
          "name": "isJackpot",
          "type": "bool"
        }
      ],
      "name": "SpinCompleted",
      "type": "event"
    },
    {
      "anonymous": false,
      "inputs": [
        {
          "indexed": true,
          "internalType": "uint256",
          "name": "requestId",
          "type": "uint256"
        },
        {
          "indexed": true,
          "internalType": "address",
          "name": "player",
          "type": "address"
        },
        {
          "indexed": false,
          "internalType": "uint8",
          "name": "reelCount",
          "type": "uint8"
        },
        {
          "indexed": false,
          "internalType": "uint256",
          "name": "betAmount",
          "type": "uint256"
        },
        {
          "indexed": false,
          "internalType": "uint256",
          "name": "vrfCostETH",
          "type": "uint256"
        },
        {
          "indexed": false,
          "internalType": "uint256",
          "name": "houseFeeETH",
          "type": "uint256"
        },
        {
          "indexed": false,
          "internalType": "uint256",
          "name": "prizePoolContribution",
          "type": "uint256"
        },
        {
          "indexed": false,
          "internalType": "uint256",
          "name": "timestamp",
          "type": "uint256"
        }
      ],
      "name": "SpinInitiated",
      "type": "event"
    },
    {
      "anonymous": false,
      "inputs": [
        {
          "indexed": false,
          "internalType": "string",
          "name": "parameter",
          "type": "string"
        },
        {
          "indexed": false,
          "internalType": "uint256",
          "name": "oldValue",
          "type": "uint256"
        },
        {
          "indexed": false,
          "internalType": "uint256",
          "name": "newValue",
          "type": "uint256"
        }
      ],
      "name": "SystemConfigUpdated",
      "type": "event"
    },
    {
      "anonymous": false,
      "inputs": [
        {
          "indexed": true,
          "internalType": "address",
          "name": "from",
          "type": "address"
        },
        {
          "indexed": true,
          "internalType": "address",
          "name": "to",
          "type": "address"
        },
        {
          "indexed": false,
          "internalType": "uint256",
          "name": "value",
          "type": "uint256"
        }
      ],
      "name": "Transfer",
      "type": "event"
    },
    {
      "anonymous": false,
      "inputs": [
        {
          "indexed": false,
          "internalType": "address",
          "name": "account",
          "type": "address"
        }
      ],
      "name": "Unpaused",
      "type": "event"
    },
    {
      "anonymous": false,
      "inputs": [
        {
          "indexed": true,
          "internalType": "address",
          "name": "implementation",
          "type": "address"
        }
      ],
      "name": "Upgraded",
      "type": "event"
    },
    {
      "anonymous": false,
      "inputs": [
        {
          "indexed": true,
          "internalType": "uint256",
          "name": "requestId",
          "type": "uint256"
        },
        {
          "indexed": false,
          "internalType": "uint256",
          "name": "estimatedCost",
          "type": "uint256"
        },
        {
          "indexed": false,
          "internalType": "uint256",
          "name": "actualCost",
          "type": "uint256"
        },
        {
          "indexed": false,
          "internalType": "uint256",
          "name": "markup",
          "type": "uint256"
        },
        {
          "indexed": false,
          "internalType": "uint256",
          "name": "ethPriceUSD",
          "type": "uint256"
        }
      ],
      "name": "VRFTransaction",
      "type": "event"
    },
    {
      "inputs": [],
      "name": "REEL_3_MULTIPLIER",
      "outputs": [
        {
          "internalType": "uint256",
          "name": "",
          "type": "uint256"
        }
      ],
      "stateMutability": "view",
      "type": "function"
    },
    {
      "inputs": [],
      "name": "REEL_4_MULTIPLIER",
      "outputs": [
        {
          "internalType": "uint256",
          "name": "",
          "type": "uint256"
        }
      ],
      "stateMutability": "view",
      "type": "function"
    },
    {
      "inputs": [],
      "name": "REEL_5_MULTIPLIER",
      "outputs": [
        {
          "internalType": "uint256",
          "name": "",
          "type": "uint256"
        }
      ],
      "stateMutability": "view",
      "type": "function"
    },
    {
      "inputs": [],
      "name": "REEL_6_MULTIPLIER",
      "outputs": [
        {
          "internalType": "uint256",
          "name": "",
          "type": "uint256"
        }
      ],
      "stateMutability": "view",
      "type": "function"
    },
    {
      "inputs": [],
      "name": "REEL_7_MULTIPLIER",
      "outputs": [
        {
          "internalType": "uint256",
          "name": "",
          "type": "uint256"
        }
      ],
      "stateMutability": "view",
      "type": "function"
    },
    {
      "inputs": [],
      "name": "UPGRADE_INTERFACE_VERSION",
      "outputs": [
        {
          "internalType": "string",
          "name": "",
          "type": "string"
        }
      ],
      "stateMutability": "view",
      "type": "function"
    },
    {
      "inputs": [
        {
          "internalType": "address",
          "name": "owner",
          "type": "address"
        },
        {
          "internalType": "address",
          "name": "spender",
          "type": "address"
        }
      ],
      "name": "allowance",
      "outputs": [
        {
          "internalType": "uint256",
          "name": "",
          "type": "uint256"
        }
      ],
      "stateMutability": "view",
      "type": "function"
    },
    {
      "inputs": [
        {
          "internalType": "address",
          "name": "spender",
          "type": "address"
        },
        {
          "internalType": "uint256",
          "name": "value",
          "type": "uint256"
        }
      ],
      "name": "approve",
      "outputs": [
        {
          "internalType": "bool",
          "name": "",
          "type": "bool"
        }
      ],
      "stateMutability": "nonpayable",
      "type": "function"
    },
    {
      "inputs": [
        {
          "internalType": "address",
          "name": "account",
          "type": "address"
        }
      ],
      "name": "balanceOf",
      "outputs": [
        {
          "internalType": "uint256",
          "name": "",
          "type": "uint256"
        }
      ],
      "stateMutability": "view",
      "type": "function"
    },
    {
      "inputs": [],
      "name": "baseChipPriceUSD",
      "outputs": [
        {
          "internalType": "uint256",
          "name": "",
          "type": "uint256"
        }
      ],
      "stateMutability": "view",
      "type": "function"
    },
    {
      "inputs": [],
      "name": "buyChips",
      "outputs": [],
      "stateMutability": "payable",
      "type": "function"
    },
    {
      "inputs": [
        {
          "internalType": "uint256",
          "name": "ethAmount",
          "type": "uint256"
        }
      ],
      "name": "calculateChipsFromETH",
      "outputs": [
        {
          "internalType": "uint256",
          "name": "",
          "type": "uint256"
        }
      ],
      "stateMutability": "view",
      "type": "function"
    },
    {
      "inputs": [
        {
          "internalType": "uint256",
          "name": "chipsAmount",
          "type": "uint256"
        }
      ],
      "name": "calculateETHFromCHIPS",
      "outputs": [
        {
          "internalType": "uint256",
          "name": "ethValue",
          "type": "uint256"
        }
      ],
      "stateMutability": "view",
      "type": "function"
    },
    {
      "inputs": [],
      "name": "callbackGasLimit",
      "outputs": [
        {
          "internalType": "uint32",
          "name": "",
          "type": "uint32"
        }
      ],
      "stateMutability": "view",
      "type": "function"
    },
    {
      "inputs": [
        {
          "internalType": "address",
          "name": "",
          "type": "address"
        }
      ],
      "name": "currentSessionId",
      "outputs": [
        {
          "internalType": "uint256",
          "name": "",
          "type": "uint256"
        }
      ],
      "stateMutability": "view",
      "type": "function"
    },
    {
      "inputs": [],
      "name": "decimals",
      "outputs": [
        {
          "internalType": "uint8",
          "name": "",
          "type": "uint8"
        }
      ],
      "stateMutability": "view",
      "type": "function"
    },
    {
      "inputs": [
        {
          "internalType": "address",
          "name": "player",
          "type": "address"
        },
        {
          "internalType": "string",
          "name": "reason",
          "type": "string"
        }
      ],
      "name": "emergencyWithdrawPlayerFunds",
      "outputs": [],
      "stateMutability": "nonpayable",
      "type": "function"
    },
    {
      "inputs": [],
      "name": "endSession",
      "outputs": [],
      "stateMutability": "nonpayable",
      "type": "function"
    },
    {
      "inputs": [],
      "name": "getETHStats",
      "outputs": [
        {
          "internalType": "uint256",
          "name": "contractETHBalance",
          "type": "uint256"
        },
        {
          "internalType": "uint256",
          "name": "vrfRequestsAffordable",
          "type": "uint256"
        },
        {
          "internalType": "uint256",
          "name": "vrfCostETHTokens",
          "type": "uint256"
        },
        {
          "internalType": "uint256",
          "name": "vrfCostUSDCents",
          "type": "uint256"
        }
      ],
      "stateMutability": "view",
      "type": "function"
    },
    {
      "inputs": [],
      "name": "getGameStats",
      "outputs": [
        {
          "internalType": "uint256",
          "name": "prizePool",
          "type": "uint256"
        },
        {
          "internalType": "uint256",
          "name": "houseEdgePercent",
          "type": "uint256"
        },
        {
          "internalType": "address",
          "name": "payoutTablesAddress",
          "type": "address"
        }
      ],
      "stateMutability": "view",
      "type": "function"
    },
    {
      "inputs": [
        {
          "internalType": "address",
          "name": "player",
          "type": "address"
        }
      ],
      "name": "getPlayerStats",
      "outputs": [
        {
          "internalType": "uint256",
          "name": "balance",
          "type": "uint256"
        },
        {
          "internalType": "uint256",
          "name": "winnings",
          "type": "uint256"
        },
        {
          "internalType": "uint256",
          "name": "spinsCount",
          "type": "uint256"
        },
        {
          "internalType": "uint256",
          "name": "totalWinnings",
          "type": "uint256"
        },
        {
          "internalType": "uint256",
          "name": "totalBetAmount",
          "type": "uint256"
        }
      ],
      "stateMutability": "view",
      "type": "function"
    },
    {
      "inputs": [],
      "name": "getPoolStats",
      "outputs": [
        {
          "internalType": "uint256",
          "name": "totalETH",
          "type": "uint256"
        },
        {
          "internalType": "uint256",
          "name": "chipPrice",
          "type": "uint256"
        },
        {
          "internalType": "uint256",
          "name": "ethPrice",
          "type": "uint256"
        }
      ],
      "stateMutability": "view",
      "type": "function"
    },
    {
      "inputs": [
        {
          "internalType": "uint8",
          "name": "reelCount",
          "type": "uint8"
        }
      ],
      "name": "getPricingBreakdown",
      "outputs": [
        {
          "internalType": "uint256",
          "name": "baseCostUSD",
          "type": "uint256"
        },
        {
          "internalType": "uint256",
          "name": "vrfCostInUSD",
          "type": "uint256"
        },
        {
          "internalType": "uint256",
          "name": "reelMultiplier",
          "type": "uint256"
        },
        {
          "internalType": "uint256",
          "name": "totalCostUSD",
          "type": "uint256"
        },
        {
          "internalType": "uint256",
          "name": "totalCostCHIPS",
          "type": "uint256"
        }
      ],
      "stateMutability": "view",
      "type": "function"
    },
    {
      "inputs": [
        {
          "internalType": "address",
          "name": "player",
          "type": "address"
        }
      ],
      "name": "getSessionStats",
      "outputs": [
        {
          "internalType": "uint256",
          "name": "sessionId",
          "type": "uint256"
        },
        {
          "internalType": "uint256",
          "name": "spinCount",
          "type": "uint256"
        },
        {
          "internalType": "uint256",
          "name": "betTotal",
          "type": "uint256"
        },
        {
          "internalType": "uint256",
          "name": "winTotal",
          "type": "uint256"
        },
        {
          "internalType": "uint256",
          "name": "duration",
          "type": "uint256"
        },
        {
          "internalType": "bool",
          "name": "isActive",
          "type": "bool"
        }
      ],
      "stateMutability": "view",
      "type": "function"
    },
    {
      "inputs": [
        {
          "internalType": "uint8",
          "name": "reelCount",
          "type": "uint8"
        }
      ],
      "name": "getSpinCost",
      "outputs": [
        {
          "internalType": "uint256",
          "name": "",
          "type": "uint256"
        }
      ],
      "stateMutability": "view",
      "type": "function"
    },
    {
      "inputs": [
        {
          "internalType": "uint256",
          "name": "requestId",
          "type": "uint256"
        }
      ],
      "name": "getSpinReels",
      "outputs": [
        {
          "internalType": "uint256[]",
          "name": "",
          "type": "uint256[]"
        }
      ],
      "stateMutability": "view",
      "type": "function"
    },
    {
      "inputs": [],
      "name": "getVRFStats",
      "outputs": [
        {
          "internalType": "uint256",
          "name": "currentGasPrice",
          "type": "uint256"
        },
        {
          "internalType": "uint256",
          "name": "callbackGas",
          "type": "uint256"
        },
        {
          "internalType": "uint256",
          "name": "vrfCostETHTokens",
          "type": "uint256"
        },
        {
          "internalType": "uint256",
          "name": "vrfCostUSDCents",
          "type": "uint256"
        },
        {
          "internalType": "uint256",
          "name": "ethBalance",
          "type": "uint256"
        }
      ],
      "stateMutability": "view",
      "type": "function"
    },
    {
      "inputs": [],
      "name": "houseEdge",
      "outputs": [
        {
          "internalType": "uint256",
          "name": "",
          "type": "uint256"
        }
      ],
      "stateMutability": "view",
      "type": "function"
    },
    {
      "inputs": [
        {
          "internalType": "address",
          "name": "ethUsdPriceFeedAddress",
          "type": "address"
        },
        {
          "internalType": "address",
          "name": "payoutTablesAddress",
          "type": "address"
        },
        {
          "internalType": "address",
          "name": "wrapperAddress",
          "type": "address"
        },
        {
          "internalType": "address",
          "name": "initialOwner",
          "type": "address"
        }
      ],
      "name": "initialize",
      "outputs": [],
      "stateMutability": "nonpayable",
      "type": "function"
    },
    {
      "inputs": [
        {
          "internalType": "address",
          "name": "",
          "type": "address"
        }
      ],
      "name": "lastActivityTimestamp",
      "outputs": [
        {
          "internalType": "uint256",
          "name": "",
          "type": "uint256"
        }
      ],
      "stateMutability": "view",
      "type": "function"
    },
    {
      "inputs": [
        {
          "internalType": "address",
          "name": "",
          "type": "address"
        },
        {
          "internalType": "string",
          "name": "",
          "type": "string"
        }
      ],
      "name": "milestoneAchieved",
      "outputs": [
        {
          "internalType": "bool",
          "name": "",
          "type": "bool"
        }
      ],
      "stateMutability": "view",
      "type": "function"
    },
    {
      "inputs": [],
      "name": "name",
      "outputs": [
        {
          "internalType": "string",
          "name": "",
          "type": "string"
        }
      ],
      "stateMutability": "view",
      "type": "function"
    },
    {
      "inputs": [],
      "name": "numWords",
      "outputs": [
        {
          "internalType": "uint32",
          "name": "",
          "type": "uint32"
        }
      ],
      "stateMutability": "view",
      "type": "function"
    },
    {
      "inputs": [],
      "name": "owner",
      "outputs": [
        {
          "internalType": "address",
          "name": "",
          "type": "address"
        }
      ],
      "stateMutability": "view",
      "type": "function"
    },
    {
      "inputs": [],
      "name": "pause",
      "outputs": [],
      "stateMutability": "nonpayable",
      "type": "function"
    },
    {
      "inputs": [],
      "name": "paused",
      "outputs": [
        {
          "internalType": "bool",
          "name": "",
          "type": "bool"
        }
      ],
      "stateMutability": "view",
      "type": "function"
    },
    {
      "inputs": [],
      "name": "payoutTables",
      "outputs": [
        {
          "internalType": "contract IPayoutTables",
          "name": "",
          "type": "address"
        }
      ],
      "stateMutability": "view",
      "type": "function"
    },
    {
      "inputs": [
        {
          "internalType": "address",
          "name": "",
          "type": "address"
        }
      ],
      "name": "playerWinnings",
      "outputs": [
        {
          "internalType": "uint256",
          "name": "",
          "type": "uint256"
        }
      ],
      "stateMutability": "view",
      "type": "function"
    },
    {
      "inputs": [],
      "name": "proxiableUUID",
      "outputs": [
        {
          "internalType": "bytes32",
          "name": "",
          "type": "bytes32"
        }
      ],
      "stateMutability": "view",
      "type": "function"
    },
    {
      "inputs": [
        {
          "internalType": "uint256",
          "name": "requestId",
          "type": "uint256"
        },
        {
          "internalType": "uint256[]",
          "name": "randomWords",
          "type": "uint256[]"
        }
      ],
      "name": "rawFulfillRandomWords",
      "outputs": [],
      "stateMutability": "nonpayable",
      "type": "function"
    },
    {
      "inputs": [],
      "name": "renounceOwnership",
      "outputs": [],
      "stateMutability": "nonpayable",
      "type": "function"
    },
    {
      "inputs": [],
      "name": "requestConfirmations",
      "outputs": [
        {
          "internalType": "uint16",
          "name": "",
          "type": "uint16"
        }
      ],
      "stateMutability": "view",
      "type": "function"
    },
    {
      "inputs": [
        {
          "internalType": "address",
          "name": "",
          "type": "address"
        }
      ],
      "name": "sessionBetTotal",
      "outputs": [
        {
          "internalType": "uint256",
          "name": "",
          "type": "uint256"
        }
      ],
      "stateMutability": "view",
      "type": "function"
    },
    {
      "inputs": [
        {
          "internalType": "address",
          "name": "",
          "type": "address"
        }
      ],
      "name": "sessionSpinCount",
      "outputs": [
        {
          "internalType": "uint256",
          "name": "",
          "type": "uint256"
        }
      ],
      "stateMutability": "view",
      "type": "function"
    },
    {
      "inputs": [
        {
          "internalType": "address",
          "name": "",
          "type": "address"
        }
      ],
      "name": "sessionStartTime",
      "outputs": [
        {
          "internalType": "uint256",
          "name": "",
          "type": "uint256"
        }
      ],
      "stateMutability": "view",
      "type": "function"
    },
    {
      "inputs": [
        {
          "internalType": "address",
          "name": "",
          "type": "address"
        }
      ],
      "name": "sessionWinTotal",
      "outputs": [
        {
          "internalType": "uint256",
          "name": "",
          "type": "uint256"
        }
      ],
      "stateMutability": "view",
      "type": "function"
    },
    {
      "inputs": [
        {
          "internalType": "uint8",
          "name": "_reel",
          "type": "uint8"
        }
      ],
      "name": "spinReels",
      "outputs": [
        {
          "internalType": "uint256",
          "name": "requestId",
          "type": "uint256"
        }
      ],
      "stateMutability": "nonpayable",
      "type": "function"
    },
    {
      "inputs": [
        {
          "internalType": "uint256",
          "name": "",
          "type": "uint256"
        }
      ],
      "name": "spins",
      "outputs": [
        {
          "internalType": "address",
          "name": "player",
          "type": "address"
        },
        {
          "internalType": "uint8",
          "name": "reelCount",
          "type": "uint8"
        },
        {
          "internalType": "bool",
          "name": "settled",
          "type": "bool"
        },
        {
          "internalType": "enum IPayoutTables.PayoutType",
          "name": "payoutType",
          "type": "uint8"
        },
        {
          "internalType": "uint256",
          "name": "betAmount",
          "type": "uint256"
        },
        {
          "internalType": "uint256",
          "name": "payout",
          "type": "uint256"
        },
        {
          "internalType": "uint256",
          "name": "timestamp",
          "type": "uint256"
        }
      ],
      "stateMutability": "view",
      "type": "function"
    },
    {
      "inputs": [
        {
          "internalType": "uint256",
          "name": "chipsAmount",
          "type": "uint256"
        }
      ],
      "name": "swapChipsToETH",
      "outputs": [],
      "stateMutability": "nonpayable",
      "type": "function"
    },
    {
      "inputs": [],
      "name": "symbol",
      "outputs": [
        {
          "internalType": "string",
          "name": "",
          "type": "string"
        }
      ],
      "stateMutability": "view",
      "type": "function"
    },
    {
      "inputs": [
        {
          "internalType": "address",
          "name": "",
          "type": "address"
        }
      ],
      "name": "totalBet",
      "outputs": [
        {
          "internalType": "uint256",
          "name": "",
          "type": "uint256"
        }
      ],
      "stateMutability": "view",
      "type": "function"
    },
    {
      "inputs": [],
      "name": "totalPrizePool",
      "outputs": [
        {
          "internalType": "uint256",
          "name": "",
          "type": "uint256"
        }
      ],
      "stateMutability": "view",
      "type": "function"
    },
    {
      "inputs": [
        {
          "internalType": "address",
          "name": "",
          "type": "address"
        }
      ],
      "name": "totalSpins",
      "outputs": [
        {
          "internalType": "uint256",
          "name": "",
          "type": "uint256"
        }
      ],
      "stateMutability": "view",
      "type": "function"
    },
    {
      "inputs": [],
      "name": "totalSupply",
      "outputs": [
        {
          "internalType": "uint256",
          "name": "",
          "type": "uint256"
        }
      ],
      "stateMutability": "view",
      "type": "function"
    },
    {
      "inputs": [
        {
          "internalType": "address",
          "name": "",
          "type": "address"
        }
      ],
      "name": "totalWon",
      "outputs": [
        {
          "internalType": "uint256",
          "name": "",
          "type": "uint256"
        }
      ],
      "stateMutability": "view",
      "type": "function"
    },
    {
      "inputs": [
        {
          "internalType": "address",
          "name": "to",
          "type": "address"
        },
        {
          "internalType": "uint256",
          "name": "value",
          "type": "uint256"
        }
      ],
      "name": "transfer",
      "outputs": [
        {
          "internalType": "bool",
          "name": "",
          "type": "bool"
        }
      ],
      "stateMutability": "nonpayable",
      "type": "function"
    },
    {
      "inputs": [
        {
          "internalType": "address",
          "name": "from",
          "type": "address"
        },
        {
          "internalType": "address",
          "name": "to",
          "type": "address"
        },
        {
          "internalType": "uint256",
          "name": "value",
          "type": "uint256"
        }
      ],
      "name": "transferFrom",
      "outputs": [
        {
          "internalType": "bool",
          "name": "",
          "type": "bool"
        }
      ],
      "stateMutability": "nonpayable",
      "type": "function"
    },
    {
      "inputs": [
        {
          "internalType": "address",
          "name": "newOwner",
          "type": "address"
        }
      ],
      "name": "transferOwnership",
      "outputs": [],
      "stateMutability": "nonpayable",
      "type": "function"
    },
    {
      "inputs": [],
      "name": "unpause",
      "outputs": [],
      "stateMutability": "nonpayable",
      "type": "function"
    },
    {
      "inputs": [
        {
          "internalType": "uint256",
          "name": "newBaseChipPriceUSD",
          "type": "uint256"
        },
        {
          "internalType": "uint256",
          "name": "newVrfCostUSD",
          "type": "uint256"
        }
      ],
      "name": "updateDynamicPricing",
      "outputs": [],
      "stateMutability": "nonpayable",
      "type": "function"
    },
    {
      "inputs": [
        {
          "internalType": "address",
          "name": "newPayoutTables",
          "type": "address"
        }
      ],
      "name": "updatePayoutTables",
      "outputs": [],
      "stateMutability": "nonpayable",
      "type": "function"
    },
    {
      "inputs": [
        {
          "internalType": "uint32",
          "name": "_callbackGasLimit",
          "type": "uint32"
        },
        {
          "internalType": "uint16",
          "name": "_requestConfirmations",
          "type": "uint16"
        },
        {
          "internalType": "uint32",
          "name": "_numWords",
          "type": "uint32"
        },
        {
          "internalType": "uint256",
          "name": "_vrfCostUSD",
          "type": "uint256"
        },
        {
          "internalType": "uint256",
          "name": "_vrfMarkupBP",
          "type": "uint256"
        }
      ],
      "name": "updateVRFParameters",
      "outputs": [],
      "stateMutability": "nonpayable",
      "type": "function"
    },
    {
      "inputs": [
        {
          "internalType": "address",
          "name": "newImplementation",
          "type": "address"
        },
        {
          "internalType": "bytes",
          "name": "data",
          "type": "bytes"
        }
      ],
      "name": "upgradeToAndCall",
      "outputs": [],
      "stateMutability": "payable",
      "type": "function"
    },
    {
      "inputs": [],
      "name": "vrfCostUSD",
      "outputs": [
        {
          "internalType": "uint256",
          "name": "",
          "type": "uint256"
        }
      ],
      "stateMutability": "view",
      "type": "function"
    },
    {
      "inputs": [],
      "name": "vrfMarkupBP",
      "outputs": [
        {
          "internalType": "uint256",
          "name": "",
          "type": "uint256"
        }
      ],
      "stateMutability": "view",
      "type": "function"
    },
    {
      "inputs": [],
      "name": "vrfWrapper",
      "outputs": [
        {
          "internalType": "contract IVRFV2PlusWrapper",
          "name": "",
          "type": "address"
        }
      ],
      "stateMutability": "view",
      "type": "function"
    },
    {
      "inputs": [
        {
          "internalType": "uint256",
          "name": "amount",
          "type": "uint256"
        }
      ],
      "name": "withdrawETH",
      "outputs": [],
      "stateMutability": "nonpayable",
      "type": "function"
    },
    {
      "inputs": [],
      "name": "withdrawWinnings",
      "outputs": [],
      "stateMutability": "nonpayable",
      "type": "function"
    },
    {
      "stateMutability": "payable",
      "type": "receive"
    }
  ],
  "bytecode": "0x60a0604052306080523480156200001557600080fd5b506200002062000026565b620000da565b7ff0c57e16840df040f15088dc2f81fe391c3923bec73e23a9662efc9c229c6a00805468010000000000000000900460ff1615620000775760405163f92ee8a960e01b815260040160405180910390fd5b80546001600160401b0390811614620000d75780546001600160401b0319166001600160401b0390811782556040519081527fc7f505b2f371ae2175ee4913f4499e1f2633a7b5936321eed1cdaeb6115181d29060200160405180910390a15b50565b6080516157c06200010460003960008181612ff801528181613021015261315901526157c06000f3fe6080604052600436106103335760003560e01c806380fc8be3116101a8578063cb075014116100e8578063cb07501414610b21578063cc42e83a14610b41578063d107835914610b56578063d2ac200114610b76578063d4e8e97914610b8c578063d63abd0f14610bac578063d667dcd714610bc3578063da65b54014610bd9578063dd62ed3e14610c06578063e114bcc614610c26578063e237a3fc14610c3b578063f0e3fff814610c50578063f14210a614610c7d578063f2fde38b14610c9d578063f8c8765e14610cbd578063fbec371014610cdd578063fd75a0ab14610d0257600080fd5b806380fc8be3146108335780638315c2641461088257806383bbf942146109035780638456cb59146109305780638b2da0f2146109455780638da5cb5b1461097257806394c16f9c1461098757806395d89b41146109a75780639b65a788146109bc5780639c3930ad146109e95780639d174a32146109f1578063a9059cbb14610a1e578063ad3cb1cc14610a3e578063b0fb162f14610a6f578063bbb8518814610aa4578063c292f6b714610ad4578063c74a00bf14610af457600080fd5b8063398ab9a711610273578063398ab9a7146105f75780633f4ba83a1461060d5780634141f52b1461062257806349ac81531461064f5780634f1ef2861461069b5780634fd66eae146106ae57806352d1902d146106f657806357bdb3271461070b5780635c975abb1461072b5780635cf807c614610740578063680f1066146107605780636d56cea01461077757806370a08231146107a4578063715018a6146107c457806371a8b3cb146107d9578063740eea3c146107f95780637ccfd7fc1461080f57600080fd5b806305f4b2191461038257806306fdde03146103c2578063088d2aaf146103e4578063095ea7b3146103fa5780630d054af41461042a5780631241305014610457578063138a74201461046e57806317535fe61461048e57806318160ddd146104a45780631aff30dd146104b95780631e8b0000146104f35780631fe543e31461051557806323b872dd1461053557806324f7469714610555578063252f4d811461058e578063283389bb146105bb578063313ce567146105db57600080fd5b3661037d57346004600082825461034a9190614c3c565b90915550506004546040805191825234602083015260029160008051602061572b833981519152910160405180910390a2005b600080fd5b34801561038e57600080fd5b506103af61039d366004614c66565b600d6020526000908152604090205481565b6040519081526020015b60405180910390f35b3480156103ce57600080fd5b506103d7610d18565b6040516103b99190614cd1565b3480156103f057600080fd5b506103af60075481565b34801561040657600080fd5b5061041a610415366004614ce4565b610db9565b60405190151581526020016103b9565b34801561043657600080fd5b506103af610445366004614c66565b600a6020526000908152604090205481565b34801561046357600080fd5b506103af6207a12081565b34801561047a57600080fd5b506103af610489366004614d0e565b610dd3565b34801561049a57600080fd5b506103af6161a881565b3480156104b057600080fd5b506103af610e97565b3480156104c557600080fd5b506004546005546002546040805193845260208401929092526001600160a01b0316908201526060016103b9565b3480156104ff57600080fd5b5061051361050e366004614c66565b610eac565b005b34801561052157600080fd5b50610513610530366004614d77565b610f46565b34801561054157600080fd5b5061041a610550366004614e28565b610fad565b34801561056157600080fd5b5060005461057990600160a01b900463ffffffff1681565b60405163ffffffff90911681526020016103b9565b34801561059a57600080fd5b506103af6105a9366004614c66565b60096020526000908152604090205481565b3480156105c757600080fd5b506103af6105d6366004614e64565b610fd3565b3480156105e757600080fd5b50604051601281526020016103b9565b34801561060357600080fd5b506103af60045481565b34801561061957600080fd5b50610513611241565b34801561062e57600080fd5b506103af61063d366004614c66565b60126020526000908152604090205481565b34801561065b57600080fd5b5061041a61066a366004614ed4565b6013602090815260009283526040909220815180830184018051928152908401929093019190912091525460ff1681565b6105136106a9366004614ed4565b611253565b3480156106ba57600080fd5b506106ce6106c9366004614c66565b61126e565b604080519586526020860194909452928401919091526060830152608082015260a0016103b9565b34801561070257600080fd5b506103af6112c8565b34801561071757600080fd5b506103af610726366004614e64565b6112e5565b34801561073757600080fd5b5061041a6113ec565b34801561074c57600080fd5b5061051361075b366004614f35565b611401565b34801561076c57600080fd5b506103af62030d4081565b34801561078357600080fd5b506103af610792366004614c66565b60106020526000908152604090205481565b3480156107b057600080fd5b506103af6107bf366004614c66565b61153c565b3480156107d057600080fd5b50610513611567565b3480156107e557600080fd5b506103af6107f4366004614d0e565b611579565b34801561080557600080fd5b506103af60065481565b34801561081b57600080fd5b5060005461057990600160d01b900463ffffffff1681565b34801561083f57600080fd5b5061085361084e366004614c66565b6115e6565b6040805196875260208701959095529385019290925260608401526080830152151560a082015260c0016103b9565b34801561088e57600080fd5b506108f061089d366004614e64565b60086020526000908152604090208054600182015460028301546003909301546001600160a01b0383169360ff600160a01b8504811694600160a81b8104821694600160b01b9091049091169290919087565b6040516103b99796959493929190614f8f565b34801561090f57600080fd5b50600054610923906001600160a01b031681565b6040516103b99190614fdb565b34801561093c57600080fd5b506105136116b2565b34801561095157600080fd5b506103af610960366004614c66565b60116020526000908152604090205481565b34801561097e57600080fd5b506109236116c2565b34801561099357600080fd5b506105136109a2366004614ed4565b6116dd565b3480156109b357600080fd5b506103d761189b565b3480156109c857600080fd5b506109dc6109d7366004614e64565b6118b8565b6040516103b9919061502b565b61051361191d565b3480156109fd57600080fd5b506103af610a0c366004614c66565b600c6020526000908152604090205481565b348015610a2a57600080fd5b5061041a610a39366004614ce4565b611ab8565b348015610a4a57600080fd5b506103d7604051806040016040528060058152602001640352e302e360dc1b81525081565b348015610a7b57600080fd5b50600054610a9190600160c01b900461ffff1681565b60405161ffff90911681526020016103b9565b348015610ab057600080fd5b50610ab9611ac6565b604080519384526020840192909252908201526060016103b9565b348015610ae057600080fd5b50600254610923906001600160a01b031681565b348015610b0057600080fd5b506103af610b0f366004614c66565b600f6020526000908152604090205481565b348015610b2d57600080fd5b50610513610b3c366004615052565b611b88565b348015610b4d57600080fd5b50610513611dcd565b348015610b6257600080fd5b50610513610b71366004614e64565b612009565b348015610b8257600080fd5b506103af60015481565b348015610b9857600080fd5b506106ce610ba7366004614d0e565b6122f6565b348015610bb857600080fd5b506103af620124f881565b348015610bcf57600080fd5b506103af60055481565b348015610be557600080fd5b506103af610bf4366004614c66565b600e6020526000908152604090205481565b348015610c1257600080fd5b506103af610c213660046150b0565b612384565b348015610c3257600080fd5b506106ce6123c0565b348015610c4757600080fd5b506105136123fd565b348015610c5c57600080fd5b506103af610c6b366004614c66565b600b6020526000908152604090205481565b348015610c8957600080fd5b50610513610c98366004614e64565b61251a565b348015610ca957600080fd5b50610513610cb8366004614c66565b6125f3565b348015610cc957600080fd5b50610513610cd83660046150e3565b61262e565b348015610ce957600080fd5b50610cf2612844565b6040516103b99493929190615137565b348015610d0e57600080fd5b506103af61271081565b60606000610d24612881565b9050806003018054610d3590615152565b80601f0160208091040260200160405190810160405280929190818152602001828054610d6190615152565b8015610dae5780601f10610d8357610100808354040283529160200191610dae565b820191906000526020600020905b815481529060010190602001808311610d9157829003601f168201915b505050505091505090565b600033610dc78185856128a5565b60019150505b92915050565b600060038260ff1610158015610ded575060078260ff1611155b610e125760405162461bcd60e51b8152600401610e099061518c565b60405180910390fd5b6006546000610e1f6128b7565b90506000610e2d8284614c3c565b90506000610e3a86612a42565b90506000612710610e4b83856151b8565b610e5591906151e5565b9050600060065468056bc75e2d63100000610e7091906151e5565b905060006064610e8083856151b8565b610e8a91906151e5565b9998505050505050505050565b600080610ea2612881565b6002015492915050565b610eb4612ac3565b6001600160a01b038116610efc5760405162461bcd60e51b815260206004820152600f60248201526e496e76616c6964206164647265737360881b6044820152606401610e09565b600280546001600160a01b0319166001600160a01b0383169081179091556040517f924b685b185ed4d6bb68dfe43a3eae1bbacdcff597754142f449dec6ae56c6c690600090a250565b6000546001600160a01b03163314610f9f5760405162461bcd60e51b815260206004820152601c60248201527b13db9b1e481594918815dc985c1c195c8818d85b88199d5b199a5b1b60221b6044820152606401610e09565b610fa98282612af5565b5050565b600033610fbb858285612ee3565b610fc6858585612f37565b60019150505b9392505050565b6000806000600360009054906101000a90046001600160a01b03166001600160a01b031663feaf968c6040518163ffffffff1660e01b815260040160a060405180830381865afa15801561102b573d6000803e3d6000fd5b505050506040513d601f19601f8201168201806040525081019061104f9190615210565b50935050925050600082136110765760405162461bcd60e51b8152600401610e0990615260565b466001036110cd576201518061108c824261528b565b11156110cd5760405162461bcd60e51b815260206004820152601060248201526f50726963652064617461207374616c6560801b6044820152606401610e09565b64012a05f2008210156110f25760405162461bcd60e51b8152600401610e099061529e565b6509184e72a0008211156111185760405162461bcd60e51b8152600401610e09906152c9565b600084116111665760405162461bcd60e51b815260206004820152601b60248201527a45544820616d6f756e74206d75737420626520706f73697469766560281b6044820152606401610e09565b683635c9adc5dea000008411156111b65760405162461bcd60e51b815260206004820152601460248201527345544820616d6f756e7420746f6f206c6172676560601b6044820152606401610e09565b60006006546305f5e1006111ca91906151b8565b6111d484876151b8565b6111df9060646151b8565b6111e991906151e5565b9050600081116112395760405162461bcd60e51b815260206004820152601b60248201527a10d85b18dd5b185d195908185b5bdd5b9d081d1bdbc81cdb585b1b602a1b6044820152606401610e09565b949350505050565b611249612ac3565b611251612f96565b565b61125b612fed565b61126482613092565b610fa9828261309a565b600080600080600061127f8661153c565b6001600160a01b0396909616600090815260096020908152604080832054600a835281842054600b845282852054600c9094529190932054989992989097509095509350915050565b60006112d261314e565b5060008051602061570b83398151915290565b6000806000600360009054906101000a90046001600160a01b03166001600160a01b031663feaf968c6040518163ffffffff1660e01b815260040160a060405180830381865afa15801561133d573d6000803e3d6000fd5b505050506040513d601f19601f820116820180604052508101906113619190615210565b50935050925050600082136113885760405162461bcd60e51b8152600401610e0990615260565b466001036113bc576201518061139e824261528b565b11156113bc5760405162461bcd60e51b8152600401610e09906152f5565b6113c78260646151b8565b6006546113d490866151b8565b6113e2906305f5e1006151b8565b61123991906151e5565b6000806113f7613197565b5460ff1692915050565b611409612ac3565b60008211801561141b57506127108211155b61145c5760405162461bcd60e51b8152602060048201526012602482015271496e76616c6964206261736520707269636560701b6044820152606401610e09565b60008111801561146e57506113888111155b6114ad5760405162461bcd60e51b815260206004820152601060248201526f125b9d985b1a59081594918818dbdcdd60821b6044820152606401610e09565b6006805460078054928590558390556040805160608082526010908201526f18985cd950da1a5c141c9a58d95554d160821b60808201526020810183905290810185905290919060008051602061574b8339815191529060a00160405180910390a160008051602061574b833981519152818460405161152e929190615323565b60405180910390a150505050565b600080611547612881565b6001600160a01b0390931660009081526020939093525050604090205490565b61156f612ac3565b61125160006131bb565b6000611583613217565b61158b61324d565b60038260ff16101580156115a3575060078260ff1611155b6115bf5760405162461bcd60e51b8152600401610e099061518c565b60006115ca83610dd3565b90506115d68382613273565b9150506115e1613985565b919050565b6001600160a01b0381166000908152600d6020908152604080832054600f8352818420546010845282852054601185528386205460129095529285205491949093918190611635576000611658565b6001600160a01b038716600090815260126020526040902054611658904261528b565b6001600160a01b0388166000908152600e6020526040902054909250158015906116a757506001600160a01b0387166000908152600e6020526040902054610708906116a4904261528b565b11155b905091939550919395565b6116ba612ac3565b611251613996565b6000806116cd6139dd565b546001600160a01b031692915050565b6116e5612ac3565b6001600160a01b0382166000908152600960205260409020548061171b5760405162461bcd60e51b8152600401610e0990615354565b6001600160a01b03831660009081526009602052604081205561173e8382613a01565b60035460408051633fabe5a360e21b815290516000926001600160a01b03169163feaf968c9160048083019260a09291908290030181865afa158015611788573d6000803e3d6000fd5b505050506040513d601f19601f820116820180604052508101906117ac9190615210565b50505091505060006117bd836112e5565b905060008082116117cf5760006117ec565b816117e285670de0b6b3a76400006151b8565b6117ec91906151e5565b9050856001600160a01b03167f0b6611f2b90ce7e47b1f8bfc81e38fb1a210f6766c91b8c8d5ee36305d7520608587604051611829929190615385565b60405180910390a26040805160a080825260099082015268656d657267656e637960b81b60c08201526020810186905290810183905260608101829052608081018490526001600160a01b038716906000805160206156eb8339815191529060e00160405180910390a2505050505050565b606060006118a7612881565b9050806004018054610d3590615152565b60008181526008602090815260409182902060040180548351818402810184019094528084526060939283018282801561191157602002820191906000526020600020905b8154815260200190600101908083116118fd575b50505050509050919050565b611925613217565b600034116119655760405162461bcd60e51b815260206004820152600d60248201526c09aeae6e840e6cadcc8408aa89609b1b6044820152606401610e09565b600061197034610fd3565b905061197c3382613a01565b346004600082825461198e9190614c3c565b90915550506004546040805191825234602083015260029160008051602061572b833981519152910160405180910390a260035460408051633fabe5a360e21b815290516000926001600160a01b03169163feaf968c9160048083019260a09291908290030181865afa158015611a09573d6000803e3d6000fd5b505050506040513d601f19601f82011682018060405250810190611a2d9190615210565b50505091505060003483670de0b6b3a7640000611a4a91906151b8565b611a5491906151e5565b6040805160a080825260089082015267707572636861736560c01b60c08201526020810186905234818301526060810183905260808101859052905191925033916000805160206156eb8339815191529181900360e00190a2505050611251613985565b600033610dc7818585612f37565b60008060004792506064600654670de0b6b3a7640000611ae691906151b8565b611af091906151e5565b91506000600360009054906101000a90046001600160a01b03166001600160a01b031663feaf968c6040518163ffffffff1660e01b815260040160a060405180830381865afa158015611b47573d6000803e3d6000fd5b505050506040513d601f19601f82011682018060405250810190611b6b9190615210565b505050915050620f424081611b8091906151e5565b915050909192565b611b90612ac3565b60008060149054906101000a900463ffffffff16905060008060189054906101000a900461ffff169050600080601a9054906101000a900463ffffffff169050600060075490506000600154905089600060146101000a81548163ffffffff021916908363ffffffff16021790555088600060186101000a81548161ffff021916908361ffff160217905550876000601a6101000a81548163ffffffff021916908363ffffffff160217905550866007819055508560018190555060008051602061574b833981519152858b604051611ca392919060608082526010908201526f18d85b1b189858dad1d85cd31a5b5a5d60821b608082015263ffffffff92831660208201529116604082015260a00190565b60405180910390a16040805160608082526014908201527372657175657374436f6e6669726d6174696f6e7360601b608082015261ffff86811660208301528b1681830152905160008051602061574b8339815191529181900360a00190a1604080516060808252600890820152676e756d576f72647360c01b608082015263ffffffff85811660208301528a1681830152905160008051602061574b8339815191529181900360a00190a160008051602061574b8339815191528288604051611d6e929190615323565b60405180910390a1604080516060808252600b908201526a07672664d61726b757042560ac1b60808201526020810183905290810187905260008051602061574b8339815191529060a00160405180910390a150505050505050505050565b611dd5613217565b3360009081526009602052604090205480611e025760405162461bcd60e51b8152600401610e0990615354565b336000908152600960209081526040808320839055600f90915290205415611eea57336000818152600d602090815260408083205460129092529091205490919060008051602061576b83398151915290611e5d904261528b565b336000908152600f60209081526040808320546010835281842054601184529382902054825195865292850152830191909152606082015260a060808201819052600a90820152691dda5d1a191c985dd85b60b21b60c082015260e00160405180910390a3336000908152600f602090815260408083208390556010825280832083905560119091528120555b611ef43382613a01565b60035460408051633fabe5a360e21b815290516000926001600160a01b03169163feaf968c9160048083019260a09291908290030181865afa158015611f3e573d6000803e3d6000fd5b505050506040513d601f19601f82011682018060405250810190611f629190615210565b5050509150506000611f73836112e5565b90506000808211611f85576000611fa2565b81611f9885670de0b6b3a76400006151b8565b611fa291906151e5565b6040805160a080825260089082015267776974686472617760c01b60c082015260208101879052908101849052606081018290526080810185905290915033906000805160206156eb8339815191529060e00160405180910390a250505050611251613985565b612011613217565b6000811161205d5760405162461bcd60e51b8152602060048201526019602482015278135d5cdd081cdc1958da599e4810d2125414c8185b5bdd5b9d603a1b6044820152606401610e09565b806120673361153c565b10156120b25760405162461bcd60e51b815260206004820152601a602482015279496e73756666696369656e742043484950532062616c616e636560301b6044820152606401610e09565b60006120bd826112e5565b9050600081116121085760405162461bcd60e51b81526020600482015260166024820152751155120818d85b18dd5b185d1a5bdb8819985a5b195960521b6044820152606401610e09565b804710156121625760405162461bcd60e51b815260206004820152602160248201527f496e73756666696369656e7420636f6e7472616374204554482062616c616e636044820152606560f81b6064820152608401610e09565b61216c3383613a37565b8060045410612192578060046000828254612187919061528b565b909155506121989050565b60006004555b600260008051602061572b833981519152600454836121b69061539e565b6040805192835260208301919091520160405180910390a2604051339082156108fc029083906000818181858888f193505050501580156121fb573d6000803e3d6000fd5b5060035460408051633fabe5a360e21b815290516000926001600160a01b03169163feaf968c9160048083019260a09291908290030181865afa158015612246573d6000803e3d6000fd5b505050506040513d601f19601f8201168201806040525081019061226a9190615210565b50505091505060008284670de0b6b3a764000061228791906151b8565b61229191906151e5565b6040805160a0808252600490820152630737761760e41b60c082015260208101879052908101859052606081018290526080810184905290915033906000805160206156eb8339815191529060e00160405180910390a25050506122f3613985565b50565b600080600080600060038660ff1610158015612316575060078660ff1611155b6123325760405162461bcd60e51b8152600401610e099061518c565b600654945061233f6128b7565b935061234a86612a42565b92506127108361235a8688614c3c565b61236491906151b8565b61236e91906151e5565b915061237986610dd3565b905091939590929450565b60008061238f612881565b6001600160a01b03948516600090815260019190910160209081526040808320959096168252939093525050205490565b600080543a91600160a01b90910463ffffffff169080806123e76123e26128b7565b613a6d565b92506123f16128b7565b91504790509091929394565b336000908152600f602052604090205461244d5760405162461bcd60e51b815260206004820152601160248201527027379030b1ba34bb329039b2b9b9b4b7b760791b6044820152606401610e09565b336000818152600d602090815260408083205460129092529091205490919060008051602061576b83398151915290612486904261528b565b336000908152600f60209081526040808320546010835281842054601184529382902054825195865292850152830191909152606082015260a060808201819052600690820152651b585b9d585b60d21b60c082015260e00160405180910390a3336000908152600f602090815260408083208390556010825280832083905560118252808320839055600e909152812055565b612522612ac3565b804710156125695760405162461bcd60e51b8152602060048201526014602482015273496e73756666696369656e742062616c616e636560601b6044820152606401610e09565b6125716116c2565b6001600160a01b03167f8455ae6be5d92f1df1c3c1484388e247a36c7e60d72055ae216dbc258f257d4b826040516125ab91815260200190565b60405180910390a26125bb6116c2565b6001600160a01b03166108fc829081150290604051600060405180830381858888f19350505050158015610fa9573d6000803e3d6000fd5b6125fb612ac3565b6001600160a01b038116612625576000604051631e4fbdf760e01b8152600401610e099190614fdb565b6122f3816131bb565b6000612638613bd0565b805490915060ff600160401b82041615906001600160401b031660008115801561265f5750825b90506000826001600160401b0316600114801561267b5750303b155b905081158015612689575080155b156126a75760405163f92ee8a960e01b815260040160405180910390fd5b845467ffffffffffffffff1916600117855583156126d157845460ff60401b1916600160401b1785555b61272760405180604001604052806017815260200176436173696e6f536c6f7420436173696e6f20436869707360481b81525060405180604001604052806005815260200164434849505360d81b815250613bf9565b61272f613c0b565b612737613c13565b61273f613c0b565b61274886613c23565b60008054600380546001600160a01b03199081166001600160a01b038e811691909117909255600280549091168c831617905589166001600160c01b031990911617613d0960a51b1765ffffffffffff60c01b19166201000360c01b1790556101f460055560146006556102586007556105dc60019081556040519081527f2baed9f07492c3771a3dbd4d6f77c3b870782c5fb55c87a0b0e80d27ddf1cbde9060200160405180910390a1831561283957845460ff60401b19168555604051600181527fc7f505b2f371ae2175ee4913f4499e1f2633a7b5936321eed1cdaeb6115181d29060200160405180910390a15b505050505050505050565b47600080806128546123e26128b7565b91506000821161286557600061286f565b61286f82856151e5565b92506128796128b7565b905090919293565b7f52c63247e1f47db19d5ce0460030c497f067ca4cebf71ba98eeadabe20bace0090565b6128b28383836001613c34565b505050565b600080546040516313c34b7f60e01b815263ffffffff600160a01b830481166004830152600160d01b830416602482015282916001600160a01b0316906313c34b7f90604401602060405180830381865afa15801561291a573d6000803e3d6000fd5b505050506040513d601f19601f8201168201806040525081019061293e91906153ba565b90506000600360009054906101000a90046001600160a01b03166001600160a01b031663feaf968c6040518163ffffffff1660e01b815260040160a060405180830381865afa158015612995573d6000803e3d6000fd5b505050506040513d601f19601f820116820180604052508101906129b99190615210565b505050915050600080831180156129d05750600082135b15612a03576a52b7d2dcc80cd2e40000006129eb83856151b8565b6129f69060646151b8565b612a0091906151e5565b90505b80600003612a1057506007545b600061271060015483612a2391906151b8565b612a2d91906151e5565b9050612a398183614c3c565b94505050505090565b60008160ff16600303612a585750612710919050565b8160ff16600403612a6c57506161a8919050565b8160ff16600503612a815750620124f8919050565b8160ff16600603612a96575062030d40919050565b8160ff16600703612aab57506207a120919050565b60405162461bcd60e51b8152600401610e099061518c565b33612acc6116c2565b6001600160a01b031614611251573360405163118cdaa760e01b8152600401610e099190614fdb565b600082815260086020526040902080546001600160a01b0316612b4f5760405162461bcd60e51b8152602060048201526012602482015271125b9d985b1a59081c995c5d595cdd08125160721b6044820152606401610e09565b8054600160a81b900460ff1615612b9f5760405162461bcd60e51b815260206004820152601460248201527314dc1a5b88185b1c9958591e481cd95d1d1b195960621b6044820152606401610e09565b6000612bd383600081518110612bb757612bb76153d3565b60209081029190910101518354600160a01b900460ff16613d19565b9050600080612bf88460000160149054906101000a900460ff16848660010154613dd3565b84519193509150612c129060048601906020860190614bc6565b5083548290859060ff60b01b1916600160b01b836007811115612c3757612c37614f57565b021790555060028401819055835460ff60a81b1916600160a81b1784558015612e6f5783546001600160a01b031660009081526009602052604081208054839290612c83908490614c3c565b909155505083546001600160a01b03166000908152600b602052604081208054839290612cb1908490614c3c565b909155505083546001600160a01b031660009081526011602052604081208054839290612cdf908490614c3c565b9091555060079050826007811115612cf957612cf9614f57565b03612da157600480549082906000612d11838561528b565b9091555050845460045460408051858152602081018590529081019190915288916001600160a01b0316907fc79c819f09f54de137ef53dde0a81b4d1c3312e9a339bbbde6022fe8794de6fa9060600160405180910390a3600160008051602061572b83398151915260045484612d879061539e565b6040805192835260208301919091520160405180910390a2505b6001840154612db190600a6151b8565b8110612e6f5783546001600160a01b03166000818152600a6020908152604080832054600c835281842054600b845282852054600f8552838620546010865284872054601187529685902054855194855295840192909252828401526060820152608081019390935260a083019190915260e060c08301819052600790830152663134b3afbbb4b760c91b610100830152517ffb6a74d6cc7428f8e4368441243bc89faa5ea0db9adcce9f842f40e8acc934f3918190036101200190a25b83546001600160a01b0381169087907f0d2b18411dc7aa3aa563cd05f0e3e6675e32c4d0065c71da4e8306c7434cf45b90600160a01b900460ff168686866007896007811115612ec157612ec1614f57565b14604051612ed39594939291906153e9565b60405180910390a3505050505050565b6000612eef8484612384565b9050600019811015612f315781811015612f2257828183604051637dc7a0d960e11b8152600401610e099392919061542c565b612f3184848484036000613c34565b50505050565b6001600160a01b038316612f61576000604051634b637e8f60e11b8152600401610e099190614fdb565b6001600160a01b038216612f8b57600060405163ec442f0560e01b8152600401610e099190614fdb565b6128b2838383613fc0565b612f9e6140e8565b6000612fa8613197565b805460ff1916815590507f5db9ee0a495bf2e6ff9c91a7834c1ba4fdd244a5e8aa4e537bd38aeae4b073aa335b604051612fe29190614fdb565b60405180910390a150565b306001600160a01b037f000000000000000000000000000000000000000000000000000000000000000016148061307457507f00000000000000000000000000000000000000000000000000000000000000006001600160a01b031661306860008051602061570b833981519152546001600160a01b031690565b6001600160a01b031614155b156112515760405163703e46dd60e11b815260040160405180910390fd5b6122f3612ac3565b816001600160a01b03166352d1902d6040518163ffffffff1660e01b8152600401602060405180830381865afa9250505080156130f4575060408051601f3d908101601f191682019092526130f1918101906153ba565b60015b6131135781604051634c9c8ce360e01b8152600401610e099190614fdb565b60008051602061570b833981519152811461314457604051632a87526960e21b815260048101829052602401610e09565b6128b2838361410d565b306001600160a01b037f000000000000000000000000000000000000000000000000000000000000000016146112515760405163703e46dd60e11b815260040160405180910390fd5b7fcd5ed15c6e187e77e9aee88184c21f4f2182ab5827cb3b7e07fbedcd63f0330090565b60006131c56139dd565b80546001600160a01b038481166001600160a01b031983168117845560405193945091169182907f8be0079c531659141344cd1fd0a4f28419497f9722a3daafe3b4186f6b6457e090600090a3505050565b6000613221614163565b80549091506001190161324757604051633ee5aeb560e01b815260040160405180910390fd5b60029055565b6132556113ec565b156112515760405163d93c066560e01b815260040160405180910390fd5b600060038360ff161015801561328d575060078360ff1611155b6132a95760405162461bcd60e51b8152600401610e099061518c565b6132b233614187565b60006132bd84610dd3565b905060008184116132d7576132d2848361528b565b6132e1565b6132e1828561528b565b90506101f4826132f28360646151b8565b6132fc91906151e5565b111561334a5760405162461bcd60e51b815260206004820152601f60248201527f507269636520686173206368616e6765642c20706c65617365207265747279006044820152606401610e09565b836133543361153c565b10156133975760405162461bcd60e51b8152602060048201526012602482015271496e73756666696369656e7420434849505360701b6044820152606401610e09565b600047116133d85760405162461bcd60e51b815260206004820152600e60248201526d4e6f204554482062616c616e636560901b6044820152606401610e09565b6133e23385613a37565b60006133ec6128b7565b905060006133f982613a6d565b90506000613406876112e5565b90508181116134685760405162461bcd60e51b815260206004820152602860248201527f4554482076616c7565206f66204348495053206973206c657373207468616e206044820152671594918818dbdcdd60c21b6064820152608401610e09565b814710156134b35760405162461bcd60e51b815260206004820152601860248201527724b739bab33334b1b4b2b73a1022aa24103337b9102b292360411b6044820152606401610e09565b60006134bf838361528b565b90506000612710600554836134d491906151b8565b6134de91906151e5565b905060006134ec828461528b565b905080600460008282546135009190614c3c565b9091555050600454604080519182526020820183905260009160008051602061572b833981519152910160405180910390a26000546001600160a01b031661357d5760405162461bcd60e51b815260206004820152601060248201526f5652462077726170706572207a65726f60801b6044820152606401610e09565b6000613587614389565b909a509050896135ce5760405162461bcd60e51b8152602060048201526012602482015271159491881c995c5d595cdd0819985a5b195960721b6044820152606401610e09565b6135da333060006128a5565b60035460408051633fabe5a360e21b815290516000926001600160a01b03169163feaf968c9160048083019260a09291908290030181865afa158015613624573d6000803e3d6000fd5b505050506040513d601f19601f820116820180604052508101906136489190615210565b5050509150508a7f04a940328428f6e16458d5b267f421dcf8dee9c2be607c65874a73b24a30a24888848a861161368057600061368a565b61368a8b8761528b565b8560405161369b9493929190615137565b60405180910390a26040805160ff8f168152602081018e905290810183905260608101859052608081018490524260a082015233908c907fe1f1615be10f7450fbe55feb78da938fb9d0813fd7fd3bda516a9002217d208e9060c00160405180910390a3604080516101008101825233815260ff8f166020820152600091810182905290606082019081526020018d8152602001600081526020014281526020018e60ff166001600160401b0381111561375757613757614d31565b604051908082528060200260200182016040528015613780578160200160208202803683370190505b50905260008c8152600860209081526040918290208351815492850151938501511515600160a81b0260ff60a81b1960ff909516600160a01b026001600160a81b03199094166001600160a01b03909216919091179290921792831682178155606084015190929091839160ff60b01b1990911661ffff60a81b1990911617600160b01b83600781111561381657613816614f57565b02179055506080820151600182015560a0820151600282015560c0820151600382015560e08201518051613854916004840191602090910190614bc6565b5050336000908152600a6020526040812080549250906138738361544d565b9091555050336000908152600f602052604081208054916138938361544d565b9091555050336000908152600c6020526040812080548e92906138b7908490614c3c565b909155505033600090815260106020526040812080548e92906138db908490614c3c565b90915550600090506138ec33614550565b80519091501561397457336000818152600a6020908152604080832054600c835281842054600b845282852054600f85528386205460108652848720546011909652958490205493517ffb6a74d6cc7428f8e4368441243bc89faa5ea0db9adcce9f842f40e8acc934f39661396b969495939492939092918a90615466565b60405180910390a25b505050505050505050505092915050565b600061398f614163565b6001905550565b61399e61324d565b60006139a8613197565b805460ff1916600117815590507f62e78cea01bee320cd4e420270b5ea74000d11b0c9f74754ebdbfc544b05a258612fd53390565b7f9016d09d72d40fdae2fd8ceac6b6234c7706214fd39c1cd1e609a0528c19930090565b6001600160a01b038216613a2b57600060405163ec442f0560e01b8152600401610e099190614fdb565b610fa960008383613fc0565b6001600160a01b038216613a61576000604051634b637e8f60e11b8152600401610e099190614fdb565b610fa982600083613fc0565b6000806000600360009054906101000a90046001600160a01b03166001600160a01b031663feaf968c6040518163ffffffff1660e01b815260040160a060405180830381865afa158015613ac5573d6000803e3d6000fd5b505050506040513d601f19601f82011682018060405250810190613ae99190615210565b5093505092505060008213613b105760405162461bcd60e51b8152600401610e0990615260565b46617a6914613b455762015180613b27824261528b565b1115613b455760405162461bcd60e51b8152600401610e09906152f5565b64012a05f200821015613b6a5760405162461bcd60e51b8152600401610e099061529e565b6509184e72a000821115613b905760405162461bcd60e51b8152600401610e09906152c9565b6000613b9d8360646151b8565b613baf86670de0b6b3a76400006151b8565b613bbd906305f5e1006151b8565b613bc791906151e5565b95945050505050565b6000807ff0c57e16840df040f15088dc2f81fe391c3923bec73e23a9662efc9c229c6a00610dcd565b613c01614971565b610fa98282614996565b611251614971565b613c1b614971565b6112516149c7565b613c2b614971565b6122f3816149cf565b6000613c3e612881565b90506001600160a01b038516613c6a57600060405163e602df0560e01b8152600401610e099190614fdb565b6001600160a01b038416613c94576000604051634a1406b160e11b8152600401610e099190614fdb565b6001600160a01b03808616600090815260018301602090815260408083209388168352929052208390558115613d1257836001600160a01b0316856001600160a01b03167f8c5be1e5ebec7d5bd14f71427d1e84f3dd0314c0f7b2291e5b200ac8c7c3b92585604051613d0991815260200190565b60405180910390a35b5050505050565b606060008260ff166001600160401b03811115613d3857613d38614d31565b604051908082528060200260200182016040528015613d61578160200160208202803683370190505b50905060005b8360ff168160ff161015613dcb5760006006613d8483600861549d565b60ff1687901c613d9491906154c0565b613d9f906001614c3c565b905080838360ff1681518110613db757613db76153d3565b602090810291909101015250600101613d67565b509392505050565b6000806000805b85518160ff161015613e2e57858160ff1681518110613dfb57613dfb6153d3565b602002602001015182600a613e1091906151b8565b613e1a9190614c3c565b915080613e26816154d4565b915050613dda565b50600254604051632586114560e21b815260ff88166004820152602481018390526000916001600160a01b031690639618451490604401602060405180830381865afa158015613e82573d6000803e3d6000fd5b505050506040513d601f19601f82011682018060405250810190613ea691906154f3565b905060006001826007811115613ebe57613ebe614f57565b03613ed557613ece8660026151b8565b9050613fb3565b6002826007811115613ee957613ee9614f57565b03613ef957613ece8660056151b8565b6003826007811115613f0d57613f0d614f57565b03613f1d57613ece86600a6151b8565b6006826007811115613f3157613f31614f57565b03613f4157613ece8660146151b8565b6004826007811115613f5557613f55614f57565b03613f6557613ece8660326151b8565b6005826007811115613f7957613f79614f57565b03613f8957613ece8660646151b8565b6007826007811115613f9d57613f9d614f57565b03613fb35760048054613fb091906151e5565b90505b9097909650945050505050565b6000613fca612881565b90506001600160a01b038416613ff95781816002016000828254613fee9190614c3c565b909155506140589050565b6001600160a01b038416600090815260208290526040902054828110156140395784818460405163391434e360e21b8152600401610e099392919061542c565b6001600160a01b03851660009081526020839052604090209083900390555b6001600160a01b038316614076576002810180548390039055614095565b6001600160a01b03831660009081526020829052604090208054830190555b826001600160a01b0316846001600160a01b03167fddf252ad1be2c89b69c2b068fc378daa952ba7f163c4a11628f55a4df523b3ef846040516140da91815260200190565b60405180910390a350505050565b6140f06113ec565b61125157604051638dfc202b60e01b815260040160405180910390fd5b614116826149d7565b6040516001600160a01b038316907fbc7cd75a20ee27fd9adebab32041f755214dbc6bffa90cc0225b39da2e5c2d3b90600090a280511561415b576128b28282614a33565b610fa9614aa0565b7f9b779b17422d0df92223018b32b4d1fa46e071723d6817e2486d003becc55f0090565b6001600160a01b0381166000908152600e60205260408120546141aa904261528b565b6001600160a01b0383166000908152600e602052604090205490915015806141d3575061070881115b1561436c576001600160a01b0382166000908152600e60205260409020541580159061421657506001600160a01b0382166000908152600f602052604090205415155b156142c9576001600160a01b0382166000818152600d602090815260408083205460129092529091205490919060008051602061576b8339815191529061425d904261528b565b6001600160a01b0386166000908152600f60209081526040808320546010835281842054601184529382902054825195865292850152830191909152606082015260a060808201819052600790820152661d1a5b595bdd5d60ca1b60c082015260e00160405180910390a35b6001600160a01b0382166000908152600d602052604081208054916142ed8361544d565b90915550506001600160a01b0382166000818152600f602090815260408083208390556010825280832083905560118252808320839055601282528083204290819055600d83529281902054905192835292917fc5976e47b0c6f9dcf128a220851e73d4c3537d46bec6163e27d617ac0241c9a3910160405180910390a35b506001600160a01b03166000908152600e60205260409020429055565b60008060006143a8604051806020016040528060011515815250614abf565b6000546040516313c34b7f60e01b815263ffffffff600160a01b830481166004830152600160d01b83041660248201529192506001600160a01b0316906313c34b7f90604401602060405180830381865afa15801561440b573d6000803e3d6000fd5b505050506040513d601f19601f8201168201806040525081019061442f91906153ba565b9150816000036144635760006144466123e26128b7565b90506000811161445d5766071afd498d000061445f565b805b9250505b814710156144ae5760405162461bcd60e51b8152602060048201526018602482015277496e73756666696369656e74204554482062616c616e636560401b6044820152606401610e09565b600054604051634e7e02c760e11b81526001600160a01b03821691639cfc058e9185916145069163ffffffff600160a01b830481169261ffff600160c01b82041692600160d01b909104909116908890600401615514565b60206040518083038185885af1158015614524573d6000803e3d6000fd5b50505050506040513d601f19601f8201168201806040525081019061454991906153ba565b9250509091565b6001600160a01b0381166000908152600a602052604090205460609060011480156145b057506001600160a01b03821660009081526013602052604090819020905161459b90615551565b9081526040519081900360200190205460ff16155b15614620576001600160a01b038216600090815260136020526040908190209051600191906145de90615551565b9081526040805160209281900383018120805460ff1916941515949094179093558281019052600a8252693334b939ba2fb9b834b760b11b9082015292915050565b6001600160a01b0382166000908152600a6020526040902054606414801561467d57506001600160a01b03821660009081526013602052604090819020905161466890615567565b9081526040519081900360200190205460ff16155b156146ec576001600160a01b038216600090815260136020526040908190209051600191906146ab90615567565b9081526040805160209281900383018120805460ff191694151594909417909355828101905260098252683130305f7370696e7360b81b9082015292915050565b6001600160a01b0382166000908152600a60205260409020546103e814801561474a57506001600160a01b0382166000908152601360205260409081902090516147359061557c565b9081526040519081900360200190205460ff16155b156147ba576001600160a01b038216600090815260136020526040908190209051600191906147789061557c565b9081526040805160209281900383018120805460ff1916941515949094179093558281019052600a825269313030305f7370696e7360b01b9082015292915050565b6001600160a01b0382166000908152600c6020526040902054683635c9adc5dea000001180159061482057506001600160a01b03821660009081526013602052604090819020905161480b90615592565b9081526040519081900360200190205460ff16155b15614892576001600160a01b0382166000908152601360205260409081902090516001919061484e90615592565b9081526040805160209281900383018120805460ff1916941515949094179093558281019052600c82526b7768616c655f73746174757360a01b9082015292915050565b6001600160a01b0382166000908152600b6020526040902054158015906148ee57506001600160a01b0382166000908152601360205260409081902090516148d9906155aa565b9081526040519081900360200190205460ff16155b1561495d576001600160a01b0382166000908152601360205260409081902090516001919061491c906155aa565b9081526040805160209281900383018120805460ff191694151594909417909355828101905260098252683334b939ba2fbbb4b760b91b9082015292915050565b505060408051602081019091526000815290565b614979614b30565b61125157604051631afcd79f60e31b815260040160405180910390fd5b61499e614971565b60006149a8612881565b9050600381016149b8848261560f565b5060048101612f31838261560f565b613985614971565b6125fb614971565b806001600160a01b03163b600003614a045780604051634c9c8ce360e01b8152600401610e099190614fdb565b60008051602061570b83398151915280546001600160a01b0319166001600160a01b0392909216919091179055565b6060600080846001600160a01b031684604051614a5091906156ce565b600060405180830381855af49150503d8060008114614a8b576040519150601f19603f3d011682016040523d82523d6000602084013e614a90565b606091505b5091509150613bc7858383614b4a565b34156112515760405163b398979f60e01b815260040160405180910390fd5b60607f92fd13387c7fe7befbc38d303d6468778fb9731bc4583f17d92989c6fcfdeaaa82604051602401614af891511515815260200190565b60408051601f198184030181529190526020810180516001600160e01b03166001600160e01b03199093169290921790915292915050565b6000614b3a613bd0565b54600160401b900460ff16919050565b606082614b5f57614b5a82614b9d565b610fcc565b8151158015614b7657506001600160a01b0384163b155b15614b965783604051639996b31560e01b8152600401610e099190614fdb565b5080610fcc565b805115614bad5780518082602001fd5b60405163d6bda27560e01b815260040160405180910390fd5b828054828255906000526020600020908101928215614c01579160200282015b82811115614c01578251825591602001919060010190614be6565b50614c0d929150614c11565b5090565b5b80821115614c0d5760008155600101614c12565b634e487b7160e01b600052601160045260246000fd5b80820180821115610dcd57610dcd614c26565b80356001600160a01b03811681146115e157600080fd5b600060208284031215614c7857600080fd5b610fcc82614c4f565b60005b83811015614c9c578181015183820152602001614c84565b50506000910152565b60008151808452614cbd816020860160208601614c81565b601f01601f19169290920160200192915050565b602081526000610fcc6020830184614ca5565b60008060408385031215614cf757600080fd5b614d0083614c4f565b946020939093013593505050565b600060208284031215614d2057600080fd5b813560ff81168114610fcc57600080fd5b634e487b7160e01b600052604160045260246000fd5b604051601f8201601f191681016001600160401b0381118282101715614d6f57614d6f614d31565b604052919050565b60008060408385031215614d8a57600080fd5b823591506020808401356001600160401b0380821115614da957600080fd5b818601915086601f830112614dbd57600080fd5b813581811115614dcf57614dcf614d31565b8060051b9150614de0848301614d47565b8181529183018401918481019089841115614dfa57600080fd5b938501935b83851015614e1857843582529385019390850190614dff565b8096505050505050509250929050565b600080600060608486031215614e3d57600080fd5b614e4684614c4f565b9250614e5460208501614c4f565b9150604084013590509250925092565b600060208284031215614e7657600080fd5b5035919050565b60006001600160401b03831115614e9657614e96614d31565b614ea9601f8401601f1916602001614d47565b9050828152838383011115614ebd57600080fd5b828260208301376000602084830101529392505050565b60008060408385031215614ee757600080fd5b614ef083614c4f565b915060208301356001600160401b03811115614f0b57600080fd5b8301601f81018513614f1c57600080fd5b614f2b85823560208401614e7d565b9150509250929050565b60008060408385031215614f4857600080fd5b50508035926020909101359150565b634e487b7160e01b600052602160045260246000fd5b60088110614f8b57634e487b7160e01b600052602160045260246000fd5b9052565b6001600160a01b038816815260ff87166020820152851515604082015260e08101614fbd6060830187614f6d565b8460808301528360a08301528260c083015298975050505050505050565b6001600160a01b0391909116815260200190565b60008151808452602080850194506020840160005b8381101561502057815187529582019590820190600101615004565b509495945050505050565b602081526000610fcc6020830184614fef565b803563ffffffff811681146115e157600080fd5b600080600080600060a0868803121561506a57600080fd5b6150738661503e565b9450602086013561ffff8116811461508a57600080fd5b93506150986040870161503e565b94979396509394606081013594506080013592915050565b600080604083850312156150c357600080fd5b6150cc83614c4f565b91506150da60208401614c4f565b90509250929050565b600080600080608085870312156150f957600080fd5b61510285614c4f565b935061511060208601614c4f565b925061511e60408601614c4f565b915061512c60608601614c4f565b905092959194509250565b93845260208401929092526040830152606082015260800190565b600181811c9082168061516657607f821691505b60208210810361518657634e487b7160e01b600052602260045260246000fd5b50919050565b602080825260129082015271125b9d985b1a59081c99595b0818dbdd5b9d60721b604082015260600190565b8082028115828204841417610dcd57610dcd614c26565b634e487b7160e01b600052601260045260246000fd5b6000826151f4576151f46151cf565b500490565b80516001600160501b03811681146115e157600080fd5b600080600080600060a0868803121561522857600080fd5b615231866151f9565b9450602086015193506040860151925060608601519150615254608087016151f9565b90509295509295909350565b602080825260119082015270496e76616c69642045544820707269636560781b604082015260600190565b81810381811115610dcd57610dcd614c26565b60208082526011908201527045544820707269636520746f6f206c6f7760781b604082015260600190565b60208082526012908201527108aa89040e0e4d2c6ca40e8dede40d0d2ced60731b604082015260600190565b6020808252601490820152734554482070726963652064617461207374616c6560601b604082015260600190565b6060808252600a90820152691d9c9990dbdcdd1554d160b21b60808201526020810192909252604082015260a00190565b6020808252601790820152764e6f2077696e6e696e677320746f20776974686472617760481b604082015260600190565b8281526040602082015260006112396040830184614ca5565b6000600160ff1b82016153b3576153b3614c26565b5060000390565b6000602082840312156153cc57600080fd5b5051919050565b634e487b7160e01b600052603260045260246000fd5b60ff8616815260a06020820152600061540560a0830187614fef565b90506154146040830186614f6d565b83606083015282151560808301529695505050505050565b6001600160a01b039390931683526020830191909152604082015260600190565b60006001820161545f5761545f614c26565b5060010190565b8781528660208201528560408201528460608201528360808201528260a082015260e060c08201526000610e8a60e0830184614ca5565b60ff81811683821602908116908181146154b9576154b9614c26565b5092915050565b6000826154cf576154cf6151cf565b500690565b600060ff821660ff81036154ea576154ea614c26565b60010192915050565b60006020828403121561550557600080fd5b815160088110610fcc57600080fd5b600063ffffffff808716835261ffff86166020840152808516604084015250608060608301526155476080830184614ca5565b9695505050505050565b693334b939ba2fb9b834b760b11b8152600a0190565b683130305f7370696e7360b81b815260090190565b69313030305f7370696e7360b01b8152600a0190565b6b7768616c655f73746174757360a01b8152600c0190565b683334b939ba2fbbb4b760b91b815260090190565b601f8211156128b2576000816000526020600020601f850160051c810160208610156155e85750805b601f850160051c820191505b81811015615607578281556001016155f4565b505050505050565b81516001600160401b0381111561562857615628614d31565b61563c816156368454615152565b846155bf565b602080601f83116001811461567157600084156156595750858301515b600019600386901b1c1916600185901b178555615607565b600085815260208120601f198616915b828110156156a057888601518255948401946001909101908401615681565b50858210156156be5787850151600019600388901b60f8161c191681555b5050505050600190811b01905550565b600082516156e0818460208701614c81565b919091019291505056fe5ef1a92025deef4c68bcb5bb7038612d837ba8b259fd94b93e73d705cd28b607360894a13ba1a3210667c828492db98dca3e2076cc3735a920a3ca505d382bbc1a1389237a7aab7783accd2cb962fca4a343d1794954b603a20d9be55ff69adb57ef02674303fe031cdd139278234e35af2b79baeb5e845662afdaa0d6f12a975b3cd382464e02d28b502e54e122b312ceb537090aef1f355717ffc3126bfea5a2646970667358221220e9ff888a6f54a844c4d8861393efb564016dd6cfa10af8935a617724bb4230f764736f6c63430008160033",
  "linkReferences": {},
  "deployedLinkReferences": {}
}