{
  "_format": "hh-sol-artifact-1",
  "contractName": "CasinoSlot",
  "sourceName": "contracts/CasinoSlot.sol",
  "abi": [
    {
      "inputs": [],
      "stateMutability": "nonpayable",
      "type": "constructor"
    },
    {
      "inputs": [
        {
          "internalType": "address",
          "name": "target",
          "type": "address"
        }
      ],
      "name": "AddressEmptyCode",
      "type": "error"
    },
    {
      "inputs": [
        {
          "internalType": "address",
          "name": "implementation",
          "type": "address"
        }
      ],
      "name": "ERC1967InvalidImplementation",
      "type": "error"
    },
    {
      "inputs": [],
      "name": "ERC1967NonPayable",
      "type": "error"
    },
    {
      "inputs": [
        {
          "internalType": "address",
          "name": "spender",
          "type": "address"
        },
        {
          "internalType": "uint256",
          "name": "allowance",
          "type": "uint256"
        },
        {
          "internalType": "uint256",
          "name": "needed",
          "type": "uint256"
        }
      ],
      "name": "ERC20InsufficientAllowance",
      "type": "error"
    },
    {
      "inputs": [
        {
          "internalType": "address",
          "name": "sender",
          "type": "address"
        },
        {
          "internalType": "uint256",
          "name": "balance",
          "type": "uint256"
        },
        {
          "internalType": "uint256",
          "name": "needed",
          "type": "uint256"
        }
      ],
      "name": "ERC20InsufficientBalance",
      "type": "error"
    },
    {
      "inputs": [
        {
          "internalType": "address",
          "name": "approver",
          "type": "address"
        }
      ],
      "name": "ERC20InvalidApprover",
      "type": "error"
    },
    {
      "inputs": [
        {
          "internalType": "address",
          "name": "receiver",
          "type": "address"
        }
      ],
      "name": "ERC20InvalidReceiver",
      "type": "error"
    },
    {
      "inputs": [
        {
          "internalType": "address",
          "name": "sender",
          "type": "address"
        }
      ],
      "name": "ERC20InvalidSender",
      "type": "error"
    },
    {
      "inputs": [
        {
          "internalType": "address",
          "name": "spender",
          "type": "address"
        }
      ],
      "name": "ERC20InvalidSpender",
      "type": "error"
    },
    {
      "inputs": [],
      "name": "EnforcedPause",
      "type": "error"
    },
    {
      "inputs": [],
      "name": "ExpectedPause",
      "type": "error"
    },
    {
      "inputs": [],
      "name": "FailedCall",
      "type": "error"
    },
    {
      "inputs": [],
      "name": "InvalidInitialization",
      "type": "error"
    },
    {
      "inputs": [],
      "name": "NotInitializing",
      "type": "error"
    },
    {
      "inputs": [
        {
          "internalType": "address",
          "name": "owner",
          "type": "address"
        }
      ],
      "name": "OwnableInvalidOwner",
      "type": "error"
    },
    {
      "inputs": [
        {
          "internalType": "address",
          "name": "account",
          "type": "address"
        }
      ],
      "name": "OwnableUnauthorizedAccount",
      "type": "error"
    },
    {
      "inputs": [],
      "name": "ReentrancyGuardReentrantCall",
      "type": "error"
    },
    {
      "inputs": [],
      "name": "UUPSUnauthorizedCallContext",
      "type": "error"
    },
    {
      "inputs": [
        {
          "internalType": "bytes32",
          "name": "slot",
          "type": "bytes32"
        }
      ],
      "name": "UUPSUnsupportedProxiableUUID",
      "type": "error"
    },
    {
      "anonymous": false,
      "inputs": [
        {
          "indexed": true,
          "internalType": "address",
          "name": "owner",
          "type": "address"
        },
        {
          "indexed": true,
          "internalType": "address",
          "name": "spender",
          "type": "address"
        },
        {
          "indexed": false,
          "internalType": "uint256",
          "name": "value",
          "type": "uint256"
        }
      ],
      "name": "Approval",
      "type": "event"
    },
    {
      "anonymous": false,
      "inputs": [
        {
          "indexed": true,
          "internalType": "address",
          "name": "player",
          "type": "address"
        },
        {
          "indexed": false,
          "internalType": "uint256",
          "name": "ethAmount",
          "type": "uint256"
        },
        {
          "indexed": false,
          "internalType": "uint256",
          "name": "chipsAmount",
          "type": "uint256"
        }
      ],
      "name": "ChipsPurchased",
      "type": "event"
    },
    {
      "anonymous": false,
      "inputs": [
        {
          "indexed": true,
          "internalType": "address",
          "name": "player",
          "type": "address"
        },
        {
          "indexed": false,
          "internalType": "uint256",
          "name": "chipsAmount",
          "type": "uint256"
        },
        {
          "indexed": false,
          "internalType": "uint256",
          "name": "ethValue",
          "type": "uint256"
        }
      ],
      "name": "ChipsSwapped",
      "type": "event"
    },
    {
      "anonymous": false,
      "inputs": [
        {
          "indexed": false,
          "internalType": "uint8",
          "name": "version",
          "type": "uint8"
        }
      ],
      "name": "ContractInitialized",
      "type": "event"
    },
    {
      "anonymous": false,
      "inputs": [
        {
          "indexed": false,
          "internalType": "uint256",
          "name": "baseChipPriceUSD",
          "type": "uint256"
        },
        {
          "indexed": false,
          "internalType": "uint256",
          "name": "vrfCostUSD",
          "type": "uint256"
        }
      ],
      "name": "DynamicPricingUpdated",
      "type": "event"
    },
    {
      "anonymous": false,
      "inputs": [
        {
          "indexed": true,
          "internalType": "address",
          "name": "owner",
          "type": "address"
        },
        {
          "indexed": false,
          "internalType": "uint256",
          "name": "amount",
          "type": "uint256"
        }
      ],
      "name": "EthWithdrawn",
      "type": "event"
    },
    {
      "anonymous": false,
      "inputs": [
        {
          "indexed": true,
          "internalType": "address",
          "name": "player",
          "type": "address"
        },
        {
          "indexed": true,
          "internalType": "uint256",
          "name": "sessionId",
          "type": "uint256"
        },
        {
          "indexed": false,
          "internalType": "uint256",
          "name": "duration",
          "type": "uint256"
        },
        {
          "indexed": false,
          "internalType": "uint256",
          "name": "spinsCount",
          "type": "uint256"
        },
        {
          "indexed": false,
          "internalType": "uint256",
          "name": "totalBet",
          "type": "uint256"
        },
        {
          "indexed": false,
          "internalType": "uint256",
          "name": "totalWon",
          "type": "uint256"
        },
        {
          "indexed": false,
          "internalType": "string",
          "name": "endReason",
          "type": "string"
        }
      ],
      "name": "GameSessionEnded",
      "type": "event"
    },
    {
      "anonymous": false,
      "inputs": [
        {
          "indexed": true,
          "internalType": "address",
          "name": "player",
          "type": "address"
        },
        {
          "indexed": true,
          "internalType": "uint256",
          "name": "sessionId",
          "type": "uint256"
        },
        {
          "indexed": false,
          "internalType": "uint256",
          "name": "timestamp",
          "type": "uint256"
        }
      ],
      "name": "GameSessionStarted",
      "type": "event"
    },
    {
      "anonymous": false,
      "inputs": [
        {
          "indexed": true,
          "internalType": "uint256",
          "name": "requestId",
          "type": "uint256"
        },
        {
          "indexed": true,
          "internalType": "address",
          "name": "player",
          "type": "address"
        },
        {
          "indexed": false,
          "internalType": "uint256",
          "name": "amount",
          "type": "uint256"
        }
      ],
      "name": "HouseFeeCollected",
      "type": "event"
    },
    {
      "anonymous": false,
      "inputs": [
        {
          "indexed": false,
          "internalType": "uint64",
          "name": "version",
          "type": "uint64"
        }
      ],
      "name": "Initialized",
      "type": "event"
    },
    {
      "anonymous": false,
      "inputs": [
        {
          "indexed": true,
          "internalType": "address",
          "name": "player",
          "type": "address"
        },
        {
          "indexed": true,
          "internalType": "uint256",
          "name": "requestId",
          "type": "uint256"
        },
        {
          "indexed": false,
          "internalType": "uint8",
          "name": "reelCount",
          "type": "uint8"
        },
        {
          "indexed": false,
          "internalType": "uint256",
          "name": "jackpotAmount",
          "type": "uint256"
        },
        {
          "indexed": false,
          "internalType": "uint256",
          "name": "prizePoolBefore",
          "type": "uint256"
        },
        {
          "indexed": false,
          "internalType": "uint256",
          "name": "prizePoolAfter",
          "type": "uint256"
        }
      ],
      "name": "JackpotHit",
      "type": "event"
    },
    {
      "anonymous": false,
      "inputs": [
        {
          "indexed": true,
          "internalType": "address",
          "name": "previousOwner",
          "type": "address"
        },
        {
          "indexed": true,
          "internalType": "address",
          "name": "newOwner",
          "type": "address"
        }
      ],
      "name": "OwnershipTransferred",
      "type": "event"
    },
    {
      "anonymous": false,
      "inputs": [
        {
          "indexed": false,
          "internalType": "address",
          "name": "account",
          "type": "address"
        }
      ],
      "name": "Paused",
      "type": "event"
    },
    {
      "anonymous": false,
      "inputs": [
        {
          "indexed": true,
          "internalType": "address",
          "name": "newPayoutTables",
          "type": "address"
        }
      ],
      "name": "PayoutTablesUpdated",
      "type": "event"
    },
    {
      "anonymous": false,
      "inputs": [
        {
          "indexed": true,
          "internalType": "address",
          "name": "player",
          "type": "address"
        },
        {
          "indexed": false,
          "internalType": "string",
          "name": "milestone",
          "type": "string"
        },
        {
          "indexed": false,
          "internalType": "uint256",
          "name": "value",
          "type": "uint256"
        },
        {
          "indexed": false,
          "internalType": "uint256",
          "name": "timestamp",
          "type": "uint256"
        }
      ],
      "name": "PlayerMilestoneReached",
      "type": "event"
    },
    {
      "anonymous": false,
      "inputs": [
        {
          "indexed": true,
          "internalType": "address",
          "name": "player",
          "type": "address"
        },
        {
          "indexed": false,
          "internalType": "uint256",
          "name": "totalSpins",
          "type": "uint256"
        },
        {
          "indexed": false,
          "internalType": "uint256",
          "name": "totalWinnings",
          "type": "uint256"
        },
        {
          "indexed": false,
          "internalType": "uint256",
          "name": "totalBet",
          "type": "uint256"
        }
      ],
      "name": "PlayerStatsUpdated",
      "type": "event"
    },
    {
      "anonymous": false,
      "inputs": [
        {
          "indexed": false,
          "internalType": "uint256",
          "name": "newTotalPrizePool",
          "type": "uint256"
        },
        {
          "indexed": false,
          "internalType": "int256",
          "name": "amount",
          "type": "int256"
        },
        {
          "indexed": true,
          "internalType": "uint8",
          "name": "reason",
          "type": "uint8"
        }
      ],
      "name": "PrizePoolStateChanged",
      "type": "event"
    },
    {
      "anonymous": false,
      "inputs": [
        {
          "indexed": true,
          "internalType": "uint8",
          "name": "reelCount",
          "type": "uint8"
        },
        {
          "indexed": true,
          "internalType": "address",
          "name": "player",
          "type": "address"
        },
        {
          "indexed": false,
          "internalType": "bool",
          "name": "won",
          "type": "bool"
        },
        {
          "indexed": false,
          "internalType": "uint256",
          "name": "betAmount",
          "type": "uint256"
        },
        {
          "indexed": false,
          "internalType": "uint256",
          "name": "payout",
          "type": "uint256"
        }
      ],
      "name": "ReelSpinCompleted",
      "type": "event"
    },
    {
      "anonymous": false,
      "inputs": [
        {
          "indexed": true,
          "internalType": "uint256",
          "name": "requestId",
          "type": "uint256"
        },
        {
          "indexed": true,
          "internalType": "address",
          "name": "player",
          "type": "address"
        },
        {
          "indexed": false,
          "internalType": "uint256",
          "name": "vrfCostETH",
          "type": "uint256"
        },
        {
          "indexed": false,
          "internalType": "uint256",
          "name": "houseFeeETH",
          "type": "uint256"
        },
        {
          "indexed": false,
          "internalType": "uint256",
          "name": "timestamp",
          "type": "uint256"
        }
      ],
      "name": "SpinAnalytics",
      "type": "event"
    },
    {
      "anonymous": false,
      "inputs": [
        {
          "indexed": true,
          "internalType": "uint256",
          "name": "requestId",
          "type": "uint256"
        },
        {
          "indexed": true,
          "internalType": "address",
          "name": "player",
          "type": "address"
        },
        {
          "indexed": false,
          "internalType": "uint8",
          "name": "reelCount",
          "type": "uint8"
        },
        {
          "indexed": false,
          "internalType": "uint256",
          "name": "betAmount",
          "type": "uint256"
        }
      ],
      "name": "SpinRequested",
      "type": "event"
    },
    {
      "anonymous": false,
      "inputs": [
        {
          "indexed": true,
          "internalType": "uint256",
          "name": "requestId",
          "type": "uint256"
        },
        {
          "indexed": true,
          "internalType": "address",
          "name": "player",
          "type": "address"
        },
        {
          "indexed": false,
          "internalType": "uint8",
          "name": "reelCount",
          "type": "uint8"
        },
        {
          "indexed": false,
          "internalType": "uint256[]",
          "name": "reels",
          "type": "uint256[]"
        },
        {
          "indexed": false,
          "internalType": "enum IPayoutTables.PayoutType",
          "name": "payoutType",
          "type": "uint8"
        },
        {
          "indexed": false,
          "internalType": "uint256",
          "name": "payout",
          "type": "uint256"
        }
      ],
      "name": "SpinResult",
      "type": "event"
    },
    {
      "anonymous": false,
      "inputs": [
        {
          "indexed": true,
          "internalType": "address",
          "name": "from",
          "type": "address"
        },
        {
          "indexed": true,
          "internalType": "address",
          "name": "to",
          "type": "address"
        },
        {
          "indexed": false,
          "internalType": "uint256",
          "name": "value",
          "type": "uint256"
        }
      ],
      "name": "Transfer",
      "type": "event"
    },
    {
      "anonymous": false,
      "inputs": [
        {
          "indexed": false,
          "internalType": "address",
          "name": "account",
          "type": "address"
        }
      ],
      "name": "Unpaused",
      "type": "event"
    },
    {
      "anonymous": false,
      "inputs": [
        {
          "indexed": true,
          "internalType": "address",
          "name": "implementation",
          "type": "address"
        }
      ],
      "name": "Upgraded",
      "type": "event"
    },
    {
      "anonymous": false,
      "inputs": [
        {
          "indexed": false,
          "internalType": "uint256",
          "name": "newVrfCostUSD",
          "type": "uint256"
        }
      ],
      "name": "VRFCostUpdated",
      "type": "event"
    },
    {
      "anonymous": false,
      "inputs": [
        {
          "indexed": false,
          "internalType": "uint256",
          "name": "newVrfMarkupBP",
          "type": "uint256"
        }
      ],
      "name": "VRFMarkupUpdated",
      "type": "event"
    },
    {
      "anonymous": false,
      "inputs": [
        {
          "indexed": true,
          "internalType": "uint256",
          "name": "requestId",
          "type": "uint256"
        },
        {
          "indexed": false,
          "internalType": "uint256",
          "name": "ethPaid",
          "type": "uint256"
        }
      ],
      "name": "VRFPayment",
      "type": "event"
    },
    {
      "anonymous": false,
      "inputs": [
        {
          "indexed": true,
          "internalType": "address",
          "name": "player",
          "type": "address"
        },
        {
          "indexed": false,
          "internalType": "uint256",
          "name": "amount",
          "type": "uint256"
        }
      ],
      "name": "WinningsCredited",
      "type": "event"
    },
    {
      "anonymous": false,
      "inputs": [
        {
          "indexed": true,
          "internalType": "address",
          "name": "player",
          "type": "address"
        },
        {
          "indexed": false,
          "internalType": "uint256",
          "name": "amount",
          "type": "uint256"
        }
      ],
      "name": "WinningsWithdrawn",
      "type": "event"
    },
    {
      "inputs": [],
      "name": "REEL_3_MULTIPLIER",
      "outputs": [
        {
          "internalType": "uint256",
          "name": "",
          "type": "uint256"
        }
      ],
      "stateMutability": "view",
      "type": "function"
    },
    {
      "inputs": [],
      "name": "REEL_4_MULTIPLIER",
      "outputs": [
        {
          "internalType": "uint256",
          "name": "",
          "type": "uint256"
        }
      ],
      "stateMutability": "view",
      "type": "function"
    },
    {
      "inputs": [],
      "name": "REEL_5_MULTIPLIER",
      "outputs": [
        {
          "internalType": "uint256",
          "name": "",
          "type": "uint256"
        }
      ],
      "stateMutability": "view",
      "type": "function"
    },
    {
      "inputs": [],
      "name": "REEL_6_MULTIPLIER",
      "outputs": [
        {
          "internalType": "uint256",
          "name": "",
          "type": "uint256"
        }
      ],
      "stateMutability": "view",
      "type": "function"
    },
    {
      "inputs": [],
      "name": "REEL_7_MULTIPLIER",
      "outputs": [
        {
          "internalType": "uint256",
          "name": "",
          "type": "uint256"
        }
      ],
      "stateMutability": "view",
      "type": "function"
    },
    {
      "inputs": [],
      "name": "UPGRADE_INTERFACE_VERSION",
      "outputs": [
        {
          "internalType": "string",
          "name": "",
          "type": "string"
        }
      ],
      "stateMutability": "view",
      "type": "function"
    },
    {
      "inputs": [
        {
          "internalType": "address",
          "name": "owner",
          "type": "address"
        },
        {
          "internalType": "address",
          "name": "spender",
          "type": "address"
        }
      ],
      "name": "allowance",
      "outputs": [
        {
          "internalType": "uint256",
          "name": "",
          "type": "uint256"
        }
      ],
      "stateMutability": "view",
      "type": "function"
    },
    {
      "inputs": [
        {
          "internalType": "address",
          "name": "spender",
          "type": "address"
        },
        {
          "internalType": "uint256",
          "name": "value",
          "type": "uint256"
        }
      ],
      "name": "approve",
      "outputs": [
        {
          "internalType": "bool",
          "name": "",
          "type": "bool"
        }
      ],
      "stateMutability": "nonpayable",
      "type": "function"
    },
    {
      "inputs": [
        {
          "internalType": "address",
          "name": "account",
          "type": "address"
        }
      ],
      "name": "balanceOf",
      "outputs": [
        {
          "internalType": "uint256",
          "name": "",
          "type": "uint256"
        }
      ],
      "stateMutability": "view",
      "type": "function"
    },
    {
      "inputs": [],
      "name": "baseChipPriceUSD",
      "outputs": [
        {
          "internalType": "uint256",
          "name": "",
          "type": "uint256"
        }
      ],
      "stateMutability": "view",
      "type": "function"
    },
    {
      "inputs": [],
      "name": "buyChips",
      "outputs": [],
      "stateMutability": "payable",
      "type": "function"
    },
    {
      "inputs": [
        {
          "internalType": "uint256",
          "name": "ethAmount",
          "type": "uint256"
        }
      ],
      "name": "calculateChipsFromETH",
      "outputs": [
        {
          "internalType": "uint256",
          "name": "",
          "type": "uint256"
        }
      ],
      "stateMutability": "view",
      "type": "function"
    },
    {
      "inputs": [
        {
          "internalType": "uint256",
          "name": "chipsAmount",
          "type": "uint256"
        }
      ],
      "name": "calculateETHFromCHIPS",
      "outputs": [
        {
          "internalType": "uint256",
          "name": "ethValue",
          "type": "uint256"
        }
      ],
      "stateMutability": "view",
      "type": "function"
    },
    {
      "inputs": [],
      "name": "callbackGasLimit",
      "outputs": [
        {
          "internalType": "uint32",
          "name": "",
          "type": "uint32"
        }
      ],
      "stateMutability": "view",
      "type": "function"
    },
    {
      "inputs": [
        {
          "internalType": "address",
          "name": "",
          "type": "address"
        }
      ],
      "name": "currentSessionId",
      "outputs": [
        {
          "internalType": "uint256",
          "name": "",
          "type": "uint256"
        }
      ],
      "stateMutability": "view",
      "type": "function"
    },
    {
      "inputs": [],
      "name": "decimals",
      "outputs": [
        {
          "internalType": "uint8",
          "name": "",
          "type": "uint8"
        }
      ],
      "stateMutability": "view",
      "type": "function"
    },
    {
      "inputs": [],
      "name": "endSession",
      "outputs": [],
      "stateMutability": "nonpayable",
      "type": "function"
    },
    {
      "inputs": [],
      "name": "getETHStats",
      "outputs": [
        {
          "internalType": "uint256",
          "name": "contractETHBalance",
          "type": "uint256"
        },
        {
          "internalType": "uint256",
          "name": "vrfRequestsAffordable",
          "type": "uint256"
        },
        {
          "internalType": "uint256",
          "name": "vrfCostETHTokens",
          "type": "uint256"
        },
        {
          "internalType": "uint256",
          "name": "vrfCostUSDCents",
          "type": "uint256"
        }
      ],
      "stateMutability": "view",
      "type": "function"
    },
    {
      "inputs": [],
      "name": "getGameStats",
      "outputs": [
        {
          "internalType": "uint256",
          "name": "prizePool",
          "type": "uint256"
        },
        {
          "internalType": "uint256",
          "name": "houseEdgePercent",
          "type": "uint256"
        },
        {
          "internalType": "address",
          "name": "payoutTablesAddress",
          "type": "address"
        }
      ],
      "stateMutability": "view",
      "type": "function"
    },
    {
      "inputs": [
        {
          "internalType": "address",
          "name": "player",
          "type": "address"
        }
      ],
      "name": "getPlayerStats",
      "outputs": [
        {
          "internalType": "uint256",
          "name": "balance",
          "type": "uint256"
        },
        {
          "internalType": "uint256",
          "name": "winnings",
          "type": "uint256"
        },
        {
          "internalType": "uint256",
          "name": "spinsCount",
          "type": "uint256"
        },
        {
          "internalType": "uint256",
          "name": "totalWinnings",
          "type": "uint256"
        },
        {
          "internalType": "uint256",
          "name": "totalBetAmount",
          "type": "uint256"
        }
      ],
      "stateMutability": "view",
      "type": "function"
    },
    {
      "inputs": [],
      "name": "getPoolStats",
      "outputs": [
        {
          "internalType": "uint256",
          "name": "totalETH",
          "type": "uint256"
        },
        {
          "internalType": "uint256",
          "name": "chipPrice",
          "type": "uint256"
        },
        {
          "internalType": "uint256",
          "name": "ethPrice",
          "type": "uint256"
        }
      ],
      "stateMutability": "view",
      "type": "function"
    },
    {
      "inputs": [
        {
          "internalType": "uint8",
          "name": "reelCount",
          "type": "uint8"
        }
      ],
      "name": "getPricingBreakdown",
      "outputs": [
        {
          "internalType": "uint256",
          "name": "baseCostUSD",
          "type": "uint256"
        },
        {
          "internalType": "uint256",
          "name": "vrfCostInUSD",
          "type": "uint256"
        },
        {
          "internalType": "uint256",
          "name": "reelMultiplier",
          "type": "uint256"
        },
        {
          "internalType": "uint256",
          "name": "totalCostUSD",
          "type": "uint256"
        },
        {
          "internalType": "uint256",
          "name": "totalCostCHIPS",
          "type": "uint256"
        }
      ],
      "stateMutability": "view",
      "type": "function"
    },
    {
      "inputs": [
        {
          "internalType": "address",
          "name": "player",
          "type": "address"
        }
      ],
      "name": "getSessionStats",
      "outputs": [
        {
          "internalType": "uint256",
          "name": "sessionId",
          "type": "uint256"
        },
        {
          "internalType": "uint256",
          "name": "spinCount",
          "type": "uint256"
        },
        {
          "internalType": "uint256",
          "name": "betTotal",
          "type": "uint256"
        },
        {
          "internalType": "uint256",
          "name": "winTotal",
          "type": "uint256"
        },
        {
          "internalType": "uint256",
          "name": "duration",
          "type": "uint256"
        },
        {
          "internalType": "bool",
          "name": "isActive",
          "type": "bool"
        }
      ],
      "stateMutability": "view",
      "type": "function"
    },
    {
      "inputs": [
        {
          "internalType": "uint8",
          "name": "reelCount",
          "type": "uint8"
        }
      ],
      "name": "getSpinCost",
      "outputs": [
        {
          "internalType": "uint256",
          "name": "",
          "type": "uint256"
        }
      ],
      "stateMutability": "view",
      "type": "function"
    },
    {
      "inputs": [
        {
          "internalType": "uint256",
          "name": "requestId",
          "type": "uint256"
        }
      ],
      "name": "getSpinReels",
      "outputs": [
        {
          "internalType": "uint256[]",
          "name": "",
          "type": "uint256[]"
        }
      ],
      "stateMutability": "view",
      "type": "function"
    },
    {
      "inputs": [],
      "name": "getVRFStats",
      "outputs": [
        {
          "internalType": "uint256",
          "name": "currentGasPrice",
          "type": "uint256"
        },
        {
          "internalType": "uint256",
          "name": "callbackGas",
          "type": "uint256"
        },
        {
          "internalType": "uint256",
          "name": "vrfCostETHTokens",
          "type": "uint256"
        },
        {
          "internalType": "uint256",
          "name": "vrfCostUSDCents",
          "type": "uint256"
        },
        {
          "internalType": "uint256",
          "name": "ethBalance",
          "type": "uint256"
        }
      ],
      "stateMutability": "view",
      "type": "function"
    },
    {
      "inputs": [],
      "name": "houseEdge",
      "outputs": [
        {
          "internalType": "uint256",
          "name": "",
          "type": "uint256"
        }
      ],
      "stateMutability": "view",
      "type": "function"
    },
    {
      "inputs": [
        {
          "internalType": "address",
          "name": "ethUsdPriceFeedAddress",
          "type": "address"
        },
        {
          "internalType": "address",
          "name": "payoutTablesAddress",
          "type": "address"
        },
        {
          "internalType": "address",
          "name": "wrapperAddress",
          "type": "address"
        },
        {
          "internalType": "address",
          "name": "initialOwner",
          "type": "address"
        }
      ],
      "name": "initialize",
      "outputs": [],
      "stateMutability": "nonpayable",
      "type": "function"
    },
    {
      "inputs": [
        {
          "internalType": "address",
          "name": "",
          "type": "address"
        }
      ],
      "name": "lastActivityTimestamp",
      "outputs": [
        {
          "internalType": "uint256",
          "name": "",
          "type": "uint256"
        }
      ],
      "stateMutability": "view",
      "type": "function"
    },
    {
      "inputs": [
        {
          "internalType": "address",
          "name": "",
          "type": "address"
        },
        {
          "internalType": "string",
          "name": "",
          "type": "string"
        }
      ],
      "name": "milestoneAchieved",
      "outputs": [
        {
          "internalType": "bool",
          "name": "",
          "type": "bool"
        }
      ],
      "stateMutability": "view",
      "type": "function"
    },
    {
      "inputs": [],
      "name": "name",
      "outputs": [
        {
          "internalType": "string",
          "name": "",
          "type": "string"
        }
      ],
      "stateMutability": "view",
      "type": "function"
    },
    {
      "inputs": [],
      "name": "numWords",
      "outputs": [
        {
          "internalType": "uint32",
          "name": "",
          "type": "uint32"
        }
      ],
      "stateMutability": "view",
      "type": "function"
    },
    {
      "inputs": [],
      "name": "owner",
      "outputs": [
        {
          "internalType": "address",
          "name": "",
          "type": "address"
        }
      ],
      "stateMutability": "view",
      "type": "function"
    },
    {
      "inputs": [],
      "name": "pause",
      "outputs": [],
      "stateMutability": "nonpayable",
      "type": "function"
    },
    {
      "inputs": [],
      "name": "paused",
      "outputs": [
        {
          "internalType": "bool",
          "name": "",
          "type": "bool"
        }
      ],
      "stateMutability": "view",
      "type": "function"
    },
    {
      "inputs": [],
      "name": "payoutTables",
      "outputs": [
        {
          "internalType": "contract IPayoutTables",
          "name": "",
          "type": "address"
        }
      ],
      "stateMutability": "view",
      "type": "function"
    },
    {
      "inputs": [
        {
          "internalType": "address",
          "name": "",
          "type": "address"
        }
      ],
      "name": "playerWinnings",
      "outputs": [
        {
          "internalType": "uint256",
          "name": "",
          "type": "uint256"
        }
      ],
      "stateMutability": "view",
      "type": "function"
    },
    {
      "inputs": [],
      "name": "proxiableUUID",
      "outputs": [
        {
          "internalType": "bytes32",
          "name": "",
          "type": "bytes32"
        }
      ],
      "stateMutability": "view",
      "type": "function"
    },
    {
      "inputs": [
        {
          "internalType": "uint256",
          "name": "requestId",
          "type": "uint256"
        },
        {
          "internalType": "uint256[]",
          "name": "randomWords",
          "type": "uint256[]"
        }
      ],
      "name": "rawFulfillRandomWords",
      "outputs": [],
      "stateMutability": "nonpayable",
      "type": "function"
    },
    {
      "inputs": [],
      "name": "renounceOwnership",
      "outputs": [],
      "stateMutability": "nonpayable",
      "type": "function"
    },
    {
      "inputs": [],
      "name": "requestConfirmations",
      "outputs": [
        {
          "internalType": "uint16",
          "name": "",
          "type": "uint16"
        }
      ],
      "stateMutability": "view",
      "type": "function"
    },
    {
      "inputs": [
        {
          "internalType": "address",
          "name": "",
          "type": "address"
        }
      ],
      "name": "sessionBetTotal",
      "outputs": [
        {
          "internalType": "uint256",
          "name": "",
          "type": "uint256"
        }
      ],
      "stateMutability": "view",
      "type": "function"
    },
    {
      "inputs": [
        {
          "internalType": "address",
          "name": "",
          "type": "address"
        }
      ],
      "name": "sessionSpinCount",
      "outputs": [
        {
          "internalType": "uint256",
          "name": "",
          "type": "uint256"
        }
      ],
      "stateMutability": "view",
      "type": "function"
    },
    {
      "inputs": [
        {
          "internalType": "address",
          "name": "",
          "type": "address"
        }
      ],
      "name": "sessionStartTime",
      "outputs": [
        {
          "internalType": "uint256",
          "name": "",
          "type": "uint256"
        }
      ],
      "stateMutability": "view",
      "type": "function"
    },
    {
      "inputs": [
        {
          "internalType": "address",
          "name": "",
          "type": "address"
        }
      ],
      "name": "sessionWinTotal",
      "outputs": [
        {
          "internalType": "uint256",
          "name": "",
          "type": "uint256"
        }
      ],
      "stateMutability": "view",
      "type": "function"
    },
    {
      "inputs": [
        {
          "internalType": "uint8",
          "name": "_reel",
          "type": "uint8"
        }
      ],
      "name": "spinReels",
      "outputs": [
        {
          "internalType": "uint256",
          "name": "requestId",
          "type": "uint256"
        }
      ],
      "stateMutability": "nonpayable",
      "type": "function"
    },
    {
      "inputs": [
        {
          "internalType": "uint256",
          "name": "",
          "type": "uint256"
        }
      ],
      "name": "spins",
      "outputs": [
        {
          "internalType": "address",
          "name": "player",
          "type": "address"
        },
        {
          "internalType": "uint8",
          "name": "reelCount",
          "type": "uint8"
        },
        {
          "internalType": "bool",
          "name": "settled",
          "type": "bool"
        },
        {
          "internalType": "enum IPayoutTables.PayoutType",
          "name": "payoutType",
          "type": "uint8"
        },
        {
          "internalType": "uint256",
          "name": "betAmount",
          "type": "uint256"
        },
        {
          "internalType": "uint256",
          "name": "payout",
          "type": "uint256"
        },
        {
          "internalType": "uint256",
          "name": "timestamp",
          "type": "uint256"
        }
      ],
      "stateMutability": "view",
      "type": "function"
    },
    {
      "inputs": [
        {
          "internalType": "uint256",
          "name": "chipsAmount",
          "type": "uint256"
        }
      ],
      "name": "swapChipsToETH",
      "outputs": [],
      "stateMutability": "nonpayable",
      "type": "function"
    },
    {
      "inputs": [],
      "name": "symbol",
      "outputs": [
        {
          "internalType": "string",
          "name": "",
          "type": "string"
        }
      ],
      "stateMutability": "view",
      "type": "function"
    },
    {
      "inputs": [
        {
          "internalType": "address",
          "name": "",
          "type": "address"
        }
      ],
      "name": "totalBet",
      "outputs": [
        {
          "internalType": "uint256",
          "name": "",
          "type": "uint256"
        }
      ],
      "stateMutability": "view",
      "type": "function"
    },
    {
      "inputs": [],
      "name": "totalPrizePool",
      "outputs": [
        {
          "internalType": "uint256",
          "name": "",
          "type": "uint256"
        }
      ],
      "stateMutability": "view",
      "type": "function"
    },
    {
      "inputs": [
        {
          "internalType": "address",
          "name": "",
          "type": "address"
        }
      ],
      "name": "totalSpins",
      "outputs": [
        {
          "internalType": "uint256",
          "name": "",
          "type": "uint256"
        }
      ],
      "stateMutability": "view",
      "type": "function"
    },
    {
      "inputs": [],
      "name": "totalSupply",
      "outputs": [
        {
          "internalType": "uint256",
          "name": "",
          "type": "uint256"
        }
      ],
      "stateMutability": "view",
      "type": "function"
    },
    {
      "inputs": [
        {
          "internalType": "address",
          "name": "",
          "type": "address"
        }
      ],
      "name": "totalWon",
      "outputs": [
        {
          "internalType": "uint256",
          "name": "",
          "type": "uint256"
        }
      ],
      "stateMutability": "view",
      "type": "function"
    },
    {
      "inputs": [
        {
          "internalType": "address",
          "name": "to",
          "type": "address"
        },
        {
          "internalType": "uint256",
          "name": "value",
          "type": "uint256"
        }
      ],
      "name": "transfer",
      "outputs": [
        {
          "internalType": "bool",
          "name": "",
          "type": "bool"
        }
      ],
      "stateMutability": "nonpayable",
      "type": "function"
    },
    {
      "inputs": [
        {
          "internalType": "address",
          "name": "from",
          "type": "address"
        },
        {
          "internalType": "address",
          "name": "to",
          "type": "address"
        },
        {
          "internalType": "uint256",
          "name": "value",
          "type": "uint256"
        }
      ],
      "name": "transferFrom",
      "outputs": [
        {
          "internalType": "bool",
          "name": "",
          "type": "bool"
        }
      ],
      "stateMutability": "nonpayable",
      "type": "function"
    },
    {
      "inputs": [
        {
          "internalType": "address",
          "name": "newOwner",
          "type": "address"
        }
      ],
      "name": "transferOwnership",
      "outputs": [],
      "stateMutability": "nonpayable",
      "type": "function"
    },
    {
      "inputs": [],
      "name": "unpause",
      "outputs": [],
      "stateMutability": "nonpayable",
      "type": "function"
    },
    {
      "inputs": [
        {
          "internalType": "uint256",
          "name": "newBaseChipPriceUSD",
          "type": "uint256"
        },
        {
          "internalType": "uint256",
          "name": "newVrfCostUSD",
          "type": "uint256"
        }
      ],
      "name": "updateDynamicPricing",
      "outputs": [],
      "stateMutability": "nonpayable",
      "type": "function"
    },
    {
      "inputs": [
        {
          "internalType": "address",
          "name": "newPayoutTables",
          "type": "address"
        }
      ],
      "name": "updatePayoutTables",
      "outputs": [],
      "stateMutability": "nonpayable",
      "type": "function"
    },
    {
      "inputs": [
        {
          "internalType": "uint32",
          "name": "_callbackGasLimit",
          "type": "uint32"
        },
        {
          "internalType": "uint16",
          "name": "_requestConfirmations",
          "type": "uint16"
        },
        {
          "internalType": "uint32",
          "name": "_numWords",
          "type": "uint32"
        },
        {
          "internalType": "uint256",
          "name": "_vrfCostUSD",
          "type": "uint256"
        },
        {
          "internalType": "uint256",
          "name": "_vrfMarkupBP",
          "type": "uint256"
        }
      ],
      "name": "updateVRFParameters",
      "outputs": [],
      "stateMutability": "nonpayable",
      "type": "function"
    },
    {
      "inputs": [
        {
          "internalType": "address",
          "name": "newImplementation",
          "type": "address"
        },
        {
          "internalType": "bytes",
          "name": "data",
          "type": "bytes"
        }
      ],
      "name": "upgradeToAndCall",
      "outputs": [],
      "stateMutability": "payable",
      "type": "function"
    },
    {
      "inputs": [],
      "name": "vrfCostUSD",
      "outputs": [
        {
          "internalType": "uint256",
          "name": "",
          "type": "uint256"
        }
      ],
      "stateMutability": "view",
      "type": "function"
    },
    {
      "inputs": [],
      "name": "vrfMarkupBP",
      "outputs": [
        {
          "internalType": "uint256",
          "name": "",
          "type": "uint256"
        }
      ],
      "stateMutability": "view",
      "type": "function"
    },
    {
      "inputs": [],
      "name": "vrfWrapper",
      "outputs": [
        {
          "internalType": "contract IVRFV2PlusWrapper",
          "name": "",
          "type": "address"
        }
      ],
      "stateMutability": "view",
      "type": "function"
    },
    {
      "inputs": [
        {
          "internalType": "uint256",
          "name": "amount",
          "type": "uint256"
        }
      ],
      "name": "withdrawETH",
      "outputs": [],
      "stateMutability": "nonpayable",
      "type": "function"
    },
    {
      "inputs": [],
      "name": "withdrawWinnings",
      "outputs": [],
      "stateMutability": "nonpayable",
      "type": "function"
    },
    {
      "stateMutability": "payable",
      "type": "receive"
    }
  ],
  "bytecode": "0x60a0604052306080523480156200001557600080fd5b506200002062000026565b620000da565b7ff0c57e16840df040f15088dc2f81fe391c3923bec73e23a9662efc9c229c6a00805468010000000000000000900460ff1615620000775760405163f92ee8a960e01b815260040160405180910390fd5b80546001600160401b0390811614620000d75780546001600160401b0319166001600160401b0390811782556040519081527fc7f505b2f371ae2175ee4913f4499e1f2633a7b5936321eed1cdaeb6115181d29060200160405180910390a15b50565b6080516151f66200010460003960008181612a6c01528181612a950152612bcd01526151f66000f3fe6080604052600436106103285760003560e01c80637ccfd7fc116101a8578063cb075014116100e8578063cb07501414610aea578063cc42e83a14610b0a578063d107835914610b1f578063d2ac200114610b3f578063d4e8e97914610b55578063d63abd0f14610b75578063d667dcd714610b8c578063da65b54014610ba2578063dd62ed3e14610bcf578063e114bcc614610bef578063e237a3fc14610c04578063f0e3fff814610c19578063f14210a614610c46578063f2fde38b14610c66578063f8c8765e14610c86578063fbec371014610ca6578063fd75a0ab14610cdb57600080fd5b80637ccfd7fc1461080457806380fc8be3146108285780638315c2641461087757806383bbf942146108f85780638456cb59146109255780638b2da0f21461093a5780638da5cb5b1461096757806395d89b411461097c5780639b65a788146109915780639c3930ad146109be5780639d174a32146109c6578063a9059cbb146109f3578063ad3cb1cc14610a13578063b0fb162f14610a44578063bbb8518814610a79578063c292f6b714610a9d578063c74a00bf14610abd57600080fd5b8063313ce56711610273578063313ce567146105d0578063398ab9a7146105ec5780633f4ba83a146106025780634141f52b1461061757806349ac8153146106445780634f1ef286146106905780634fd66eae146106a357806352d1902d146106eb57806357bdb327146107005780635c975abb146107205780635cf807c614610735578063680f1066146107555780636d56cea01461076c57806370a0823114610799578063715018a6146107b957806371a8b3cb146107ce578063740eea3c146107ee57600080fd5b806305f4b2191461037757806306fdde03146103b7578063088d2aaf146103d9578063095ea7b3146103ef5780630d054af41461041f578063124130501461044c578063138a74201461046357806317535fe61461048357806318160ddd146104995780631aff30dd146104ae5780631e8b0000146104e85780631fe543e31461050a57806323b872dd1461052a57806324f746971461054a578063252f4d8114610583578063283389bb146105b057600080fd5b3661037257346004600082825461033f9190614752565b909155505060045460408051918252346020830152600291600080516020615161833981519152910160405180910390a2005b600080fd5b34801561038357600080fd5b506103a461039236600461477c565b600d6020526000908152604090205481565b6040519081526020015b60405180910390f35b3480156103c357600080fd5b506103cc610cf1565b6040516103ae91906147e7565b3480156103e557600080fd5b506103a460075481565b3480156103fb57600080fd5b5061040f61040a3660046147fa565b610d92565b60405190151581526020016103ae565b34801561042b57600080fd5b506103a461043a36600461477c565b600a6020526000908152604090205481565b34801561045857600080fd5b506103a46207a12081565b34801561046f57600080fd5b506103a461047e366004614824565b610dac565b34801561048f57600080fd5b506103a46161a881565b3480156104a557600080fd5b506103a4610e70565b3480156104ba57600080fd5b506004546005546002546040805193845260208401929092526001600160a01b0316908201526060016103ae565b3480156104f457600080fd5b5061050861050336600461477c565b610e85565b005b34801561051657600080fd5b5061050861052536600461488d565b610f1f565b34801561053657600080fd5b5061040f61054536600461493e565b610f86565b34801561055657600080fd5b5060005461056e90600160a01b900463ffffffff1681565b60405163ffffffff90911681526020016103ae565b34801561058f57600080fd5b506103a461059e36600461477c565b60096020526000908152604090205481565b3480156105bc57600080fd5b506103a46105cb36600461497a565b610fac565b3480156105dc57600080fd5b50604051601281526020016103ae565b3480156105f857600080fd5b506103a460045481565b34801561060e57600080fd5b5061050861121a565b34801561062357600080fd5b506103a461063236600461477c565b60126020526000908152604090205481565b34801561065057600080fd5b5061040f61065f3660046149ea565b6013602090815260009283526040909220815180830184018051928152908401929093019190912091525460ff1681565b61050861069e3660046149ea565b61122c565b3480156106af57600080fd5b506106c36106be36600461477c565b611247565b604080519586526020860194909452928401919091526060830152608082015260a0016103ae565b3480156106f757600080fd5b506103a46112a1565b34801561070c57600080fd5b506103a461071b36600461497a565b6112be565b34801561072c57600080fd5b5061040f6113c5565b34801561074157600080fd5b50610508610750366004614a4b565b6113da565b34801561076157600080fd5b506103a462030d4081565b34801561077857600080fd5b506103a461078736600461477c565b60106020526000908152604090205481565b3480156107a557600080fd5b506103a46107b436600461477c565b6114cd565b3480156107c557600080fd5b506105086114f8565b3480156107da57600080fd5b506103a46107e9366004614824565b61150a565b3480156107fa57600080fd5b506103a460065481565b34801561081057600080fd5b5060005461056e90600160d01b900463ffffffff1681565b34801561083457600080fd5b5061084861084336600461477c565b611577565b6040805196875260208701959095529385019290925260608401526080830152151560a082015260c0016103ae565b34801561088357600080fd5b506108e561089236600461497a565b60086020526000908152604090208054600182015460028301546003909301546001600160a01b0383169360ff600160a01b8504811694600160a81b8104821694600160b01b9091049091169290919087565b6040516103ae9796959493929190614aa5565b34801561090457600080fd5b50600054610918906001600160a01b031681565b6040516103ae9190614af1565b34801561093157600080fd5b50610508611643565b34801561094657600080fd5b506103a461095536600461477c565b60116020526000908152604090205481565b34801561097357600080fd5b50610918611653565b34801561098857600080fd5b506103cc61166e565b34801561099d57600080fd5b506109b16109ac36600461497a565b61168b565b6040516103ae9190614b41565b6105086116f0565b3480156109d257600080fd5b506103a46109e136600461477c565b600c6020526000908152604090205481565b3480156109ff57600080fd5b5061040f610a0e3660046147fa565b6117d7565b348015610a1f57600080fd5b506103cc604051806040016040528060058152602001640352e302e360dc1b81525081565b348015610a5057600080fd5b50600054610a6690600160c01b900461ffff1681565b60405161ffff90911681526020016103ae565b348015610a8557600080fd5b50610a8e6117e5565b6040516103ae93929190614b54565b348015610aa957600080fd5b50600254610918906001600160a01b031681565b348015610ac957600080fd5b506103a4610ad836600461477c565b600f6020526000908152604090205481565b348015610af657600080fd5b50610508610b05366004614b7e565b6118a7565b348015610b1657600080fd5b50610508611978565b348015610b2b57600080fd5b50610508610b3a36600461497a565b611afb565b348015610b4b57600080fd5b506103a460015481565b348015610b6157600080fd5b506106c3610b70366004614824565b611d35565b348015610b8157600080fd5b506103a4620124f881565b348015610b9857600080fd5b506103a460055481565b348015610bae57600080fd5b506103a4610bbd36600461477c565b600e6020526000908152604090205481565b348015610bdb57600080fd5b506103a4610bea366004614bdc565b611dc3565b348015610bfb57600080fd5b506106c3611dff565b348015610c1057600080fd5b50610508611e3c565b348015610c2557600080fd5b506103a4610c3436600461477c565b600b6020526000908152604090205481565b348015610c5257600080fd5b50610508610c6136600461497a565b611f59565b348015610c7257600080fd5b50610508610c8136600461477c565b612032565b348015610c9257600080fd5b50610508610ca1366004614c0f565b61206d565b348015610cb257600080fd5b50610cbb612283565b6040805194855260208501939093529183015260608201526080016103ae565b348015610ce757600080fd5b506103a461271081565b60606000610cfd6122c0565b9050806003018054610d0e90614c63565b80601f0160208091040260200160405190810160405280929190818152602001828054610d3a90614c63565b8015610d875780601f10610d5c57610100808354040283529160200191610d87565b820191906000526020600020905b815481529060010190602001808311610d6a57829003601f168201915b505050505091505090565b600033610da08185856122e4565b60019150505b92915050565b600060038260ff1610158015610dc6575060078260ff1611155b610deb5760405162461bcd60e51b8152600401610de290614c9d565b60405180910390fd5b6006546000610df86122f6565b90506000610e068284614752565b90506000610e1386612481565b90506000612710610e248385614cc9565b610e2e9190614cf6565b9050600060065468056bc75e2d63100000610e499190614cf6565b905060006064610e598385614cc9565b610e639190614cf6565b9998505050505050505050565b600080610e7b6122c0565b6002015492915050565b610e8d612502565b6001600160a01b038116610ed55760405162461bcd60e51b815260206004820152600f60248201526e496e76616c6964206164647265737360881b6044820152606401610de2565b600280546001600160a01b0319166001600160a01b0383169081179091556040517f924b685b185ed4d6bb68dfe43a3eae1bbacdcff597754142f449dec6ae56c6c690600090a250565b6000546001600160a01b03163314610f785760405162461bcd60e51b815260206004820152601c60248201527b13db9b1e481594918815dc985c1c195c8818d85b88199d5b199a5b1b60221b6044820152606401610de2565b610f828282612534565b5050565b600033610f94858285612957565b610f9f8585856129ab565b60019150505b9392505050565b6000806000600360009054906101000a90046001600160a01b03166001600160a01b031663feaf968c6040518163ffffffff1660e01b815260040160a060405180830381865afa158015611004573d6000803e3d6000fd5b505050506040513d601f19601f820116820180604052508101906110289190614d21565b509350509250506000821361104f5760405162461bcd60e51b8152600401610de290614d71565b466001036110a657620151806110658242614d9c565b11156110a65760405162461bcd60e51b815260206004820152601060248201526f50726963652064617461207374616c6560801b6044820152606401610de2565b64012a05f2008210156110cb5760405162461bcd60e51b8152600401610de290614daf565b6509184e72a0008211156110f15760405162461bcd60e51b8152600401610de290614dda565b6000841161113f5760405162461bcd60e51b815260206004820152601b60248201527a45544820616d6f756e74206d75737420626520706f73697469766560281b6044820152606401610de2565b683635c9adc5dea0000084111561118f5760405162461bcd60e51b815260206004820152601460248201527345544820616d6f756e7420746f6f206c6172676560601b6044820152606401610de2565b60006006546305f5e1006111a39190614cc9565b6111ad8487614cc9565b6111b8906064614cc9565b6111c29190614cf6565b9050600081116112125760405162461bcd60e51b815260206004820152601b60248201527a10d85b18dd5b185d195908185b5bdd5b9d081d1bdbc81cdb585b1b602a1b6044820152606401610de2565b949350505050565b611222612502565b61122a612a0a565b565b611234612a61565b61123d82612b06565b610f828282612b0e565b6000806000806000611258866114cd565b6001600160a01b0396909616600090815260096020908152604080832054600a835281842054600b845282852054600c9094529190932054989992989097509095509350915050565b60006112ab612bc2565b5060008051602061514183398151915290565b6000806000600360009054906101000a90046001600160a01b03166001600160a01b031663feaf968c6040518163ffffffff1660e01b815260040160a060405180830381865afa158015611316573d6000803e3d6000fd5b505050506040513d601f19601f8201168201806040525081019061133a9190614d21565b50935050925050600082136113615760405162461bcd60e51b8152600401610de290614d71565b4660010361139557620151806113778242614d9c565b11156113955760405162461bcd60e51b8152600401610de290614e06565b6113a0826064614cc9565b6006546113ad9086614cc9565b6113bb906305f5e100614cc9565b6112129190614cf6565b6000806113d0612c0b565b5460ff1692915050565b6113e2612502565b6000821180156113f457506127108211155b6114355760405162461bcd60e51b8152602060048201526012602482015271496e76616c6964206261736520707269636560701b6044820152606401610de2565b60008111801561144757506113888111155b6114865760405162461bcd60e51b815260206004820152601060248201526f125b9d985b1a59081594918818dbdcdd60821b6044820152606401610de2565b6006829055600781905560408051838152602081018390527fae1000f04109a5264ab51f6deda46aed7e926625daaf5bc57a16e1f671750599910160405180910390a15050565b6000806114d86122c0565b6001600160a01b0390931660009081526020939093525050604090205490565b611500612502565b61122a6000612c2f565b6000611514612c8b565b61151c612cc1565b60038260ff1610158015611534575060078260ff1611155b6115505760405162461bcd60e51b8152600401610de290614c9d565b600061155b83610dac565b90506115678382612ce7565b91505061157261339d565b919050565b6001600160a01b0381166000908152600d6020908152604080832054600f83528184205460108452828520546011855283862054601290955292852054919490939181906115c65760006115e9565b6001600160a01b0387166000908152601260205260409020546115e99042614d9c565b6001600160a01b0388166000908152600e60205260409020549092501580159061163857506001600160a01b0387166000908152600e6020526040902054610708906116359042614d9c565b11155b905091939550919395565b61164b612502565b61122a6133ae565b60008061165e6133f5565b546001600160a01b031692915050565b6060600061167a6122c0565b9050806004018054610d0e90614c63565b6000818152600860209081526040918290206004018054835181840281018401909452808452606093928301828280156116e457602002820191906000526020600020905b8154815260200190600101908083116116d0575b50505050509050919050565b6116f8612c8b565b600034116117385760405162461bcd60e51b815260206004820152600d60248201526c09aeae6e840e6cadcc8408aa89609b1b6044820152606401610de2565b600061174334610fac565b905061174f3382613419565b34600460008282546117619190614752565b909155505060045460408051918252346020830152600291600080516020615161833981519152910160405180910390a2604080513481526020810183905233917f6a73271893757eff3e2109a31a1f50f0b3cafea2d51a26dc5cfe54ba216b531c91015b60405180910390a25061122a61339d565b600033610da08185856129ab565b60008060004792506064600654670de0b6b3a76400006118059190614cc9565b61180f9190614cf6565b91506000600360009054906101000a90046001600160a01b03166001600160a01b031663feaf968c6040518163ffffffff1660e01b815260040160a060405180830381865afa158015611866573d6000803e3d6000fd5b505050506040513d601f19601f8201168201806040525081019061188a9190614d21565b505050915050620f42408161189f9190614cf6565b915050909192565b6118af612502565b6000805465ffffffffffff60a01b1916600160a01b63ffffffff8881169190910261ffff60c01b191691909117600160c01b61ffff8816021763ffffffff60d01b1916600160d01b91861691909102179055600782905560018190556040518281527fa8af59f9acd69a05a5dff134c6120d855e4f44ebfcd41a57573ab4559bd8e9509060200160405180910390a16040518181527f2b29bfbfe9f2dff8e6f2034a0d33417f3d2c189e16526a3f375e12a188a20c999060200160405180910390a15050505050565b611980612c8b565b33600090815260096020526040902054806119d75760405162461bcd60e51b81526020600482015260176024820152764e6f2077696e6e696e677320746f20776974686472617760481b6044820152606401610de2565b336000908152600960209081526040808320839055600f90915290205415611abf57336000818152600d60209081526040808320546012909252909120549091906000805160206151a183398151915290611a329042614d9c565b336000908152600f60209081526040808320546010835281842054601184529382902054825195865292850152830191909152606082015260a060808201819052600a90820152691dda5d1a191c985dd85b60b21b60c082015260e00160405180910390a3336000908152600f602090815260408083208390556010825280832083905560119091528120555b611ac93382613419565b60405181815233907f24215bbaf0832fa4d6ffef16dee3971d8b714921fef3ad63f793d578983c6dc2906020016117c6565b611b03612c8b565b60008111611b4f5760405162461bcd60e51b8152602060048201526019602482015278135d5cdd081cdc1958da599e4810d2125414c8185b5bdd5b9d603a1b6044820152606401610de2565b80611b59336114cd565b1015611ba45760405162461bcd60e51b815260206004820152601a602482015279496e73756666696369656e742043484950532062616c616e636560301b6044820152606401610de2565b6000611baf826112be565b905060008111611bfa5760405162461bcd60e51b81526020600482015260166024820152751155120818d85b18dd5b185d1a5bdb8819985a5b195960521b6044820152606401610de2565b80471015611c545760405162461bcd60e51b815260206004820152602160248201527f496e73756666696369656e7420636f6e7472616374204554482062616c616e636044820152606560f81b6064820152608401610de2565b611c5e338361344f565b8060045410611c84578060046000828254611c799190614d9c565b90915550611c8a9050565b60006004555b600260008051602061516183398151915260045483611ca890614e34565b6040805192835260208301919091520160405180910390a2604051339082156108fc029083906000818181858888f19350505050158015611ced573d6000803e3d6000fd5b50604080518381526020810183905233917f40d4fa726215d21b1b37d248b08fc7464f173dd116cdd90f7f68e268e00f1494910160405180910390a250611d3261339d565b50565b600080600080600060038660ff1610158015611d55575060078660ff1611155b611d715760405162461bcd60e51b8152600401610de290614c9d565b6006549450611d7e6122f6565b9350611d8986612481565b925061271083611d998688614752565b611da39190614cc9565b611dad9190614cf6565b9150611db886610dac565b905091939590929450565b600080611dce6122c0565b6001600160a01b03948516600090815260019190910160209081526040808320959096168252939093525050205490565b600080543a91600160a01b90910463ffffffff16908080611e26611e216122f6565b613485565b9250611e306122f6565b91504790509091929394565b336000908152600f6020526040902054611e8c5760405162461bcd60e51b815260206004820152601160248201527027379030b1ba34bb329039b2b9b9b4b7b760791b6044820152606401610de2565b336000818152600d60209081526040808320546012909252909120549091906000805160206151a183398151915290611ec59042614d9c565b336000908152600f60209081526040808320546010835281842054601184529382902054825195865292850152830191909152606082015260a060808201819052600690820152651b585b9d585b60d21b60c082015260e00160405180910390a3336000908152600f602090815260408083208390556010825280832083905560118252808320839055600e909152812055565b611f61612502565b80471015611fa85760405162461bcd60e51b8152602060048201526014602482015273496e73756666696369656e742062616c616e636560601b6044820152606401610de2565b611fb0611653565b6001600160a01b03167f8455ae6be5d92f1df1c3c1484388e247a36c7e60d72055ae216dbc258f257d4b82604051611fea91815260200190565b60405180910390a2611ffa611653565b6001600160a01b03166108fc829081150290604051600060405180830381858888f19350505050158015610f82573d6000803e3d6000fd5b61203a612502565b6001600160a01b038116612064576000604051631e4fbdf760e01b8152600401610de29190614af1565b611d3281612c2f565b60006120776135e8565b805490915060ff600160401b82041615906001600160401b031660008115801561209e5750825b90506000826001600160401b031660011480156120ba5750303b155b9050811580156120c8575080155b156120e65760405163f92ee8a960e01b815260040160405180910390fd5b845467ffffffffffffffff19166001178555831561211057845460ff60401b1916600160401b1785555b61216660405180604001604052806017815260200176436173696e6f536c6f7420436173696e6f20436869707360481b81525060405180604001604052806005815260200164434849505360d81b815250613611565b61216e613623565b61217661362b565b61217e613623565b6121878661363b565b60008054600380546001600160a01b03199081166001600160a01b038e811691909117909255600280549091168c831617905589166001600160c01b031990911617613d0960a51b1765ffffffffffff60c01b19166201000360c01b1790556101f460055560146006556102586007556105dc60019081556040519081527f2baed9f07492c3771a3dbd4d6f77c3b870782c5fb55c87a0b0e80d27ddf1cbde9060200160405180910390a1831561227857845460ff60401b19168555604051600181527fc7f505b2f371ae2175ee4913f4499e1f2633a7b5936321eed1cdaeb6115181d29060200160405180910390a15b505050505050505050565b4760008080612293611e216122f6565b9150600082116122a45760006122ae565b6122ae8285614cf6565b92506122b86122f6565b905090919293565b7f52c63247e1f47db19d5ce0460030c497f067ca4cebf71ba98eeadabe20bace0090565b6122f1838383600161364c565b505050565b600080546040516313c34b7f60e01b815263ffffffff600160a01b830481166004830152600160d01b830416602482015282916001600160a01b0316906313c34b7f90604401602060405180830381865afa158015612359573d6000803e3d6000fd5b505050506040513d601f19601f8201168201806040525081019061237d9190614e50565b90506000600360009054906101000a90046001600160a01b03166001600160a01b031663feaf968c6040518163ffffffff1660e01b815260040160a060405180830381865afa1580156123d4573d6000803e3d6000fd5b505050506040513d601f19601f820116820180604052508101906123f89190614d21565b5050509150506000808311801561240f5750600082135b15612442576a52b7d2dcc80cd2e400000061242a8385614cc9565b612435906064614cc9565b61243f9190614cf6565b90505b8060000361244f57506007545b6000612710600154836124629190614cc9565b61246c9190614cf6565b90506124788183614752565b94505050505090565b60008160ff166003036124975750612710919050565b8160ff166004036124ab57506161a8919050565b8160ff166005036124c05750620124f8919050565b8160ff166006036124d5575062030d40919050565b8160ff166007036124ea57506207a120919050565b60405162461bcd60e51b8152600401610de290614c9d565b3361250b611653565b6001600160a01b03161461122a573360405163118cdaa760e01b8152600401610de29190614af1565b600082815260086020526040902080546001600160a01b031661258e5760405162461bcd60e51b8152602060048201526012602482015271125b9d985b1a59081c995c5d595cdd08125160721b6044820152606401610de2565b8054600160a81b900460ff16156125de5760405162461bcd60e51b815260206004820152601460248201527314dc1a5b88185b1c9958591e481cd95d1d1b195960621b6044820152606401610de2565b6000612612836000815181106125f6576125f6614e69565b60209081029190910101518354600160a01b900460ff16613731565b90506000806126378460000160149054906101000a900460ff168486600101546137eb565b8451919350915061265190600486019060208601906146dc565b5083548290859060ff60b01b1916600160b01b83600781111561267657612676614a6d565b021790555060028401819055835460ff60a81b1916600160a81b17845580156128985783546040518281526001600160a01b03909116907f779f3dac9c97100309b8434961b93ba796d5ded048815012b5d916d06eb7484a9060200160405180910390a283546001600160a01b031660009081526009602052604081208054839290612703908490614752565b909155505083546001600160a01b03166000908152600b602052604081208054839290612731908490614752565b909155505083546001600160a01b03166000908152601160205260408120805483929061275f908490614752565b909155505083546001600160a01b03166000818152600a6020908152604080832054600b835281842054600c909352928190205490517fa59fa8b79115e096a83695b3285fad27bd9f0565a3e52f114745d15c9c7e7486936127c49390929091614b54565b60405180910390a260078260078111156127e0576127e0614a6d565b03612898576004805490829060006127f88385614d9c565b9091555050845460045460408051600160a01b840460ff16815260208101869052908101849052606081019190915288916001600160a01b0316907fb675b1ec099961d7a503be1aaf08312c01b6d8b9a8e5978a11311e373b634a609060800160405180910390a360016000805160206151618339815191526004548461287e90614e34565b6040805192835260208301919091520160405180910390a2505b83546040516001600160a01b0382169188917f27814f4f47a118b18946fa6d26f1a479df2ec3b6025007c423ab3f96e149f2cc916128e791600160a01b90910460ff1690889088908890614e7f565b60405180910390a383546001850154604080518415158152602081019290925281018390526001600160a01b03821691600160a01b900460ff16907fae2ff6b9d023e9fda0f6cabba6c75cbe3e0867d2830ee428a4eca0983f156c0f9060600160405180910390a3505050505050565b60006129638484611dc3565b90506000198110156129a5578181101561299657828183604051637dc7a0d960e11b8152600401610de293929190614eb9565b6129a58484848403600061364c565b50505050565b6001600160a01b0383166129d5576000604051634b637e8f60e11b8152600401610de29190614af1565b6001600160a01b0382166129ff57600060405163ec442f0560e01b8152600401610de29190614af1565b6122f18383836139d8565b612a12613b00565b6000612a1c612c0b565b805460ff1916815590507f5db9ee0a495bf2e6ff9c91a7834c1ba4fdd244a5e8aa4e537bd38aeae4b073aa335b604051612a569190614af1565b60405180910390a150565b306001600160a01b037f0000000000000000000000000000000000000000000000000000000000000000161480612ae857507f00000000000000000000000000000000000000000000000000000000000000006001600160a01b0316612adc600080516020615141833981519152546001600160a01b031690565b6001600160a01b031614155b1561122a5760405163703e46dd60e11b815260040160405180910390fd5b611d32612502565b816001600160a01b03166352d1902d6040518163ffffffff1660e01b8152600401602060405180830381865afa925050508015612b68575060408051601f3d908101601f19168201909252612b6591810190614e50565b60015b612b875781604051634c9c8ce360e01b8152600401610de29190614af1565b6000805160206151418339815191528114612bb857604051632a87526960e21b815260048101829052602401610de2565b6122f18383613b25565b306001600160a01b037f0000000000000000000000000000000000000000000000000000000000000000161461122a5760405163703e46dd60e11b815260040160405180910390fd5b7fcd5ed15c6e187e77e9aee88184c21f4f2182ab5827cb3b7e07fbedcd63f0330090565b6000612c396133f5565b80546001600160a01b038481166001600160a01b031983168117845560405193945091169182907f8be0079c531659141344cd1fd0a4f28419497f9722a3daafe3b4186f6b6457e090600090a3505050565b6000612c95613b7b565b805490915060011901612cbb57604051633ee5aeb560e01b815260040160405180910390fd5b60029055565b612cc96113c5565b1561122a5760405163d93c066560e01b815260040160405180910390fd5b600060038360ff1610158015612d01575060078360ff1611155b612d1d5760405162461bcd60e51b8152600401610de290614c9d565b612d2633613b9f565b6000612d3184610dac565b90506000818411612d4b57612d468483614d9c565b612d55565b612d558285614d9c565b90506101f482612d66836064614cc9565b612d709190614cf6565b1115612dbe5760405162461bcd60e51b815260206004820152601f60248201527f507269636520686173206368616e6765642c20706c65617365207265747279006044820152606401610de2565b83612dc8336114cd565b1015612e0b5760405162461bcd60e51b8152602060048201526012602482015271496e73756666696369656e7420434849505360701b6044820152606401610de2565b60004711612e4c5760405162461bcd60e51b815260206004820152600e60248201526d4e6f204554482062616c616e636560901b6044820152606401610de2565b612e56338561344f565b6000612e606122f6565b90506000612e6d82613485565b90506000612e7a876112be565b9050818111612edc5760405162461bcd60e51b815260206004820152602860248201527f4554482076616c7565206f66204348495053206973206c657373207468616e206044820152671594918818dbdcdd60c21b6064820152608401610de2565b81471015612f275760405162461bcd60e51b815260206004820152601860248201527724b739bab33334b1b4b2b73a1022aa24103337b9102b292360411b6044820152606401610de2565b6000612f338383614d9c565b9050600061271060055483612f489190614cc9565b612f529190614cf6565b90506000612f608284614d9c565b90508060046000828254612f749190614752565b90915550506004546040805191825260208201839052600091600080516020615161833981519152910160405180910390a26000546001600160a01b0316612ff15760405162461bcd60e51b815260206004820152601060248201526f5652462077726170706572207a65726f60801b6044820152606401610de2565b6000612ffb613da1565b909a509050896130425760405162461bcd60e51b8152602060048201526012602482015271159491881c995c5d595cdd0819985a5b195960721b6044820152606401610de2565b61304e333060006122e4565b60405183815233908b907f1280fafbacb05b757312d27751dad63879485152797792a3027c1568a7af8ee59060200160405180910390a3897ff463b39003537d23209ffa49bff4f75e4097c061e381bebb90eaa4aa65eed654826040516130b791815260200190565b60405180910390a2336001600160a01b03168a7f3a91e36aabe8ea88b517b0a9639fbebce651b48e3ab250b9b78ff93550fbf3428386426040516130fd93929190614b54565b60405180910390a3604080516101008101825233815260ff8e166020820152600091810182905290606082019081526020018c8152602001600081526020014281526020018d60ff166001600160401b0381111561315d5761315d614847565b604051908082528060200260200182016040528015613186578160200160208202803683370190505b50905260008b8152600860209081526040918290208351815492850151938501511515600160a81b0260ff60a81b1960ff909516600160a01b026001600160a81b03199094166001600160a01b03909216919091179290921792831682178155606084015190929091839160ff60b01b1990911661ffff60a81b1990911617600160b01b83600781111561321c5761321c614a6d565b02179055506080820151600182015560a0820151600282015560c0820151600382015560e0820151805161325a9160048401916020909101906146dc565b5050336000908152600a60205260408120805492509061327983614eda565b9091555050336000908152600f6020526040812080549161329983614eda565b9091555050336000908152600c6020526040812080548d92906132bd908490614752565b909155505033600090815260106020526040812080548d92906132e1908490614752565b909155506132f0905033613f68565b336000818152600a6020908152604080832054600b835281842054600c909352928190205490517fa59fa8b79115e096a83695b3285fad27bd9f0565a3e52f114745d15c9c7e7486936133469390929091614b54565b60405180910390a26040805160ff8e168152602081018d905233918c917f97b5026890b55e18a72e2920b97aeafd3585f70c5839ca6e37cda79a536a055b910160405180910390a350505050505050505092915050565b60006133a7613b7b565b6001905550565b6133b6612cc1565b60006133c0612c0b565b805460ff1916600117815590507f62e78cea01bee320cd4e420270b5ea74000d11b0c9f74754ebdbfc544b05a258612a493390565b7f9016d09d72d40fdae2fd8ceac6b6234c7706214fd39c1cd1e609a0528c19930090565b6001600160a01b03821661344357600060405163ec442f0560e01b8152600401610de29190614af1565b610f82600083836139d8565b6001600160a01b038216613479576000604051634b637e8f60e11b8152600401610de29190614af1565b610f82826000836139d8565b6000806000600360009054906101000a90046001600160a01b03166001600160a01b031663feaf968c6040518163ffffffff1660e01b815260040160a060405180830381865afa1580156134dd573d6000803e3d6000fd5b505050506040513d601f19601f820116820180604052508101906135019190614d21565b50935050925050600082136135285760405162461bcd60e51b8152600401610de290614d71565b46617a691461355d576201518061353f8242614d9c565b111561355d5760405162461bcd60e51b8152600401610de290614e06565b64012a05f2008210156135825760405162461bcd60e51b8152600401610de290614daf565b6509184e72a0008211156135a85760405162461bcd60e51b8152600401610de290614dda565b60006135b5836064614cc9565b6135c786670de0b6b3a7640000614cc9565b6135d5906305f5e100614cc9565b6135df9190614cf6565b95945050505050565b6000807ff0c57e16840df040f15088dc2f81fe391c3923bec73e23a9662efc9c229c6a00610da6565b613619614487565b610f8282826144ac565b61122a614487565b613633614487565b61122a6144dd565b613643614487565b611d32816144e5565b60006136566122c0565b90506001600160a01b03851661368257600060405163e602df0560e01b8152600401610de29190614af1565b6001600160a01b0384166136ac576000604051634a1406b160e11b8152600401610de29190614af1565b6001600160a01b0380861660009081526001830160209081526040808320938816835292905220839055811561372a57836001600160a01b0316856001600160a01b03167f8c5be1e5ebec7d5bd14f71427d1e84f3dd0314c0f7b2291e5b200ac8c7c3b9258560405161372191815260200190565b60405180910390a35b5050505050565b606060008260ff166001600160401b0381111561375057613750614847565b604051908082528060200260200182016040528015613779578160200160208202803683370190505b50905060005b8360ff168160ff1610156137e3576000600661379c836008614ef3565b60ff1687901c6137ac9190614f16565b6137b7906001614752565b905080838360ff16815181106137cf576137cf614e69565b60209081029190910101525060010161377f565b509392505050565b6000806000805b85518160ff16101561384657858160ff168151811061381357613813614e69565b602002602001015182600a6138289190614cc9565b6138329190614752565b91508061383e81614f2a565b9150506137f2565b50600254604051632586114560e21b815260ff88166004820152602481018390526000916001600160a01b031690639618451490604401602060405180830381865afa15801561389a573d6000803e3d6000fd5b505050506040513d601f19601f820116820180604052508101906138be9190614f49565b9050600060018260078111156138d6576138d6614a6d565b036138ed576138e6866002614cc9565b90506139cb565b600282600781111561390157613901614a6d565b03613911576138e6866005614cc9565b600382600781111561392557613925614a6d565b03613935576138e686600a614cc9565b600682600781111561394957613949614a6d565b03613959576138e6866014614cc9565b600482600781111561396d5761396d614a6d565b0361397d576138e6866032614cc9565b600582600781111561399157613991614a6d565b036139a1576138e6866064614cc9565b60078260078111156139b5576139b5614a6d565b036139cb57600480546139c89190614cf6565b90505b9097909650945050505050565b60006139e26122c0565b90506001600160a01b038416613a115781816002016000828254613a069190614752565b90915550613a709050565b6001600160a01b03841660009081526020829052604090205482811015613a515784818460405163391434e360e21b8152600401610de293929190614eb9565b6001600160a01b03851660009081526020839052604090209083900390555b6001600160a01b038316613a8e576002810180548390039055613aad565b6001600160a01b03831660009081526020829052604090208054830190555b826001600160a01b0316846001600160a01b03167fddf252ad1be2c89b69c2b068fc378daa952ba7f163c4a11628f55a4df523b3ef84604051613af291815260200190565b60405180910390a350505050565b613b086113c5565b61122a57604051638dfc202b60e01b815260040160405180910390fd5b613b2e826144ed565b6040516001600160a01b038316907fbc7cd75a20ee27fd9adebab32041f755214dbc6bffa90cc0225b39da2e5c2d3b90600090a2805115613b73576122f18282614549565b610f826145b6565b7f9b779b17422d0df92223018b32b4d1fa46e071723d6817e2486d003becc55f0090565b6001600160a01b0381166000908152600e6020526040812054613bc29042614d9c565b6001600160a01b0383166000908152600e60205260409020549091501580613beb575061070881115b15613d84576001600160a01b0382166000908152600e602052604090205415801590613c2e57506001600160a01b0382166000908152600f602052604090205415155b15613ce1576001600160a01b0382166000818152600d60209081526040808320546012909252909120549091906000805160206151a183398151915290613c759042614d9c565b6001600160a01b0386166000908152600f60209081526040808320546010835281842054601184529382902054825195865292850152830191909152606082015260a060808201819052600790820152661d1a5b595bdd5d60ca1b60c082015260e00160405180910390a35b6001600160a01b0382166000908152600d60205260408120805491613d0583614eda565b90915550506001600160a01b0382166000818152600f602090815260408083208390556010825280832083905560118252808320839055601282528083204290819055600d83529281902054905192835292917fc5976e47b0c6f9dcf128a220851e73d4c3537d46bec6163e27d617ac0241c9a3910160405180910390a35b506001600160a01b03166000908152600e60205260409020429055565b6000806000613dc06040518060200160405280600115158152506145d5565b6000546040516313c34b7f60e01b815263ffffffff600160a01b830481166004830152600160d01b83041660248201529192506001600160a01b0316906313c34b7f90604401602060405180830381865afa158015613e23573d6000803e3d6000fd5b505050506040513d601f19601f82011682018060405250810190613e479190614e50565b915081600003613e7b576000613e5e611e216122f6565b905060008111613e755766071afd498d0000613e77565b805b9250505b81471015613ec65760405162461bcd60e51b8152602060048201526018602482015277496e73756666696369656e74204554482062616c616e636560401b6044820152606401610de2565b600054604051634e7e02c760e11b81526001600160a01b03821691639cfc058e918591613f1e9163ffffffff600160a01b830481169261ffff600160c01b82041692600160d01b909104909116908890600401614f6a565b60206040518083038185885af1158015613f3c573d6000803e3d6000fd5b50505050506040513d601f19601f82011682018060405250810190613f619190614e50565b9250509091565b6001600160a01b0381166000908152600a60205260409020546001148015613fc557506001600160a01b038116600090815260136020526040908190209051613fb090614fa7565b9081526040519081900360200190205460ff16155b15614067576001600160a01b03811660009081526013602052604090819020905160019190613ff390614fa7565b9081526040805160209281900383018120805460ff1916941515949094179093556060808452600a90840152693334b939ba2fb9b834b760b11b608084015260019183019190915242908201526001600160a01b038216906000805160206151818339815191529060a00160405180910390a25b6001600160a01b0381166000908152600a602052604090205460641480156140c457506001600160a01b0381166000908152601360205260409081902090516140af90614fbd565b9081526040519081900360200190205460ff16155b15614165576001600160a01b038116600090815260136020526040908190209051600191906140f290614fbd565b9081526040805160209281900383018120805460ff1916941515949094179093556060808452600990840152683130305f7370696e7360b81b608084015260649183019190915242908201526001600160a01b038216906000805160206151818339815191529060a00160405180910390a25b6001600160a01b0381166000908152600a60205260409020546103e81480156141c357506001600160a01b0381166000908152601360205260409081902090516141ae90614fd2565b9081526040519081900360200190205460ff16155b15614266576001600160a01b038116600090815260136020526040908190209051600191906141f190614fd2565b9081526040805160209281900383018120805460ff1916941515949094179093556060808452600a9084015269313030305f7370696e7360b01b60808401526103e89183019190915242908201526001600160a01b038216906000805160206151818339815191529060a00160405180910390a25b6001600160a01b0381166000908152600c6020526040902054683635c9adc5dea00000118015906142cc57506001600160a01b0381166000908152601360205260409081902090516142b790614fe8565b9081526040519081900360200190205460ff16155b1561437d576001600160a01b038116600090815260136020526040908190209051600191906142fa90614fe8565b9081526040805160209281900383018120805460ff1916941515949094179093556001600160a01b0384166000818152600c808552908390205460608087528601919091526b7768616c655f73746174757360a01b6080860152928401929092524290830152906000805160206151818339815191529060a00160405180910390a25b6001600160a01b0381166000908152600b6020526040902054158015906143d957506001600160a01b0381166000908152601360205260409081902090516143c490615000565b9081526040519081900360200190205460ff16155b15611d32576001600160a01b0381166000908152601360205260409081902090516001919061440790615000565b9081526040805160209281900383018120805460ff1916941515949094179093556001600160a01b0384166000818152600b8452829020546060808652600990860152683334b939ba2fbbb4b760b91b6080860152928401929092524290830152906000805160206151818339815191529060a00160405180910390a250565b61448f614646565b61122a57604051631afcd79f60e31b815260040160405180910390fd5b6144b4614487565b60006144be6122c0565b9050600381016144ce8482615065565b50600481016129a58382615065565b61339d614487565b61203a614487565b806001600160a01b03163b60000361451a5780604051634c9c8ce360e01b8152600401610de29190614af1565b60008051602061514183398151915280546001600160a01b0319166001600160a01b0392909216919091179055565b6060600080846001600160a01b0316846040516145669190615124565b600060405180830381855af49150503d80600081146145a1576040519150601f19603f3d011682016040523d82523d6000602084013e6145a6565b606091505b50915091506135df858383614660565b341561122a5760405163b398979f60e01b815260040160405180910390fd5b60607f92fd13387c7fe7befbc38d303d6468778fb9731bc4583f17d92989c6fcfdeaaa8260405160240161460e91511515815260200190565b60408051601f198184030181529190526020810180516001600160e01b03166001600160e01b03199093169290921790915292915050565b60006146506135e8565b54600160401b900460ff16919050565b60608261467557614670826146b3565b610fa5565b815115801561468c57506001600160a01b0384163b155b156146ac5783604051639996b31560e01b8152600401610de29190614af1565b5080610fa5565b8051156146c35780518082602001fd5b60405163d6bda27560e01b815260040160405180910390fd5b828054828255906000526020600020908101928215614717579160200282015b828111156147175782518255916020019190600101906146fc565b50614723929150614727565b5090565b5b808211156147235760008155600101614728565b634e487b7160e01b600052601160045260246000fd5b80820180821115610da657610da661473c565b80356001600160a01b038116811461157257600080fd5b60006020828403121561478e57600080fd5b610fa582614765565b60005b838110156147b257818101518382015260200161479a565b50506000910152565b600081518084526147d3816020860160208601614797565b601f01601f19169290920160200192915050565b602081526000610fa560208301846147bb565b6000806040838503121561480d57600080fd5b61481683614765565b946020939093013593505050565b60006020828403121561483657600080fd5b813560ff81168114610fa557600080fd5b634e487b7160e01b600052604160045260246000fd5b604051601f8201601f191681016001600160401b038111828210171561488557614885614847565b604052919050565b600080604083850312156148a057600080fd5b823591506020808401356001600160401b03808211156148bf57600080fd5b818601915086601f8301126148d357600080fd5b8135818111156148e5576148e5614847565b8060051b91506148f684830161485d565b818152918301840191848101908984111561491057600080fd5b938501935b8385101561492e57843582529385019390850190614915565b8096505050505050509250929050565b60008060006060848603121561495357600080fd5b61495c84614765565b925061496a60208501614765565b9150604084013590509250925092565b60006020828403121561498c57600080fd5b5035919050565b60006001600160401b038311156149ac576149ac614847565b6149bf601f8401601f191660200161485d565b90508281528383830111156149d357600080fd5b828260208301376000602084830101529392505050565b600080604083850312156149fd57600080fd5b614a0683614765565b915060208301356001600160401b03811115614a2157600080fd5b8301601f81018513614a3257600080fd5b614a4185823560208401614993565b9150509250929050565b60008060408385031215614a5e57600080fd5b50508035926020909101359150565b634e487b7160e01b600052602160045260246000fd5b60088110614aa157634e487b7160e01b600052602160045260246000fd5b9052565b6001600160a01b038816815260ff87166020820152851515604082015260e08101614ad36060830187614a83565b8460808301528360a08301528260c083015298975050505050505050565b6001600160a01b0391909116815260200190565b60008151808452602080850194506020840160005b83811015614b3657815187529582019590820190600101614b1a565b509495945050505050565b602081526000610fa56020830184614b05565b9283526020830191909152604082015260600190565b803563ffffffff8116811461157257600080fd5b600080600080600060a08688031215614b9657600080fd5b614b9f86614b6a565b9450602086013561ffff81168114614bb657600080fd5b9350614bc460408701614b6a565b94979396509394606081013594506080013592915050565b60008060408385031215614bef57600080fd5b614bf883614765565b9150614c0660208401614765565b90509250929050565b60008060008060808587031215614c2557600080fd5b614c2e85614765565b9350614c3c60208601614765565b9250614c4a60408601614765565b9150614c5860608601614765565b905092959194509250565b600181811c90821680614c7757607f821691505b602082108103614c9757634e487b7160e01b600052602260045260246000fd5b50919050565b602080825260129082015271125b9d985b1a59081c99595b0818dbdd5b9d60721b604082015260600190565b8082028115828204841417610da657610da661473c565b634e487b7160e01b600052601260045260246000fd5b600082614d0557614d05614ce0565b500490565b80516001600160501b038116811461157257600080fd5b600080600080600060a08688031215614d3957600080fd5b614d4286614d0a565b9450602086015193506040860151925060608601519150614d6560808701614d0a565b90509295509295909350565b602080825260119082015270496e76616c69642045544820707269636560781b604082015260600190565b81810381811115610da657610da661473c565b60208082526011908201527045544820707269636520746f6f206c6f7760781b604082015260600190565b60208082526012908201527108aa89040e0e4d2c6ca40e8dede40d0d2ced60731b604082015260600190565b6020808252601490820152734554482070726963652064617461207374616c6560601b604082015260600190565b6000600160ff1b8201614e4957614e4961473c565b5060000390565b600060208284031215614e6257600080fd5b5051919050565b634e487b7160e01b600052603260045260246000fd5b60ff85168152608060208201526000614e9b6080830186614b05565b9050614eaa6040830185614a83565b82606083015295945050505050565b6001600160a01b039390931683526020830191909152604082015260600190565b600060018201614eec57614eec61473c565b5060010190565b60ff8181168382160290811690818114614f0f57614f0f61473c565b5092915050565b600082614f2557614f25614ce0565b500690565b600060ff821660ff8103614f4057614f4061473c565b60010192915050565b600060208284031215614f5b57600080fd5b815160088110610fa557600080fd5b600063ffffffff808716835261ffff8616602084015280851660408401525060806060830152614f9d60808301846147bb565b9695505050505050565b693334b939ba2fb9b834b760b11b8152600a0190565b683130305f7370696e7360b81b815260090190565b69313030305f7370696e7360b01b8152600a0190565b6b7768616c655f73746174757360a01b8152600c0190565b683334b939ba2fbbb4b760b91b815260090190565b601f8211156122f1576000816000526020600020601f850160051c8101602086101561503e5750805b601f850160051c820191505b8181101561505d5782815560010161504a565b505050505050565b81516001600160401b0381111561507e5761507e614847565b6150928161508c8454614c63565b84615015565b602080601f8311600181146150c757600084156150af5750858301515b600019600386901b1c1916600185901b17855561505d565b600085815260208120601f198616915b828110156150f6578886015182559484019460019091019084016150d7565b50858210156151145787850151600019600388901b60f8161c191681555b5050505050600190811b01905550565b60008251615136818460208701614797565b919091019291505056fe360894a13ba1a3210667c828492db98dca3e2076cc3735a920a3ca505d382bbc1a1389237a7aab7783accd2cb962fca4a343d1794954b603a20d9be55ff69adb50f66c2b0d21b0bac8d42daf64d123def2f17876c2acb08ea966c2e3f8034c5e5b3cd382464e02d28b502e54e122b312ceb537090aef1f355717ffc3126bfea5a26469706673582212204d296fb6ad5da30332c2e4e1b8f161c358ab3a853d55e663b3ba8d1ad34b28b664736f6c63430008160033",
  "linkReferences": {},
  "deployedLinkReferences": {}
}