{
  "_format": "hh-sol-artifact-1",
  "contractName": "CasinoSlot",
  "sourceName": "contracts/CasinoSlot.sol",
  "abi": [
    {
      "inputs": [],
      "stateMutability": "nonpayable",
      "type": "constructor"
    },
    {
      "inputs": [
        {
          "internalType": "address",
          "name": "target",
          "type": "address"
        }
      ],
      "name": "AddressEmptyCode",
      "type": "error"
    },
    {
      "inputs": [
        {
          "internalType": "address",
          "name": "implementation",
          "type": "address"
        }
      ],
      "name": "ERC1967InvalidImplementation",
      "type": "error"
    },
    {
      "inputs": [],
      "name": "ERC1967NonPayable",
      "type": "error"
    },
    {
      "inputs": [
        {
          "internalType": "address",
          "name": "spender",
          "type": "address"
        },
        {
          "internalType": "uint256",
          "name": "allowance",
          "type": "uint256"
        },
        {
          "internalType": "uint256",
          "name": "needed",
          "type": "uint256"
        }
      ],
      "name": "ERC20InsufficientAllowance",
      "type": "error"
    },
    {
      "inputs": [
        {
          "internalType": "address",
          "name": "sender",
          "type": "address"
        },
        {
          "internalType": "uint256",
          "name": "balance",
          "type": "uint256"
        },
        {
          "internalType": "uint256",
          "name": "needed",
          "type": "uint256"
        }
      ],
      "name": "ERC20InsufficientBalance",
      "type": "error"
    },
    {
      "inputs": [
        {
          "internalType": "address",
          "name": "approver",
          "type": "address"
        }
      ],
      "name": "ERC20InvalidApprover",
      "type": "error"
    },
    {
      "inputs": [
        {
          "internalType": "address",
          "name": "receiver",
          "type": "address"
        }
      ],
      "name": "ERC20InvalidReceiver",
      "type": "error"
    },
    {
      "inputs": [
        {
          "internalType": "address",
          "name": "sender",
          "type": "address"
        }
      ],
      "name": "ERC20InvalidSender",
      "type": "error"
    },
    {
      "inputs": [
        {
          "internalType": "address",
          "name": "spender",
          "type": "address"
        }
      ],
      "name": "ERC20InvalidSpender",
      "type": "error"
    },
    {
      "inputs": [],
      "name": "EnforcedPause",
      "type": "error"
    },
    {
      "inputs": [],
      "name": "ExpectedPause",
      "type": "error"
    },
    {
      "inputs": [],
      "name": "FailedCall",
      "type": "error"
    },
    {
      "inputs": [],
      "name": "InvalidInitialization",
      "type": "error"
    },
    {
      "inputs": [],
      "name": "NotInitializing",
      "type": "error"
    },
    {
      "inputs": [
        {
          "internalType": "address",
          "name": "owner",
          "type": "address"
        }
      ],
      "name": "OwnableInvalidOwner",
      "type": "error"
    },
    {
      "inputs": [
        {
          "internalType": "address",
          "name": "account",
          "type": "address"
        }
      ],
      "name": "OwnableUnauthorizedAccount",
      "type": "error"
    },
    {
      "inputs": [],
      "name": "ReentrancyGuardReentrantCall",
      "type": "error"
    },
    {
      "inputs": [],
      "name": "UUPSUnauthorizedCallContext",
      "type": "error"
    },
    {
      "inputs": [
        {
          "internalType": "bytes32",
          "name": "slot",
          "type": "bytes32"
        }
      ],
      "name": "UUPSUnsupportedProxiableUUID",
      "type": "error"
    },
    {
      "anonymous": false,
      "inputs": [
        {
          "indexed": true,
          "internalType": "address",
          "name": "owner",
          "type": "address"
        },
        {
          "indexed": true,
          "internalType": "address",
          "name": "spender",
          "type": "address"
        },
        {
          "indexed": false,
          "internalType": "uint256",
          "name": "value",
          "type": "uint256"
        }
      ],
      "name": "Approval",
      "type": "event"
    },
    {
      "anonymous": false,
      "inputs": [
        {
          "indexed": true,
          "internalType": "address",
          "name": "player",
          "type": "address"
        },
        {
          "indexed": false,
          "internalType": "uint256",
          "name": "ethAmount",
          "type": "uint256"
        },
        {
          "indexed": false,
          "internalType": "uint256",
          "name": "chipsAmount",
          "type": "uint256"
        }
      ],
      "name": "ChipsPurchased",
      "type": "event"
    },
    {
      "anonymous": false,
      "inputs": [
        {
          "indexed": false,
          "internalType": "uint64",
          "name": "version",
          "type": "uint64"
        }
      ],
      "name": "Initialized",
      "type": "event"
    },
    {
      "anonymous": false,
      "inputs": [
        {
          "indexed": true,
          "internalType": "address",
          "name": "previousOwner",
          "type": "address"
        },
        {
          "indexed": true,
          "internalType": "address",
          "name": "newOwner",
          "type": "address"
        }
      ],
      "name": "OwnershipTransferred",
      "type": "event"
    },
    {
      "anonymous": false,
      "inputs": [
        {
          "indexed": false,
          "internalType": "address",
          "name": "account",
          "type": "address"
        }
      ],
      "name": "Paused",
      "type": "event"
    },
    {
      "anonymous": false,
      "inputs": [
        {
          "indexed": true,
          "internalType": "address",
          "name": "newPayoutTables",
          "type": "address"
        }
      ],
      "name": "PayoutTablesUpdated",
      "type": "event"
    },
    {
      "anonymous": false,
      "inputs": [
        {
          "indexed": false,
          "internalType": "uint256",
          "name": "newTotal",
          "type": "uint256"
        }
      ],
      "name": "PrizePoolUpdated",
      "type": "event"
    },
    {
      "anonymous": false,
      "inputs": [
        {
          "indexed": true,
          "internalType": "uint256",
          "name": "requestId",
          "type": "uint256"
        },
        {
          "indexed": true,
          "internalType": "address",
          "name": "player",
          "type": "address"
        },
        {
          "indexed": false,
          "internalType": "uint8",
          "name": "reelCount",
          "type": "uint8"
        },
        {
          "indexed": false,
          "internalType": "uint256",
          "name": "betAmount",
          "type": "uint256"
        }
      ],
      "name": "SpinRequested",
      "type": "event"
    },
    {
      "anonymous": false,
      "inputs": [
        {
          "indexed": true,
          "internalType": "uint256",
          "name": "requestId",
          "type": "uint256"
        },
        {
          "indexed": true,
          "internalType": "address",
          "name": "player",
          "type": "address"
        },
        {
          "indexed": false,
          "internalType": "uint8",
          "name": "reelCount",
          "type": "uint8"
        },
        {
          "indexed": false,
          "internalType": "uint256[]",
          "name": "reels",
          "type": "uint256[]"
        },
        {
          "indexed": false,
          "internalType": "enum CasinoSlot.PayoutType",
          "name": "payoutType",
          "type": "uint8"
        },
        {
          "indexed": false,
          "internalType": "uint256",
          "name": "payout",
          "type": "uint256"
        }
      ],
      "name": "SpinResult",
      "type": "event"
    },
    {
      "anonymous": false,
      "inputs": [
        {
          "indexed": true,
          "internalType": "address",
          "name": "from",
          "type": "address"
        },
        {
          "indexed": true,
          "internalType": "address",
          "name": "to",
          "type": "address"
        },
        {
          "indexed": false,
          "internalType": "uint256",
          "name": "value",
          "type": "uint256"
        }
      ],
      "name": "Transfer",
      "type": "event"
    },
    {
      "anonymous": false,
      "inputs": [
        {
          "indexed": false,
          "internalType": "address",
          "name": "account",
          "type": "address"
        }
      ],
      "name": "Unpaused",
      "type": "event"
    },
    {
      "anonymous": false,
      "inputs": [
        {
          "indexed": true,
          "internalType": "address",
          "name": "implementation",
          "type": "address"
        }
      ],
      "name": "Upgraded",
      "type": "event"
    },
    {
      "anonymous": false,
      "inputs": [
        {
          "indexed": true,
          "internalType": "address",
          "name": "player",
          "type": "address"
        },
        {
          "indexed": false,
          "internalType": "uint256",
          "name": "amount",
          "type": "uint256"
        }
      ],
      "name": "WinningsWithdrawn",
      "type": "event"
    },
    {
      "inputs": [],
      "name": "COORDINATOR",
      "outputs": [
        {
          "internalType": "contract VRFCoordinatorV2Interface",
          "name": "",
          "type": "address"
        }
      ],
      "stateMutability": "view",
      "type": "function"
    },
    {
      "inputs": [],
      "name": "COST_3_REELS",
      "outputs": [
        {
          "internalType": "uint256",
          "name": "",
          "type": "uint256"
        }
      ],
      "stateMutability": "view",
      "type": "function"
    },
    {
      "inputs": [],
      "name": "COST_4_REELS",
      "outputs": [
        {
          "internalType": "uint256",
          "name": "",
          "type": "uint256"
        }
      ],
      "stateMutability": "view",
      "type": "function"
    },
    {
      "inputs": [],
      "name": "COST_5_REELS",
      "outputs": [
        {
          "internalType": "uint256",
          "name": "",
          "type": "uint256"
        }
      ],
      "stateMutability": "view",
      "type": "function"
    },
    {
      "inputs": [],
      "name": "COST_6_REELS",
      "outputs": [
        {
          "internalType": "uint256",
          "name": "",
          "type": "uint256"
        }
      ],
      "stateMutability": "view",
      "type": "function"
    },
    {
      "inputs": [],
      "name": "COST_7_REELS",
      "outputs": [
        {
          "internalType": "uint256",
          "name": "",
          "type": "uint256"
        }
      ],
      "stateMutability": "view",
      "type": "function"
    },
    {
      "inputs": [],
      "name": "UPGRADE_INTERFACE_VERSION",
      "outputs": [
        {
          "internalType": "string",
          "name": "",
          "type": "string"
        }
      ],
      "stateMutability": "view",
      "type": "function"
    },
    {
      "inputs": [
        {
          "internalType": "address",
          "name": "owner",
          "type": "address"
        },
        {
          "internalType": "address",
          "name": "spender",
          "type": "address"
        }
      ],
      "name": "allowance",
      "outputs": [
        {
          "internalType": "uint256",
          "name": "",
          "type": "uint256"
        }
      ],
      "stateMutability": "view",
      "type": "function"
    },
    {
      "inputs": [
        {
          "internalType": "address",
          "name": "spender",
          "type": "address"
        },
        {
          "internalType": "uint256",
          "name": "value",
          "type": "uint256"
        }
      ],
      "name": "approve",
      "outputs": [
        {
          "internalType": "bool",
          "name": "",
          "type": "bool"
        }
      ],
      "stateMutability": "nonpayable",
      "type": "function"
    },
    {
      "inputs": [
        {
          "internalType": "address",
          "name": "account",
          "type": "address"
        }
      ],
      "name": "balanceOf",
      "outputs": [
        {
          "internalType": "uint256",
          "name": "",
          "type": "uint256"
        }
      ],
      "stateMutability": "view",
      "type": "function"
    },
    {
      "inputs": [],
      "name": "buyChips",
      "outputs": [],
      "stateMutability": "payable",
      "type": "function"
    },
    {
      "inputs": [
        {
          "internalType": "uint256",
          "name": "ethAmount",
          "type": "uint256"
        }
      ],
      "name": "calculateChipsFromETH",
      "outputs": [
        {
          "internalType": "uint256",
          "name": "",
          "type": "uint256"
        }
      ],
      "stateMutability": "view",
      "type": "function"
    },
    {
      "inputs": [],
      "name": "callbackGasLimit",
      "outputs": [
        {
          "internalType": "uint32",
          "name": "",
          "type": "uint32"
        }
      ],
      "stateMutability": "view",
      "type": "function"
    },
    {
      "inputs": [],
      "name": "decimals",
      "outputs": [
        {
          "internalType": "uint8",
          "name": "",
          "type": "uint8"
        }
      ],
      "stateMutability": "view",
      "type": "function"
    },
    {
      "inputs": [],
      "name": "getGameStats",
      "outputs": [
        {
          "internalType": "uint256",
          "name": "prizePool",
          "type": "uint256"
        },
        {
          "internalType": "uint256",
          "name": "houseEdgePercent",
          "type": "uint256"
        },
        {
          "internalType": "address",
          "name": "payoutTablesAddress",
          "type": "address"
        }
      ],
      "stateMutability": "view",
      "type": "function"
    },
    {
      "inputs": [
        {
          "internalType": "address",
          "name": "player",
          "type": "address"
        }
      ],
      "name": "getPlayerStats",
      "outputs": [
        {
          "internalType": "uint256",
          "name": "balance",
          "type": "uint256"
        },
        {
          "internalType": "uint256",
          "name": "winnings",
          "type": "uint256"
        },
        {
          "internalType": "uint256",
          "name": "spinsCount",
          "type": "uint256"
        },
        {
          "internalType": "uint256",
          "name": "totalWinnings",
          "type": "uint256"
        }
      ],
      "stateMutability": "view",
      "type": "function"
    },
    {
      "inputs": [],
      "name": "getPoolStats",
      "outputs": [
        {
          "internalType": "uint256",
          "name": "totalETH",
          "type": "uint256"
        },
        {
          "internalType": "uint256",
          "name": "chipPrice",
          "type": "uint256"
        },
        {
          "internalType": "uint256",
          "name": "ethPrice",
          "type": "uint256"
        }
      ],
      "stateMutability": "view",
      "type": "function"
    },
    {
      "inputs": [
        {
          "internalType": "uint8",
          "name": "reelCount",
          "type": "uint8"
        }
      ],
      "name": "getSpinCost",
      "outputs": [
        {
          "internalType": "uint256",
          "name": "",
          "type": "uint256"
        }
      ],
      "stateMutability": "pure",
      "type": "function"
    },
    {
      "inputs": [
        {
          "internalType": "uint256",
          "name": "requestId",
          "type": "uint256"
        }
      ],
      "name": "getSpinReels",
      "outputs": [
        {
          "internalType": "uint256[]",
          "name": "",
          "type": "uint256[]"
        }
      ],
      "stateMutability": "view",
      "type": "function"
    },
    {
      "inputs": [],
      "name": "houseEdge",
      "outputs": [
        {
          "internalType": "uint256",
          "name": "",
          "type": "uint256"
        }
      ],
      "stateMutability": "view",
      "type": "function"
    },
    {
      "inputs": [
        {
          "internalType": "uint64",
          "name": "subscriptionId",
          "type": "uint64"
        },
        {
          "internalType": "address",
          "name": "ethUsdPriceFeedAddress",
          "type": "address"
        },
        {
          "internalType": "address",
          "name": "payoutTablesAddress",
          "type": "address"
        },
        {
          "internalType": "address",
          "name": "vrfCoordinatorAddress",
          "type": "address"
        },
        {
          "internalType": "bytes32",
          "name": "vrfKeyHash",
          "type": "bytes32"
        },
        {
          "internalType": "address",
          "name": "initialOwner",
          "type": "address"
        }
      ],
      "name": "initialize",
      "outputs": [],
      "stateMutability": "nonpayable",
      "type": "function"
    },
    {
      "inputs": [],
      "name": "keyHash",
      "outputs": [
        {
          "internalType": "bytes32",
          "name": "",
          "type": "bytes32"
        }
      ],
      "stateMutability": "view",
      "type": "function"
    },
    {
      "inputs": [],
      "name": "name",
      "outputs": [
        {
          "internalType": "string",
          "name": "",
          "type": "string"
        }
      ],
      "stateMutability": "view",
      "type": "function"
    },
    {
      "inputs": [],
      "name": "numWords",
      "outputs": [
        {
          "internalType": "uint32",
          "name": "",
          "type": "uint32"
        }
      ],
      "stateMutability": "view",
      "type": "function"
    },
    {
      "inputs": [],
      "name": "owner",
      "outputs": [
        {
          "internalType": "address",
          "name": "",
          "type": "address"
        }
      ],
      "stateMutability": "view",
      "type": "function"
    },
    {
      "inputs": [],
      "name": "pause",
      "outputs": [],
      "stateMutability": "nonpayable",
      "type": "function"
    },
    {
      "inputs": [],
      "name": "paused",
      "outputs": [
        {
          "internalType": "bool",
          "name": "",
          "type": "bool"
        }
      ],
      "stateMutability": "view",
      "type": "function"
    },
    {
      "inputs": [],
      "name": "payoutTables",
      "outputs": [
        {
          "internalType": "contract IPayoutTables",
          "name": "",
          "type": "address"
        }
      ],
      "stateMutability": "view",
      "type": "function"
    },
    {
      "inputs": [
        {
          "internalType": "address",
          "name": "",
          "type": "address"
        }
      ],
      "name": "playerWinnings",
      "outputs": [
        {
          "internalType": "uint256",
          "name": "",
          "type": "uint256"
        }
      ],
      "stateMutability": "view",
      "type": "function"
    },
    {
      "inputs": [],
      "name": "proxiableUUID",
      "outputs": [
        {
          "internalType": "bytes32",
          "name": "",
          "type": "bytes32"
        }
      ],
      "stateMutability": "view",
      "type": "function"
    },
    {
      "inputs": [
        {
          "internalType": "uint256",
          "name": "requestId",
          "type": "uint256"
        },
        {
          "internalType": "uint256[]",
          "name": "randomWords",
          "type": "uint256[]"
        }
      ],
      "name": "rawFulfillRandomWords",
      "outputs": [],
      "stateMutability": "nonpayable",
      "type": "function"
    },
    {
      "inputs": [],
      "name": "renounceOwnership",
      "outputs": [],
      "stateMutability": "nonpayable",
      "type": "function"
    },
    {
      "inputs": [],
      "name": "requestConfirmations",
      "outputs": [
        {
          "internalType": "uint16",
          "name": "",
          "type": "uint16"
        }
      ],
      "stateMutability": "view",
      "type": "function"
    },
    {
      "inputs": [],
      "name": "s_subscriptionId",
      "outputs": [
        {
          "internalType": "uint64",
          "name": "",
          "type": "uint64"
        }
      ],
      "stateMutability": "view",
      "type": "function"
    },
    {
      "inputs": [],
      "name": "spin3Reels",
      "outputs": [
        {
          "internalType": "uint256",
          "name": "requestId",
          "type": "uint256"
        }
      ],
      "stateMutability": "nonpayable",
      "type": "function"
    },
    {
      "inputs": [],
      "name": "spin4Reels",
      "outputs": [
        {
          "internalType": "uint256",
          "name": "requestId",
          "type": "uint256"
        }
      ],
      "stateMutability": "nonpayable",
      "type": "function"
    },
    {
      "inputs": [],
      "name": "spin5Reels",
      "outputs": [
        {
          "internalType": "uint256",
          "name": "requestId",
          "type": "uint256"
        }
      ],
      "stateMutability": "nonpayable",
      "type": "function"
    },
    {
      "inputs": [],
      "name": "spin6Reels",
      "outputs": [
        {
          "internalType": "uint256",
          "name": "requestId",
          "type": "uint256"
        }
      ],
      "stateMutability": "nonpayable",
      "type": "function"
    },
    {
      "inputs": [],
      "name": "spin7Reels",
      "outputs": [
        {
          "internalType": "uint256",
          "name": "requestId",
          "type": "uint256"
        }
      ],
      "stateMutability": "nonpayable",
      "type": "function"
    },
    {
      "inputs": [
        {
          "internalType": "uint256",
          "name": "",
          "type": "uint256"
        }
      ],
      "name": "spins",
      "outputs": [
        {
          "internalType": "address",
          "name": "player",
          "type": "address"
        },
        {
          "internalType": "uint256",
          "name": "betAmount",
          "type": "uint256"
        },
        {
          "internalType": "uint8",
          "name": "reelCount",
          "type": "uint8"
        },
        {
          "internalType": "enum CasinoSlot.PayoutType",
          "name": "payoutType",
          "type": "uint8"
        },
        {
          "internalType": "uint256",
          "name": "payout",
          "type": "uint256"
        },
        {
          "internalType": "bool",
          "name": "settled",
          "type": "bool"
        },
        {
          "internalType": "uint256",
          "name": "timestamp",
          "type": "uint256"
        }
      ],
      "stateMutability": "view",
      "type": "function"
    },
    {
      "inputs": [],
      "name": "symbol",
      "outputs": [
        {
          "internalType": "string",
          "name": "",
          "type": "string"
        }
      ],
      "stateMutability": "view",
      "type": "function"
    },
    {
      "inputs": [],
      "name": "totalPrizePool",
      "outputs": [
        {
          "internalType": "uint256",
          "name": "",
          "type": "uint256"
        }
      ],
      "stateMutability": "view",
      "type": "function"
    },
    {
      "inputs": [
        {
          "internalType": "address",
          "name": "",
          "type": "address"
        }
      ],
      "name": "totalSpins",
      "outputs": [
        {
          "internalType": "uint256",
          "name": "",
          "type": "uint256"
        }
      ],
      "stateMutability": "view",
      "type": "function"
    },
    {
      "inputs": [],
      "name": "totalSupply",
      "outputs": [
        {
          "internalType": "uint256",
          "name": "",
          "type": "uint256"
        }
      ],
      "stateMutability": "view",
      "type": "function"
    },
    {
      "inputs": [
        {
          "internalType": "address",
          "name": "",
          "type": "address"
        }
      ],
      "name": "totalWon",
      "outputs": [
        {
          "internalType": "uint256",
          "name": "",
          "type": "uint256"
        }
      ],
      "stateMutability": "view",
      "type": "function"
    },
    {
      "inputs": [
        {
          "internalType": "address",
          "name": "to",
          "type": "address"
        },
        {
          "internalType": "uint256",
          "name": "value",
          "type": "uint256"
        }
      ],
      "name": "transfer",
      "outputs": [
        {
          "internalType": "bool",
          "name": "",
          "type": "bool"
        }
      ],
      "stateMutability": "nonpayable",
      "type": "function"
    },
    {
      "inputs": [
        {
          "internalType": "address",
          "name": "from",
          "type": "address"
        },
        {
          "internalType": "address",
          "name": "to",
          "type": "address"
        },
        {
          "internalType": "uint256",
          "name": "value",
          "type": "uint256"
        }
      ],
      "name": "transferFrom",
      "outputs": [
        {
          "internalType": "bool",
          "name": "",
          "type": "bool"
        }
      ],
      "stateMutability": "nonpayable",
      "type": "function"
    },
    {
      "inputs": [
        {
          "internalType": "address",
          "name": "newOwner",
          "type": "address"
        }
      ],
      "name": "transferOwnership",
      "outputs": [],
      "stateMutability": "nonpayable",
      "type": "function"
    },
    {
      "inputs": [],
      "name": "unpause",
      "outputs": [],
      "stateMutability": "nonpayable",
      "type": "function"
    },
    {
      "inputs": [
        {
          "internalType": "address",
          "name": "newPayoutTables",
          "type": "address"
        }
      ],
      "name": "updatePayoutTables",
      "outputs": [],
      "stateMutability": "nonpayable",
      "type": "function"
    },
    {
      "inputs": [
        {
          "internalType": "address",
          "name": "newImplementation",
          "type": "address"
        },
        {
          "internalType": "bytes",
          "name": "data",
          "type": "bytes"
        }
      ],
      "name": "upgradeToAndCall",
      "outputs": [],
      "stateMutability": "payable",
      "type": "function"
    },
    {
      "inputs": [
        {
          "internalType": "uint256",
          "name": "amount",
          "type": "uint256"
        }
      ],
      "name": "withdrawETH",
      "outputs": [],
      "stateMutability": "nonpayable",
      "type": "function"
    },
    {
      "inputs": [],
      "name": "withdrawWinnings",
      "outputs": [],
      "stateMutability": "nonpayable",
      "type": "function"
    },
    {
      "stateMutability": "payable",
      "type": "receive"
    }
  ],
  "bytecode": "0x60a0604052306080523480156200001557600080fd5b506200002062000026565b620000da565b7ff0c57e16840df040f15088dc2f81fe391c3923bec73e23a9662efc9c229c6a00805468010000000000000000900460ff1615620000775760405163f92ee8a960e01b815260040160405180910390fd5b80546001600160401b0390811614620000d75780546001600160401b0319166001600160401b0390811782556040519081527fc7f505b2f371ae2175ee4913f4499e1f2633a7b5936321eed1cdaeb6115181d29060200160405180910390a15b50565b6080516131c16200010460003960008181611e5001528181611e790152611fb101526131c16000f3fe60806040526004361061026e5760003560e01c806370a082311161014b57806370a082311461062f578063715018a61461064f5780637ccfd7fc146106645780637d588581146106885780638315c2641461069d5780638456cb591461071a5780638ac000211461072f5780638da5cb5b1461076e57806395d89b41146107835780639b65a788146107985780639c3930ad146107c55780639e2bf67d146107cd578063a9059cbb146107ed578063ad3cb1cc1461080d578063b0fb162f1461083e578063b5f4a03014610873578063b6eaa6eb14610890578063bbb85188146108ac578063c292f6b7146108dc578063cb89b73f14610903578063cc42e83a14610920578063d667dcd714610935578063d7a999bb1461094b578063dd62ed3e14610960578063f0e3fff814610980578063f14210a6146109ad578063f2fde38b146109cd57600080fd5b806306ceee52146102c757806306fdde03146102ef578063095ea7b3146103115780630d054af414610341578063138a74201461036e57806318160ddd1461038e5780631aff30dd146103a35780631e8b0000146103e45780631fe543e31461040657806323b872dd1461042657806324f7469714610446578063252f4d8114610478578063283389bb146104a557806329774e3d146104c557806329a3d921146104da578063313ce567146104f6578063398ab9a7146105125780633a3e4011146105285780633b2bcbf1146105455780633f4ba83a146105725780634f1ef286146105875780634fd66eae1461059a57806352d1902d146105da578063571ae5a0146105ef5780635c975abb1461060457806361728f391461061957600080fd5b366102c25734600460008282546102859190612992565b90915550506004546040519081527f7bc22304ac771f50d6cc29b56387cb4855f284e7a1f83e6420fe9b8bbdaf45c99060200160405180910390a1005b600080fd5b3480156102d357600080fd5b506102dc6109ed565b6040519081526020015b60405180910390f35b3480156102fb57600080fd5b50610304610a1f565b6040516102e691906129c9565b34801561031d57600080fd5b5061033161032c366004612a18565b610ac0565b60405190151581526020016102e6565b34801561034d57600080fd5b506102dc61035c366004612a42565b60086020526000908152604090205481565b34801561037a57600080fd5b506102dc610389366004612a5d565b610ada565b34801561039a57600080fd5b506102dc610b82565b3480156103af57600080fd5b50600454600554600254604080519384526020840192909252600160501b90046001600160a01b0316908201526060016102e6565b3480156103f057600080fd5b506104046103ff366004612a42565b610b97565b005b34801561041257600080fd5b50610404610421366004612ac6565b610c3d565b34801561043257600080fd5b50610331610441366004612b77565b610ca5565b34801561045257600080fd5b506002546104639063ffffffff1681565b60405163ffffffff90911681526020016102e6565b34801561048457600080fd5b506102dc610493366004612a42565b60076020526000908152604090205481565b3480156104b157600080fd5b506102dc6104c0366004612bb3565b610ccb565b3480156104d157600080fd5b506102dc610f91565b3480156104e657600080fd5b506102dc670de0b6b3a764000081565b34801561050257600080fd5b50604051601281526020016102e6565b34801561051e57600080fd5b506102dc60045481565b34801561053457600080fd5b506102dc683635c9adc5dea0000081565b34801561055157600080fd5b50600054610565906001600160a01b031681565b6040516102e69190612bcc565b34801561057e57600080fd5b50610404610fb7565b610404610595366004612be0565b610fc9565b3480156105a657600080fd5b506105ba6105b5366004612a42565b610fe4565b6040805194855260208501939093529183015260608201526080016102e6565b3480156105e657600080fd5b506102dc61102f565b3480156105fb57600080fd5b506102dc61104c565b34801561061057600080fd5b50610331611072565b34801561062557600080fd5b506102dc60015481565b34801561063b57600080fd5b506102dc61064a366004612a42565b611087565b34801561065b57600080fd5b506104046110b2565b34801561067057600080fd5b5060025461046390600160301b900463ffffffff1681565b34801561069457600080fd5b506102dc6110c4565b3480156106a957600080fd5b506107076106b8366004612bb3565b600660208190526000918252604090912080546001820154600283015460048401546005850154958501546007909501546001600160a01b0390941695929460ff928316949183169392169087565b6040516102e69796959493929190612cbd565b34801561072657600080fd5b506104046110ea565b34801561073b57600080fd5b5060005461075690600160a01b90046001600160401b031681565b6040516001600160401b0390911681526020016102e6565b34801561077a57600080fd5b506105656110fa565b34801561078f57600080fd5b50610304611115565b3480156107a457600080fd5b506107b86107b3366004612bb3565b611132565b6040516102e69190612d44565b610404611197565b3480156107d957600080fd5b506104046107e8366004612d57565b611252565b3480156107f957600080fd5b50610331610808366004612a18565b61145f565b34801561081957600080fd5b50610304604051806040016040528060058152602001640352e302e360dc1b81525081565b34801561084a57600080fd5b5060025461086090600160201b900461ffff1681565b60405161ffff90911681526020016102e6565b34801561087f57600080fd5b506102dc681b1ae4d6e2ef50000081565b34801561089c57600080fd5b506102dc678ac7230489e8000081565b3480156108b857600080fd5b506108c161146d565b604080519384526020840192909252908201526060016102e6565b3480156108e857600080fd5b5060025461056590600160501b90046001600160a01b031681565b34801561090f57600080fd5b506102dc68056bc75e2d6310000081565b34801561092c57600080fd5b50610404611506565b34801561094157600080fd5b506102dc60055481565b34801561095757600080fd5b506102dc6115b1565b34801561096c57600080fd5b506102dc61097b366004612dd2565b6115d6565b34801561098c57600080fd5b506102dc61099b366004612a42565b60096020526000908152604090205481565b3480156109b957600080fd5b506104046109c8366004612bb3565b611612565b3480156109d957600080fd5b506104046109e8366004612a42565b6116a1565b60006109f76116df565b6109ff611715565b610a126003670de0b6b3a764000061173b565b9050610a1c611a7f565b90565b60606000610a2b611a90565b9050806003018054610a3c90612e05565b80601f0160208091040260200160405190810160405280929190818152602001828054610a6890612e05565b8015610ab55780601f10610a8a57610100808354040283529160200191610ab5565b820191906000526020600020905b815481529060010190602001808311610a9857829003601f168201915b505050505091505090565b600033610ace818585611ab4565b60019150505b92915050565b60008160ff16600303610af65750670de0b6b3a7640000919050565b8160ff16600403610b105750678ac7230489e80000919050565b8160ff16600503610b2b575068056bc75e2d63100000919050565b8160ff16600603610b465750681b1ae4d6e2ef500000919050565b8160ff16600703610b615750683635c9adc5dea00000919050565b60405162461bcd60e51b8152600401610b7990612e3f565b60405180910390fd5b600080610b8d611a90565b6002015492915050565b610b9f611ac6565b6001600160a01b038116610be75760405162461bcd60e51b815260206004820152600f60248201526e496e76616c6964206164647265737360881b6044820152606401610b79565b60028054600160501b600160f01b031916600160501b6001600160a01b038416908102919091179091556040517f924b685b185ed4d6bb68dfe43a3eae1bbacdcff597754142f449dec6ae56c6c690600090a250565b6000546001600160a01b03163314610c975760405162461bcd60e51b815260206004820152601f60248201527f4f6e6c7920565246436f6f7264696e61746f722063616e2066756c66696c6c006044820152606401610b79565b610ca18282611af8565b5050565b600033610cb3858285611d3b565b610cbe858585611d8f565b60019150505b9392505050565b6000806000600360009054906101000a90046001600160a01b03166001600160a01b031663feaf968c6040518163ffffffff1660e01b815260040160a060405180830381865afa158015610d23573d6000803e3d6000fd5b505050506040513d601f19601f82011682018060405250810190610d479190612e82565b5093505092505060008213610d925760405162461bcd60e51b8152602060048201526011602482015270496e76616c69642045544820707269636560781b6044820152606401610b79565b62015180610da08242612ed2565b1115610de15760405162461bcd60e51b815260206004820152601060248201526f50726963652064617461207374616c6560801b6044820152606401610b79565b64012a05f200821015610e2a5760405162461bcd60e51b815260206004820152601160248201527045544820707269636520746f6f206c6f7760781b6044820152606401610b79565b6509184e72a000821115610e755760405162461bcd60e51b815260206004820152601260248201527108aa89040e0e4d2c6ca40e8dede40d0d2ced60731b6044820152606401610b79565b60008411610ec35760405162461bcd60e51b815260206004820152601b60248201527a45544820616d6f756e74206d75737420626520706f73697469766560281b6044820152606401610b79565b683635c9adc5dea00000841115610f135760405162461bcd60e51b815260206004820152601460248201527345544820616d6f756e7420746f6f206c6172676560601b6044820152606401610b79565b60006305f5e100610f248487612ee5565b610f2f906005612ee5565b610f399190612f12565b905060008111610f895760405162461bcd60e51b815260206004820152601b60248201527a10d85b18dd5b185d195908185b5bdd5b9d081d1bdbc81cdb585b1b602a1b6044820152606401610b79565b949350505050565b6000610f9b6116df565b610fa3611715565b610a126006681b1ae4d6e2ef50000061173b565b610fbf611ac6565b610fc7611dee565b565b610fd1611e45565b610fda82611eea565b610ca18282611ef2565b600080600080610ff385611087565b6001600160a01b039590951660009081526007602090815260408083205460088352818420546009909352922054969791969095509350915050565b6000611039611fa6565b5060008051602061316c83398151915290565b60006110566116df565b61105e611715565b610a126007683635c9adc5dea0000061173b565b60008061107d611fef565b5460ff1692915050565b600080611092611a90565b6001600160a01b0390931660009081526020939093525050604090205490565b6110ba611ac6565b610fc76000612013565b60006110ce6116df565b6110d6611715565b610a12600568056bc75e2d6310000061173b565b6110f2611ac6565b610fc761206f565b6000806111056120b6565b546001600160a01b031692915050565b60606000611121611a90565b9050806004018054610a3c90612e05565b60008181526006602090815260409182902060030180548351818402810184019094528084526060939283018282801561118b57602002820191906000526020600020905b815481526020019060010190808311611177575b50505050509050919050565b61119f6116df565b600034116111df5760405162461bcd60e51b815260206004820152600d60248201526c09aeae6e840e6cadcc8408aa89609b1b6044820152606401610b79565b60006111ea34610ccb565b90506111f633826120da565b34600460008282546112089190612992565b9091555050604080513481526020810183905233917f6a73271893757eff3e2109a31a1f50f0b3cafea2d51a26dc5cfe54ba216b531c91015b60405180910390a250610fc7611a7f565b600061125c612110565b805490915060ff600160401b82041615906001600160401b03166000811580156112835750825b90506000826001600160401b0316600114801561129f5750303b155b9050811580156112ad575080155b156112cb5760405163f92ee8a960e01b815260040160405180910390fd5b845467ffffffffffffffff1916600117855583156112f557845460ff60401b1916600160401b1785555b61134b60405180604001604052806017815260200176436173696e6f536c6f7420436173696e6f20436869707360481b81525060405180604001604052806005815260200164434849505360d81b815250612139565b61135361214b565b61135b612153565b61136361214b565b61136c86612163565b600080546001600160a01b038a81166001600160e01b031990921691909117600160a01b6001600160401b038f160217909155600380546001600160a01b0319168c83161790556002805460018a905562030d4069ffffffffffff00000001600160f01b0319909116600160501b938d169390930263ffffffff1916929092179190911765ffffffffffff60201b19166201000360201b1790556101f4600555831561145257845460ff60401b19168555604051600181527fc7f505b2f371ae2175ee4913f4499e1f2633a7b5936321eed1cdaeb6115181d29060200160405180910390a15b5050505050505050505050565b600033610ace818585611d8f565b60035460408051633fabe5a360e21b8152905147926702c68af0bb1400009260009283926001600160a01b03169163feaf968c9160048083019260a09291908290030181865afa1580156114c5573d6000803e3d6000fd5b505050506040513d601f19601f820116820180604052508101906114e99190612e82565b505050915050620f4240816114fe9190612f12565b915050909192565b61150e6116df565b33600090815260076020526040902054806115655760405162461bcd60e51b81526020600482015260176024820152764e6f2077696e6e696e677320746f20776974686472617760481b6044820152606401610b79565b3360008181526007602052604081205561157f90826120da565b60405181815233907f24215bbaf0832fa4d6ffef16dee3971d8b714921fef3ad63f793d578983c6dc290602001611241565b60006115bb6116df565b6115c3611715565b610a126004678ac7230489e8000061173b565b6000806115e1611a90565b6001600160a01b03948516600090815260019190910160209081526040808320959096168252939093525050205490565b61161a611ac6565b804710156116615760405162461bcd60e51b8152602060048201526014602482015273496e73756666696369656e742062616c616e636560601b6044820152606401610b79565b6116696110fa565b6001600160a01b03166108fc829081150290604051600060405180830381858888f19350505050158015610ca1573d6000803e3d6000fd5b6116a9611ac6565b6001600160a01b0381166116d3576000604051631e4fbdf760e01b8152600401610b799190612bcc565b6116dc81612013565b50565b60006116e9612174565b80549091506001190161170f57604051633ee5aeb560e01b815260040160405180910390fd5b60029055565b61171d611072565b15610fc75760405163d93c066560e01b815260040160405180910390fd5b600060038360ff1610158015611755575060078360ff1611155b6117715760405162461bcd60e51b8152600401610b7990612e3f565b8161177b33611087565b10156117c65760405162461bcd60e51b815260206004820152601a602482015279496e73756666696369656e742043484950532062616c616e636560301b6044820152606401610b79565b6117d03383612198565b6000612710600554846117e39190612ee5565b6117ed9190612f12565b905060006117fb8285612ed2565b9050806004600082825461180f9190612992565b90915550506000546001546002546040516305d3b1d360e41b81526004810192909252600160a01b83046001600160401b03166024830152600160201b810461ffff16604483015263ffffffff8082166064840152600160301b9091041660848201526001600160a01b0390911690635d3b1d309060a4016020604051808303816000875af11580156118a6573d6000803e3d6000fd5b505050506040513d601f19601f820116820180604052508101906118ca9190612f26565b9250604051806101000160405280336001600160a01b031681526020018581526020018660ff1681526020018660ff166001600160401b0381111561191157611911612a80565b60405190808252806020026020018201604052801561193a578160200160208202803683370190505b50815260200160008152600060208083018290526040808401839052426060948501528783526006825291829020845181546001600160a01b0319166001600160a01b039091161781558482015160018201559184015160028301805460ff191660ff90921691909117905591830151805191926119c09260038501929091019061291c565b50608082015160048201805460ff191660018360078111156119e4576119e4612c85565b021790555060a0820151600582015560c082015160068201805460ff191691151591909117905560e090910151600790910155336000908152600860205260408120805491611a3283612f3f565b90915550506040805160ff8716815260208101869052339185917f97b5026890b55e18a72e2920b97aeafd3585f70c5839ca6e37cda79a536a055b910160405180910390a3505092915050565b6000611a89612174565b6001905550565b7f52c63247e1f47db19d5ce0460030c497f067ca4cebf71ba98eeadabe20bace0090565b611ac183838360016121ce565b505050565b33611acf6110fa565b6001600160a01b031614610fc7573360405163118cdaa760e01b8152600401610b799190612bcc565b600082815260066020526040902080546001600160a01b0316611b525760405162461bcd60e51b8152602060048201526012602482015271125b9d985b1a59081c995c5d595cdd08125160721b6044820152606401610b79565b600681015460ff1615611b9e5760405162461bcd60e51b815260206004820152601460248201527314dc1a5b88185b1c9958591e481cd95d1d1b195960621b6044820152606401610b79565b6000611bce83600081518110611bb657611bb6612f58565b6020908102919091010151600284015460ff166122b3565b9050600080611bf38460020160009054906101000a900460ff1684866001015461236d565b84519193509150611c0d906003860190602086019061291c565b5060048401805483919060ff19166001836007811115611c2f57611c2f612c85565b02179055506005840181905560068401805460ff191660011790558015611cde5783546001600160a01b031660009081526007602052604081208054839290611c79908490612992565b909155505083546001600160a01b031660009081526009602052604081208054839290611ca7908490612992565b9091555060079050826007811115611cc157611cc1612c85565b03611cde578060046000828254611cd89190612ed2565b90915550505b835460028501546040516001600160a01b039092169188917f27814f4f47a118b18946fa6d26f1a479df2ec3b6025007c423ab3f96e149f2cc91611d2b9160ff1690889088908890612f6e565b60405180910390a3505050505050565b6000611d4784846115d6565b9050600019811015611d895781811015611d7a57828183604051637dc7a0d960e11b8152600401610b7993929190612fa8565b611d89848484840360006121ce565b50505050565b6001600160a01b038316611db9576000604051634b637e8f60e11b8152600401610b799190612bcc565b6001600160a01b038216611de357600060405163ec442f0560e01b8152600401610b799190612bcc565b611ac183838361258c565b611df66126b4565b6000611e00611fef565b805460ff1916815590507f5db9ee0a495bf2e6ff9c91a7834c1ba4fdd244a5e8aa4e537bd38aeae4b073aa335b604051611e3a9190612bcc565b60405180910390a150565b306001600160a01b037f0000000000000000000000000000000000000000000000000000000000000000161480611ecc57507f00000000000000000000000000000000000000000000000000000000000000006001600160a01b0316611ec060008051602061316c833981519152546001600160a01b031690565b6001600160a01b031614155b15610fc75760405163703e46dd60e11b815260040160405180910390fd5b6116dc611ac6565b816001600160a01b03166352d1902d6040518163ffffffff1660e01b8152600401602060405180830381865afa925050508015611f4c575060408051601f3d908101601f19168201909252611f4991810190612f26565b60015b611f6b5781604051634c9c8ce360e01b8152600401610b799190612bcc565b60008051602061316c8339815191528114611f9c57604051632a87526960e21b815260048101829052602401610b79565b611ac183836126d9565b306001600160a01b037f00000000000000000000000000000000000000000000000000000000000000001614610fc75760405163703e46dd60e11b815260040160405180910390fd5b7fcd5ed15c6e187e77e9aee88184c21f4f2182ab5827cb3b7e07fbedcd63f0330090565b600061201d6120b6565b80546001600160a01b038481166001600160a01b031983168117845560405193945091169182907f8be0079c531659141344cd1fd0a4f28419497f9722a3daafe3b4186f6b6457e090600090a3505050565b612077611715565b6000612081611fef565b805460ff1916600117815590507f62e78cea01bee320cd4e420270b5ea74000d11b0c9f74754ebdbfc544b05a258611e2d3390565b7f9016d09d72d40fdae2fd8ceac6b6234c7706214fd39c1cd1e609a0528c19930090565b6001600160a01b03821661210457600060405163ec442f0560e01b8152600401610b799190612bcc565b610ca16000838361258c565b6000807ff0c57e16840df040f15088dc2f81fe391c3923bec73e23a9662efc9c229c6a00610ad4565b61214161272f565b610ca18282612754565b610fc761272f565b61215b61272f565b610fc7612785565b61216b61272f565b6116dc8161278d565b7f9b779b17422d0df92223018b32b4d1fa46e071723d6817e2486d003becc55f0090565b6001600160a01b0382166121c2576000604051634b637e8f60e11b8152600401610b799190612bcc565b610ca18260008361258c565b60006121d8611a90565b90506001600160a01b03851661220457600060405163e602df0560e01b8152600401610b799190612bcc565b6001600160a01b03841661222e576000604051634a1406b160e11b8152600401610b799190612bcc565b6001600160a01b038086166000908152600183016020908152604080832093881683529290522083905581156122ac57836001600160a01b0316856001600160a01b03167f8c5be1e5ebec7d5bd14f71427d1e84f3dd0314c0f7b2291e5b200ac8c7c3b925856040516122a391815260200190565b60405180910390a35b5050505050565b606060008260ff166001600160401b038111156122d2576122d2612a80565b6040519080825280602002602001820160405280156122fb578160200160208202803683370190505b50905060005b8360ff168160ff161015612365576000600661231e836008612fc9565b60ff1687901c61232e9190612fec565b612339906001612992565b905080838360ff168151811061235157612351612f58565b602090810291909101015250600101612301565b509392505050565b6000806000805b85518160ff1610156123c857858160ff168151811061239557612395612f58565b602002602001015182600a6123aa9190612ee5565b6123b49190612992565b9150806123c081613000565b915050612374565b50600254604051632586114560e21b815260ff8816600482015260248101839052600091600160501b90046001600160a01b031690639618451490604401602060405180830381865afa158015612423573d6000803e3d6000fd5b505050506040513d601f19601f82011682018060405250810190612447919061301f565b9050600081600781111561245d5761245d612c85565b60ff16600781111561247157612471612c85565b90506000600182600781111561248957612489612c85565b036124a057612499876002612ee5565b905061257e565b60028260078111156124b4576124b4612c85565b036124c457612499876005612ee5565b60038260078111156124d8576124d8612c85565b036124e85761249987600a612ee5565b60068260078111156124fc576124fc612c85565b0361250c57612499876014612ee5565b600482600781111561252057612520612c85565b0361253057612499876032612ee5565b600582600781111561254457612544612c85565b0361255457612499876064612ee5565b600782600781111561256857612568612c85565b0361257e576004805461257b9190612f12565b90505b909890975095505050505050565b6000612596611a90565b90506001600160a01b0384166125c557818160020160008282546125ba9190612992565b909155506126249050565b6001600160a01b038416600090815260208290526040902054828110156126055784818460405163391434e360e21b8152600401610b7993929190612fa8565b6001600160a01b03851660009081526020839052604090209083900390555b6001600160a01b038316612642576002810180548390039055612661565b6001600160a01b03831660009081526020829052604090208054830190555b826001600160a01b0316846001600160a01b03167fddf252ad1be2c89b69c2b068fc378daa952ba7f163c4a11628f55a4df523b3ef846040516126a691815260200190565b60405180910390a350505050565b6126bc611072565b610fc757604051638dfc202b60e01b815260040160405180910390fd5b6126e282612795565b6040516001600160a01b038316907fbc7cd75a20ee27fd9adebab32041f755214dbc6bffa90cc0225b39da2e5c2d3b90600090a280511561272757611ac182826127f1565b610ca1612867565b612737612886565b610fc757604051631afcd79f60e31b815260040160405180910390fd5b61275c61272f565b6000612766611a90565b9050600381016127768482613090565b5060048101611d898382613090565b611a7f61272f565b6116a961272f565b806001600160a01b03163b6000036127c25780604051634c9c8ce360e01b8152600401610b799190612bcc565b60008051602061316c83398151915280546001600160a01b0319166001600160a01b0392909216919091179055565b6060600080846001600160a01b03168460405161280e919061314f565b600060405180830381855af49150503d8060008114612849576040519150601f19603f3d011682016040523d82523d6000602084013e61284e565b606091505b509150915061285e8583836128a0565b95945050505050565b3415610fc75760405163b398979f60e01b815260040160405180910390fd5b6000612890612110565b54600160401b900460ff16919050565b6060826128b5576128b0826128f3565b610cc4565b81511580156128cc57506001600160a01b0384163b155b156128ec5783604051639996b31560e01b8152600401610b799190612bcc565b5080610cc4565b8051156129035780518082602001fd5b60405163d6bda27560e01b815260040160405180910390fd5b828054828255906000526020600020908101928215612957579160200282015b8281111561295757825182559160200191906001019061293c565b50612963929150612967565b5090565b5b808211156129635760008155600101612968565b634e487b7160e01b600052601160045260246000fd5b80820180821115610ad457610ad461297c565b60005b838110156129c05781810151838201526020016129a8565b50506000910152565b60208152600082518060208401526129e88160408501602087016129a5565b601f01601f19169190910160400192915050565b80356001600160a01b0381168114612a1357600080fd5b919050565b60008060408385031215612a2b57600080fd5b612a34836129fc565b946020939093013593505050565b600060208284031215612a5457600080fd5b610cc4826129fc565b600060208284031215612a6f57600080fd5b813560ff81168114610cc457600080fd5b634e487b7160e01b600052604160045260246000fd5b604051601f8201601f191681016001600160401b0381118282101715612abe57612abe612a80565b604052919050565b60008060408385031215612ad957600080fd5b823591506020808401356001600160401b0380821115612af857600080fd5b818601915086601f830112612b0c57600080fd5b813581811115612b1e57612b1e612a80565b8060051b9150612b2f848301612a96565b8181529183018401918481019089841115612b4957600080fd5b938501935b83851015612b6757843582529385019390850190612b4e565b8096505050505050509250929050565b600080600060608486031215612b8c57600080fd5b612b95846129fc565b9250612ba3602085016129fc565b9150604084013590509250925092565b600060208284031215612bc557600080fd5b5035919050565b6001600160a01b0391909116815260200190565b60008060408385031215612bf357600080fd5b612bfc836129fc565b91506020808401356001600160401b0380821115612c1957600080fd5b818601915086601f830112612c2d57600080fd5b813581811115612c3f57612c3f612a80565b612c51601f8201601f19168501612a96565b91508082528784828501011115612c6757600080fd5b80848401858401376000848284010152508093505050509250929050565b634e487b7160e01b600052602160045260246000fd5b60088110612cb957634e487b7160e01b600052602160045260246000fd5b9052565b6001600160a01b03881681526020810187905260ff8616604082015260e08101612cea6060830187612c9b565b608082019490945291151560a083015260c090910152949350505050565b60008151808452602080850194506020840160005b83811015612d3957815187529582019590820190600101612d1d565b509495945050505050565b602081526000610cc46020830184612d08565b60008060008060008060c08789031215612d7057600080fd5b86356001600160401b0381168114612d8757600080fd5b9550612d95602088016129fc565b9450612da3604088016129fc565b9350612db1606088016129fc565b925060808701359150612dc660a088016129fc565b90509295509295509295565b60008060408385031215612de557600080fd5b612dee836129fc565b9150612dfc602084016129fc565b90509250929050565b600181811c90821680612e1957607f821691505b602082108103612e3957634e487b7160e01b600052602260045260246000fd5b50919050565b602080825260129082015271125b9d985b1a59081c99595b0818dbdd5b9d60721b604082015260600190565b80516001600160501b0381168114612a1357600080fd5b600080600080600060a08688031215612e9a57600080fd5b612ea386612e6b565b9450602086015193506040860151925060608601519150612ec660808701612e6b565b90509295509295909350565b81810381811115610ad457610ad461297c565b8082028115828204841417610ad457610ad461297c565b634e487b7160e01b600052601260045260246000fd5b600082612f2157612f21612efc565b500490565b600060208284031215612f3857600080fd5b5051919050565b600060018201612f5157612f5161297c565b5060010190565b634e487b7160e01b600052603260045260246000fd5b60ff85168152608060208201526000612f8a6080830186612d08565b9050612f996040830185612c9b565b82606083015295945050505050565b6001600160a01b039390931683526020830191909152604082015260600190565b60ff8181168382160290811690818114612fe557612fe561297c565b5092915050565b600082612ffb57612ffb612efc565b500690565b600060ff821660ff81036130165761301661297c565b60010192915050565b60006020828403121561303157600080fd5b815160088110610cc457600080fd5b601f821115611ac1576000816000526020600020601f850160051c810160208610156130695750805b601f850160051c820191505b8181101561308857828155600101613075565b505050505050565b81516001600160401b038111156130a9576130a9612a80565b6130bd816130b78454612e05565b84613040565b602080601f8311600181146130f257600084156130da5750858301515b600019600386901b1c1916600185901b178555613088565b600085815260208120601f198616915b8281101561312157888601518255948401946001909101908401613102565b508582101561313f5787850151600019600388901b60f8161c191681555b5050505050600190811b01905550565b600082516131618184602087016129a5565b919091019291505056fe360894a13ba1a3210667c828492db98dca3e2076cc3735a920a3ca505d382bbca2646970667358221220b60a0e93e144950d41085a20eb82d78052a81aefbbb629e3d9976d2f201659a564736f6c63430008160033",
  "linkReferences": {},
  "deployedLinkReferences": {}
}